{
  "address": "0x5efE48F8383921d950683C46B87E28e21DEa9FB5",
  "abi": [
    {
      "inputs": [],
      "stateMutability": "nonpayable",
      "type": "constructor"
    },
    {
      "inputs": [],
      "name": "AssetStillControlledInReserves",
      "type": "error"
    },
    {
      "inputs": [],
      "name": "HourlyLimitExceeded",
      "type": "error"
    },
    {
      "inputs": [],
      "name": "InvalidToken",
      "type": "error"
    },
    {
      "inputs": [],
      "name": "NotGovernor",
      "type": "error"
    },
    {
      "inputs": [],
      "name": "NotGovernorOrGuardian",
      "type": "error"
    },
    {
      "inputs": [],
      "name": "TooHighParameterValue",
      "type": "error"
    },
    {
      "inputs": [],
      "name": "ZeroAddress",
      "type": "error"
    },
    {
      "anonymous": false,
      "inputs": [
        {
          "indexed": true,
          "internalType": "address",
          "name": "owner",
          "type": "address"
        },
        {
          "indexed": true,
          "internalType": "address",
          "name": "spender",
          "type": "address"
        },
        {
          "indexed": false,
          "internalType": "uint256",
          "name": "value",
          "type": "uint256"
        }
      ],
      "name": "Approval",
      "type": "event"
    },
    {
      "anonymous": false,
      "inputs": [
        {
          "indexed": true,
          "internalType": "address",
          "name": "bridgeToken",
          "type": "address"
        },
        {
          "indexed": false,
          "internalType": "uint256",
          "name": "limit",
          "type": "uint256"
        },
        {
          "indexed": false,
          "internalType": "uint256",
          "name": "hourlyLimit",
          "type": "uint256"
        },
        {
          "indexed": false,
          "internalType": "uint64",
          "name": "fee",
          "type": "uint64"
        },
        {
          "indexed": false,
          "internalType": "bool",
          "name": "paused",
          "type": "bool"
        }
      ],
      "name": "BridgeTokenAdded",
      "type": "event"
    },
    {
      "anonymous": false,
      "inputs": [
        {
          "indexed": true,
          "internalType": "address",
          "name": "bridgeToken",
          "type": "address"
        },
        {
          "indexed": false,
          "internalType": "uint64",
          "name": "fee",
          "type": "uint64"
        }
      ],
      "name": "BridgeTokenFeeUpdated",
      "type": "event"
    },
    {
      "anonymous": false,
      "inputs": [
        {
          "indexed": true,
          "internalType": "address",
          "name": "bridgeToken",
          "type": "address"
        },
        {
          "indexed": false,
          "internalType": "uint256",
          "name": "hourlyLimit",
          "type": "uint256"
        }
      ],
      "name": "BridgeTokenHourlyLimitUpdated",
      "type": "event"
    },
    {
      "anonymous": false,
      "inputs": [
        {
          "indexed": true,
          "internalType": "address",
          "name": "bridgeToken",
          "type": "address"
        },
        {
          "indexed": false,
          "internalType": "uint256",
          "name": "limit",
          "type": "uint256"
        }
      ],
      "name": "BridgeTokenLimitUpdated",
      "type": "event"
    },
    {
      "anonymous": false,
      "inputs": [
        {
          "indexed": true,
          "internalType": "address",
          "name": "bridgeToken",
          "type": "address"
        }
      ],
      "name": "BridgeTokenRemoved",
      "type": "event"
    },
    {
      "anonymous": false,
      "inputs": [
        {
          "indexed": true,
          "internalType": "address",
          "name": "bridgeToken",
          "type": "address"
        },
        {
          "indexed": false,
          "internalType": "bool",
          "name": "toggleStatus",
          "type": "bool"
        }
      ],
      "name": "BridgeTokenToggled",
      "type": "event"
    },
    {
      "anonymous": false,
      "inputs": [
        {
          "indexed": true,
          "internalType": "address",
          "name": "theAddress",
          "type": "address"
        },
        {
          "indexed": false,
          "internalType": "uint256",
          "name": "toggleStatus",
          "type": "uint256"
        }
      ],
      "name": "FeeToggled",
      "type": "event"
    },
    {
      "anonymous": false,
      "inputs": [
        {
          "indexed": false,
          "internalType": "uint256",
          "name": "hourlyLimit",
          "type": "uint256"
        }
      ],
      "name": "HourlyLimitUpdated",
      "type": "event"
    },
    {
      "anonymous": false,
      "inputs": [
        {
          "indexed": true,
          "internalType": "address",
          "name": "token",
          "type": "address"
        },
        {
          "indexed": true,
          "internalType": "address",
          "name": "to",
          "type": "address"
        },
        {
          "indexed": false,
          "internalType": "uint256",
          "name": "amount",
          "type": "uint256"
        }
      ],
      "name": "Recovered",
      "type": "event"
    },
    {
      "anonymous": false,
      "inputs": [
        {
          "indexed": true,
          "internalType": "address",
          "name": "from",
          "type": "address"
        },
        {
          "indexed": true,
          "internalType": "address",
          "name": "to",
          "type": "address"
        },
        {
          "indexed": false,
          "internalType": "uint256",
          "name": "value",
          "type": "uint256"
        }
      ],
      "name": "Transfer",
      "type": "event"
    },
    {
      "inputs": [],
      "name": "BASE_PARAMS",
      "outputs": [
        {
          "internalType": "uint256",
          "name": "",
          "type": "uint256"
        }
      ],
      "stateMutability": "view",
      "type": "function"
    },
    {
      "inputs": [],
      "name": "DOMAIN_SEPARATOR",
      "outputs": [
        {
          "internalType": "bytes32",
          "name": "",
          "type": "bytes32"
        }
      ],
      "stateMutability": "view",
      "type": "function"
    },
    {
      "inputs": [
        {
          "internalType": "address",
          "name": "bridgeToken",
          "type": "address"
        },
        {
          "internalType": "uint256",
          "name": "limit",
          "type": "uint256"
        },
        {
          "internalType": "uint256",
          "name": "hourlyLimit",
          "type": "uint256"
        },
        {
          "internalType": "uint64",
          "name": "fee",
          "type": "uint64"
        },
        {
          "internalType": "bool",
          "name": "paused",
          "type": "bool"
        }
      ],
      "name": "addBridgeToken",
      "outputs": [],
      "stateMutability": "nonpayable",
      "type": "function"
    },
    {
      "inputs": [],
      "name": "allBridgeTokens",
      "outputs": [
        {
          "internalType": "address[]",
          "name": "",
          "type": "address[]"
        }
      ],
      "stateMutability": "view",
      "type": "function"
    },
    {
      "inputs": [
        {
          "internalType": "address",
          "name": "owner",
          "type": "address"
        },
        {
          "internalType": "address",
          "name": "spender",
          "type": "address"
        }
      ],
      "name": "allowance",
      "outputs": [
        {
          "internalType": "uint256",
          "name": "",
          "type": "uint256"
        }
      ],
      "stateMutability": "view",
      "type": "function"
    },
    {
      "inputs": [
        {
          "internalType": "address",
          "name": "spender",
          "type": "address"
        },
        {
          "internalType": "uint256",
          "name": "amount",
          "type": "uint256"
        }
      ],
      "name": "approve",
      "outputs": [
        {
          "internalType": "bool",
          "name": "",
          "type": "bool"
        }
      ],
      "stateMutability": "nonpayable",
      "type": "function"
    },
    {
      "inputs": [
        {
          "internalType": "address",
          "name": "account",
          "type": "address"
        }
      ],
      "name": "balanceOf",
      "outputs": [
        {
          "internalType": "uint256",
          "name": "",
          "type": "uint256"
        }
      ],
      "stateMutability": "view",
      "type": "function"
    },
    {
      "inputs": [
        {
          "internalType": "uint256",
          "name": "",
          "type": "uint256"
        }
      ],
      "name": "bridgeTokensList",
      "outputs": [
        {
          "internalType": "address",
          "name": "",
          "type": "address"
        }
      ],
      "stateMutability": "view",
      "type": "function"
    },
    {
      "inputs": [
        {
          "internalType": "address",
          "name": "",
          "type": "address"
        }
      ],
      "name": "bridges",
      "outputs": [
        {
          "internalType": "uint256",
          "name": "limit",
          "type": "uint256"
        },
        {
          "internalType": "uint256",
          "name": "hourlyLimit",
          "type": "uint256"
        },
        {
          "internalType": "uint64",
          "name": "fee",
          "type": "uint64"
        },
        {
          "internalType": "bool",
          "name": "allowed",
          "type": "bool"
        },
        {
          "internalType": "bool",
          "name": "paused",
          "type": "bool"
        }
      ],
      "stateMutability": "view",
      "type": "function"
    },
    {
      "inputs": [],
      "name": "chainTotalHourlyLimit",
      "outputs": [
        {
          "internalType": "uint256",
          "name": "",
          "type": "uint256"
        }
      ],
      "stateMutability": "view",
      "type": "function"
    },
    {
      "inputs": [
        {
          "internalType": "uint256",
          "name": "",
          "type": "uint256"
        }
      ],
      "name": "chainTotalUsage",
      "outputs": [
        {
          "internalType": "uint256",
          "name": "",
          "type": "uint256"
        }
      ],
      "stateMutability": "view",
      "type": "function"
    },
    {
      "inputs": [],
      "name": "core",
      "outputs": [
        {
          "internalType": "contract ICoreBorrow",
          "name": "",
          "type": "address"
        }
      ],
      "stateMutability": "view",
      "type": "function"
    },
    {
      "inputs": [],
      "name": "currentTotalUsage",
      "outputs": [
        {
          "internalType": "uint256",
          "name": "",
          "type": "uint256"
        }
      ],
      "stateMutability": "view",
      "type": "function"
    },
    {
      "inputs": [
        {
          "internalType": "address",
          "name": "bridgeToken",
          "type": "address"
        }
      ],
      "name": "currentUsage",
      "outputs": [
        {
          "internalType": "uint256",
          "name": "",
          "type": "uint256"
        }
      ],
      "stateMutability": "view",
      "type": "function"
    },
    {
      "inputs": [],
      "name": "decimals",
      "outputs": [
        {
          "internalType": "uint8",
          "name": "",
          "type": "uint8"
        }
      ],
      "stateMutability": "view",
      "type": "function"
    },
    {
      "inputs": [
        {
          "internalType": "address",
          "name": "spender",
          "type": "address"
        },
        {
          "internalType": "uint256",
          "name": "subtractedValue",
          "type": "uint256"
        }
      ],
      "name": "decreaseAllowance",
      "outputs": [
        {
          "internalType": "bool",
          "name": "",
          "type": "bool"
        }
      ],
      "stateMutability": "nonpayable",
      "type": "function"
    },
    {
      "inputs": [
        {
          "internalType": "address",
          "name": "spender",
          "type": "address"
        },
        {
          "internalType": "uint256",
          "name": "addedValue",
          "type": "uint256"
        }
      ],
      "name": "increaseAllowance",
      "outputs": [
        {
          "internalType": "bool",
          "name": "",
          "type": "bool"
        }
      ],
      "stateMutability": "nonpayable",
      "type": "function"
    },
    {
      "inputs": [
        {
          "internalType": "string",
          "name": "name_",
          "type": "string"
        },
        {
          "internalType": "string",
          "name": "symbol_",
          "type": "string"
        },
        {
          "internalType": "contract ICoreBorrow",
          "name": "_core",
          "type": "address"
        },
        {
          "internalType": "address",
          "name": "bridgeToken",
          "type": "address"
        },
        {
          "internalType": "uint256",
          "name": "limit",
          "type": "uint256"
        },
        {
          "internalType": "uint256",
          "name": "hourlyLimit",
          "type": "uint256"
        },
        {
          "internalType": "uint64",
          "name": "fee",
          "type": "uint64"
        },
        {
          "internalType": "bool",
          "name": "paused",
          "type": "bool"
        },
        {
          "internalType": "uint256",
          "name": "_chainTotalHourlyLimit",
          "type": "uint256"
        }
      ],
      "name": "initialize",
      "outputs": [],
      "stateMutability": "nonpayable",
      "type": "function"
    },
    {
      "inputs": [
        {
          "internalType": "address",
          "name": "",
          "type": "address"
        }
      ],
      "name": "isFeeExempt",
      "outputs": [
        {
          "internalType": "uint256",
          "name": "",
          "type": "uint256"
        }
      ],
      "stateMutability": "view",
      "type": "function"
    },
    {
      "inputs": [],
      "name": "name",
      "outputs": [
        {
          "internalType": "string",
          "name": "",
          "type": "string"
        }
      ],
      "stateMutability": "view",
      "type": "function"
    },
    {
      "inputs": [
        {
          "internalType": "address",
          "name": "owner",
          "type": "address"
        }
      ],
      "name": "nonces",
      "outputs": [
        {
          "internalType": "uint256",
          "name": "",
          "type": "uint256"
        }
      ],
      "stateMutability": "view",
      "type": "function"
    },
    {
      "inputs": [
        {
          "internalType": "address",
          "name": "owner",
          "type": "address"
        },
        {
          "internalType": "address",
          "name": "spender",
          "type": "address"
        },
        {
          "internalType": "uint256",
          "name": "value",
          "type": "uint256"
        },
        {
          "internalType": "uint256",
          "name": "deadline",
          "type": "uint256"
        },
        {
          "internalType": "uint8",
          "name": "v",
          "type": "uint8"
        },
        {
          "internalType": "bytes32",
          "name": "r",
          "type": "bytes32"
        },
        {
          "internalType": "bytes32",
          "name": "s",
          "type": "bytes32"
        }
      ],
      "name": "permit",
      "outputs": [],
      "stateMutability": "nonpayable",
      "type": "function"
    },
    {
      "inputs": [
        {
          "internalType": "address",
          "name": "tokenAddress",
          "type": "address"
        },
        {
          "internalType": "address",
          "name": "to",
          "type": "address"
        },
        {
          "internalType": "uint256",
          "name": "amountToRecover",
          "type": "uint256"
        }
      ],
      "name": "recoverERC20",
      "outputs": [],
      "stateMutability": "nonpayable",
      "type": "function"
    },
    {
      "inputs": [
        {
          "internalType": "address",
          "name": "bridgeToken",
          "type": "address"
        }
      ],
      "name": "removeBridgeToken",
      "outputs": [],
      "stateMutability": "nonpayable",
      "type": "function"
    },
    {
      "inputs": [
        {
          "internalType": "uint256",
          "name": "hourlyLimit",
          "type": "uint256"
        }
      ],
      "name": "setChainTotalHourlyLimit",
      "outputs": [],
      "stateMutability": "nonpayable",
      "type": "function"
    },
    {
      "inputs": [
        {
          "internalType": "contract ICoreBorrow",
          "name": "_core",
          "type": "address"
        }
      ],
      "name": "setCore",
      "outputs": [],
      "stateMutability": "nonpayable",
      "type": "function"
    },
    {
      "inputs": [
        {
          "internalType": "address",
          "name": "bridgeToken",
          "type": "address"
        },
        {
          "internalType": "uint256",
          "name": "hourlyLimit",
          "type": "uint256"
        }
      ],
      "name": "setHourlyLimit",
      "outputs": [],
      "stateMutability": "nonpayable",
      "type": "function"
    },
    {
      "inputs": [
        {
          "internalType": "address",
          "name": "bridgeToken",
          "type": "address"
        },
        {
          "internalType": "uint256",
          "name": "limit",
          "type": "uint256"
        }
      ],
      "name": "setLimit",
      "outputs": [],
      "stateMutability": "nonpayable",
      "type": "function"
    },
    {
      "inputs": [
        {
          "internalType": "address",
          "name": "bridgeToken",
          "type": "address"
        },
        {
          "internalType": "uint64",
          "name": "fee",
          "type": "uint64"
        }
      ],
      "name": "setSwapFee",
      "outputs": [],
      "stateMutability": "nonpayable",
      "type": "function"
    },
    {
      "inputs": [
        {
          "internalType": "address",
          "name": "bridgeToken",
          "type": "address"
        },
        {
          "internalType": "uint256",
          "name": "amount",
          "type": "uint256"
        },
        {
          "internalType": "address",
          "name": "to",
          "type": "address"
        }
      ],
      "name": "swapIn",
      "outputs": [
        {
          "internalType": "uint256",
          "name": "",
          "type": "uint256"
        }
      ],
      "stateMutability": "nonpayable",
      "type": "function"
    },
    {
      "inputs": [
        {
          "internalType": "address",
          "name": "bridgeToken",
          "type": "address"
        },
        {
          "internalType": "uint256",
          "name": "amount",
          "type": "uint256"
        },
        {
          "internalType": "address",
          "name": "to",
          "type": "address"
        }
      ],
      "name": "swapOut",
      "outputs": [
        {
          "internalType": "uint256",
          "name": "",
          "type": "uint256"
        }
      ],
      "stateMutability": "nonpayable",
      "type": "function"
    },
    {
      "inputs": [],
      "name": "symbol",
      "outputs": [
        {
          "internalType": "string",
          "name": "",
          "type": "string"
        }
      ],
      "stateMutability": "view",
      "type": "function"
    },
    {
      "inputs": [
        {
          "internalType": "address",
          "name": "bridgeToken",
          "type": "address"
        }
      ],
      "name": "toggleBridge",
      "outputs": [],
      "stateMutability": "nonpayable",
      "type": "function"
    },
    {
      "inputs": [
        {
          "internalType": "address",
          "name": "theAddress",
          "type": "address"
        }
      ],
      "name": "toggleFeesForAddress",
      "outputs": [],
      "stateMutability": "nonpayable",
      "type": "function"
    },
    {
      "inputs": [],
      "name": "totalSupply",
      "outputs": [
        {
          "internalType": "uint256",
          "name": "",
          "type": "uint256"
        }
      ],
      "stateMutability": "view",
      "type": "function"
    },
    {
      "inputs": [
        {
          "internalType": "address",
          "name": "recipient",
          "type": "address"
        },
        {
          "internalType": "uint256",
          "name": "amount",
          "type": "uint256"
        }
      ],
      "name": "transfer",
      "outputs": [
        {
          "internalType": "bool",
          "name": "",
          "type": "bool"
        }
      ],
      "stateMutability": "nonpayable",
      "type": "function"
    },
    {
      "inputs": [
        {
          "internalType": "address",
          "name": "sender",
          "type": "address"
        },
        {
          "internalType": "address",
          "name": "recipient",
          "type": "address"
        },
        {
          "internalType": "uint256",
          "name": "amount",
          "type": "uint256"
        }
      ],
      "name": "transferFrom",
      "outputs": [
        {
          "internalType": "bool",
          "name": "",
          "type": "bool"
        }
      ],
      "stateMutability": "nonpayable",
      "type": "function"
    },
    {
      "inputs": [
        {
          "internalType": "address",
          "name": "",
          "type": "address"
        },
        {
          "internalType": "uint256",
          "name": "",
          "type": "uint256"
        }
      ],
      "name": "usage",
      "outputs": [
        {
          "internalType": "uint256",
          "name": "",
          "type": "uint256"
        }
      ],
      "stateMutability": "view",
      "type": "function"
    }
  ],
  "transactionHash": "0x6748442bd8167b40902fbe45921f70ce2ff19d6a8609b602926a4a95e13bec03",
  "args": [],
  "numDeployments": 1,
  "solcInputHash": "df0edfdf1a2dc083cb4f7726ee89e57b",
  "bytecode": "0x60806040523480156200001157600080fd5b50600054610100900460ff166200002f5760005460ff161562000039565b62000039620000de565b620000a15760405162461bcd60e51b815260206004820152602e60248201527f496e697469616c697a61626c653a20636f6e747261637420697320616c72656160448201526d191e481a5b9a5d1a585b1a5e995960921b606482015260840160405180910390fd5b600054610100900460ff16158015620000c4576000805461ffff19166101011790555b8015620000d7576000805461ff00191690555b5062000102565b6000620000f630620000fc60201b620023891760201c565b15905090565b3b151590565b61431a80620001126000396000f3fe608060405234801561001057600080fd5b50600436106102925760003560e01c80637334d02011610160578063a457c2d7116100d8578063d44ad63f1161008c578063dd62ed3e11610071578063dd62ed3e14610615578063e3e286551461065b578063f2f4eb261461066e57600080fd5b8063d44ad63f146105ef578063d505accf1461060257600080fd5b8063ba330bd7116100bd578063ba330bd71461050f578063cd4839ca14610547578063ced67f0c1461055c57600080fd5b8063a457c2d7146104e9578063a9059cbb146104fc57600080fd5b8063800096301161012f57806395d89b411161011457806395d89b41146104c35780639e4e0dae146104cb5780639f48118f146104de57600080fd5b806380009630146104855780638933fb791461049857600080fd5b80637334d020146104445780637d4c9c2d146104575780637d74e25f1461046a5780637ecebe001461047257600080fd5b8063313ce5671161020e5780633f4218e0116101c25780634dc32fcc116101a75780634dc32fcc146103db5780635bfbec96146103ee57806370a082311461040e57600080fd5b80633f4218e0146103a8578063453bb6b7146103c857600080fd5b806336db43b5116101f357806336db43b51461036f57806339509351146103825780633a55f89d1461039557600080fd5b8063313ce567146103585780633644e5151461036757600080fd5b8063151dd755116102655780632342fb0e1161024a5780632342fb0e1461032957806323b872dd146103325780632e403e141461034557600080fd5b8063151dd7551461030057806318160ddd1461032157600080fd5b806306fdde03146102975780630919a951146102b5578063095ea7b3146102ca5780631171bda9146102ed575b600080fd5b61029f61068e565b6040516102ac9190613bdc565b60405180910390f35b6102c86102c3366004613c4f565b610720565b005b6102dd6102d8366004613c6c565b610883565b60405190151581526020016102ac565b6102c86102fb366004613c98565b610899565b61031361030e366004613cd9565b6109ee565b6040519081526020016102ac565b603554610313565b61031360d15481565b6102dd610340366004613c98565b610ca7565b6102c8610353366004613c4f565b610d92565b604051601281526020016102ac565b610313611144565b6102c861037d366004613c6c565b611153565b6102dd610390366004613c6c565b6112e3565b6102c86103a3366004613d1b565b61132c565b6103136103b6366004613c4f565b60d06020526000908152604090205481565b6102c86103d6366004613e44565b611400565b6103136103e9366004613c4f565b6115db565b6103136103fc366004613d1b565b60d26020526000908152604090205481565b61031361041c366004613c4f565b73ffffffffffffffffffffffffffffffffffffffff1660009081526033602052604090205490565b6102c8610452366004613c6c565b611623565b6102c8610465366004613f0c565b6117b6565b610313611892565b610313610480366004613c4f565b6118b7565b6102c8610493366004613c4f565b6118e4565b6103136104a6366004613c6c565b60cf60209081526000928352604080842090915290825290205481565b61029f611ab7565b6102c86104d9366004613f69565b611ac6565b610313633b9aca0081565b6102dd6104f7366004613c6c565b611cd2565b6102dd61050a366004613c6c565b611daa565b61052261051d366004613d1b565b611db7565b60405173ffffffffffffffffffffffffffffffffffffffff90911681526020016102ac565b61054f611dee565b6040516102ac9190613f9e565b6105b661056a366004613c4f565b60cd6020526000908152604090208054600182015460029092015490919067ffffffffffffffff81169060ff680100000000000000008204811691690100000000000000000090041685565b60408051958652602086019490945267ffffffffffffffff9092169284019290925290151560608301521515608082015260a0016102ac565b6103136105fd366004613cd9565b611e5c565b6102c8610610366004613ff8565b612020565b61031361062336600461406f565b73ffffffffffffffffffffffffffffffffffffffff918216600090815260346020908152604080832093909416825291909152205490565b6102c8610669366004613c4f565b6121b5565b60cc546105229073ffffffffffffffffffffffffffffffffffffffff1681565b60606036805461069d906140a8565b80601f01602080910402602001604051908101604052809291908181526020018280546106c9906140a8565b80156107165780601f106106eb57610100808354040283529160200191610716565b820191906000526020600020905b8154815290600101906020018083116106f957829003601f168201915b5050505050905090565b60cc546040517f521d4de900000000000000000000000000000000000000000000000000000000815233600482015273ffffffffffffffffffffffffffffffffffffffff9091169063521d4de990602401602060405180830381865afa15801561078e573d6000803e3d6000fd5b505050506040513d601f19601f820116820180604052508101906107b291906140f6565b6107e8576040517f99e120bc00000000000000000000000000000000000000000000000000000000815260040160405180910390fd5b73ffffffffffffffffffffffffffffffffffffffff8116600090815260d06020526040812054610819906001614142565b73ffffffffffffffffffffffffffffffffffffffff8316600081815260d060205260409081902083905551919250907f979ef83e7e7a87cb48064e296dd7e997870d50f43acf8d7ad221313526c8ca0f906108779084815260200190565b60405180910390a25050565b600061089033848461238f565b50600192915050565b60cc546040517fe43581b800000000000000000000000000000000000000000000000000000000815233600482015273ffffffffffffffffffffffffffffffffffffffff9091169063e43581b890602401602060405180830381865afa158015610907573d6000803e3d6000fd5b505050506040513d601f19601f8201168201806040525081019061092b91906140f6565b610961576040517fee3675d400000000000000000000000000000000000000000000000000000000815260040160405180910390fd5b61098273ffffffffffffffffffffffffffffffffffffffff8416838361253a565b8173ffffffffffffffffffffffffffffffffffffffff168373ffffffffffffffffffffffffffffffffffffffff167ffff3b3844276f57024e0b42afec1a37f75db36511e43819a4f2a63ab7862b648836040516109e191815260200190565b60405180910390a3505050565b73ffffffffffffffffffffffffffffffffffffffff8316600090815260cd60209081526040808320815160a081018352815481526001820154938101939093526002015467ffffffffffffffff81169183019190915260ff680100000000000000008204811615801560608501526901000000000000000000909204161515608083015280610a7e575080608001515b15610ab5576040517fc1ab6dc100000000000000000000000000000000000000000000000000000000815260040160405180910390fd5b6040517f70a0823100000000000000000000000000000000000000000000000000000000815230600482015260009073ffffffffffffffffffffffffffffffffffffffff8716906370a0823190602401602060405180830381865afa158015610b22573d6000803e3d6000fd5b505050506040513d601f19601f82011682018060405250810190610b469190614159565b8251909150610b558683614172565b1115610b7d578151811015610b78578151610b71908290614142565b9450610b7d565b600094505b6000610b8b610e104261418a565b73ffffffffffffffffffffffffffffffffffffffff8816600090815260cf602090815260408083208484528252909120549085015191925090610bce8883614172565b1115610bf95780846020015111610be6576000610bf6565b808460200151610bf69190614142565b96505b610c038782614172565b73ffffffffffffffffffffffffffffffffffffffff8916600081815260cf60209081526040808320878452909152902091909155610c439033308a612613565b33600090815260d060205260409020548790610c8f57633b9aca00856040015167ffffffffffffffff1682610c7891906141c5565b610c82919061418a565b610c8c9082614142565b90505b610c998782612677565b9450505050505b9392505050565b6000610cb4848484612798565b73ffffffffffffffffffffffffffffffffffffffff8416600090815260346020908152604080832033845290915290205482811015610d7a576040517f08c379a000000000000000000000000000000000000000000000000000000000815260206004820152602860248201527f45524332303a207472616e7366657220616d6f756e742065786365656473206160448201527f6c6c6f77616e636500000000000000000000000000000000000000000000000060648201526084015b60405180910390fd5b610d87853385840361238f565b506001949350505050565b60cc546040517fe43581b800000000000000000000000000000000000000000000000000000000815233600482015273ffffffffffffffffffffffffffffffffffffffff9091169063e43581b890602401602060405180830381865afa158015610e00573d6000803e3d6000fd5b505050506040513d601f19601f82011682018060405250810190610e2491906140f6565b610e5a576040517fee3675d400000000000000000000000000000000000000000000000000000000815260040160405180910390fd5b6040517f70a0823100000000000000000000000000000000000000000000000000000000815230600482015273ffffffffffffffffffffffffffffffffffffffff8216906370a0823190602401602060405180830381865afa158015610ec4573d6000803e3d6000fd5b505050506040513d601f19601f82011682018060405250810190610ee89190614159565b15610f1f576040517f2ef630ec00000000000000000000000000000000000000000000000000000000815260040160405180910390fd5b73ffffffffffffffffffffffffffffffffffffffff8116600090815260cd602052604081208181556001810182905560020180547fffffffffffffffffffffffffffffffffffffffffffff0000000000000000000016905560ce54905b610f87600183614142565b811015611095578273ffffffffffffffffffffffffffffffffffffffff1660ce8281548110610fb857610fb8614202565b60009182526020909120015473ffffffffffffffffffffffffffffffffffffffff1614156110835760ce610fed600184614142565b81548110610ffd57610ffd614202565b60009182526020909120015460ce805473ffffffffffffffffffffffffffffffffffffffff909216918390811061103657611036614202565b9060005260206000200160006101000a81548173ffffffffffffffffffffffffffffffffffffffff021916908373ffffffffffffffffffffffffffffffffffffffff160217905550611095565b8061108d81614231565b915050610f7c565b5060ce8054806110a7576110a761426a565b60008281526020812082017fffffffffffffffffffffffffffffffffffffffffffffffffffffffffffffffff90810180547fffffffffffffffffffffffff000000000000000000000000000000000000000016905590910190915560405173ffffffffffffffffffffffffffffffffffffffff8416917f5c95b49c4d59d97a2f044167723f29c74b30f99702e3fd406c3830160aa9ccb891a25050565b600061114e612a4b565b905090565b60cc546040517f521d4de900000000000000000000000000000000000000000000000000000000815233600482015273ffffffffffffffffffffffffffffffffffffffff9091169063521d4de990602401602060405180830381865afa1580156111c1573d6000803e3d6000fd5b505050506040513d601f19601f820116820180604052508101906111e591906140f6565b61121b576040517f99e120bc00000000000000000000000000000000000000000000000000000000815260040160405180910390fd5b73ffffffffffffffffffffffffffffffffffffffff8216600090815260cd602052604090206002015468010000000000000000900460ff16611289576040517fc1ab6dc100000000000000000000000000000000000000000000000000000000815260040160405180910390fd5b73ffffffffffffffffffffffffffffffffffffffff8216600081815260cd602052604090819020839055517fe7b113fba37131b6396680a0c55790a697ec975e198ff8cfd89dac90a6379e61906108779084815260200190565b33600081815260346020908152604080832073ffffffffffffffffffffffffffffffffffffffff871684529091528120549091610890918590611327908690614172565b61238f565b60cc546040517f521d4de900000000000000000000000000000000000000000000000000000000815233600482015273ffffffffffffffffffffffffffffffffffffffff9091169063521d4de990602401602060405180830381865afa15801561139a573d6000803e3d6000fd5b505050506040513d601f19601f820116820180604052508101906113be91906140f6565b6113f4576040517f99e120bc00000000000000000000000000000000000000000000000000000000815260040160405180910390fd5b6113fd81612ac6565b50565b600054610100900460ff1661141b5760005460ff161561141f565b303b155b6114ab576040517f08c379a000000000000000000000000000000000000000000000000000000000815260206004820152602e60248201527f496e697469616c697a61626c653a20636f6e747261637420697320616c72656160448201527f647920696e697469616c697a65640000000000000000000000000000000000006064820152608401610d71565b600054610100900460ff161580156114ea57600080547fffffffffffffffffffffffffffffffffffffffffffffffffffffffffffff0000166101011790555b6114f38a612b01565b6114fd8a8a612be8565b73ffffffffffffffffffffffffffffffffffffffff881661154a576040517fd92e233d00000000000000000000000000000000000000000000000000000000815260040160405180910390fd5b60cc80547fffffffffffffffffffffffff00000000000000000000000000000000000000001673ffffffffffffffffffffffffffffffffffffffff8a161790556115978787878787612c91565b6115a082612ac6565b80156115cf57600080547fffffffffffffffffffffffffffffffffffffffffffffffffffffffffffff00ff1690555b50505050505050505050565b73ffffffffffffffffffffffffffffffffffffffff8116600090815260cf602052604081208161160d610e104261418a565b8152602001908152602001600020549050919050565b60cc546040517f521d4de900000000000000000000000000000000000000000000000000000000815233600482015273ffffffffffffffffffffffffffffffffffffffff9091169063521d4de990602401602060405180830381865afa158015611691573d6000803e3d6000fd5b505050506040513d601f19601f820116820180604052508101906116b591906140f6565b6116eb576040517f99e120bc00000000000000000000000000000000000000000000000000000000815260040160405180910390fd5b73ffffffffffffffffffffffffffffffffffffffff8216600090815260cd602052604090206002015468010000000000000000900460ff16611759576040517fc1ab6dc100000000000000000000000000000000000000000000000000000000815260040160405180910390fd5b73ffffffffffffffffffffffffffffffffffffffff8216600081815260cd602052604090819020600101839055517fe13ac9338b2ee623233f83c1b3ceab16490fa3e3737fac7f0970d0830a9f4871906108779084815260200190565b60cc546040517fe43581b800000000000000000000000000000000000000000000000000000000815233600482015273ffffffffffffffffffffffffffffffffffffffff9091169063e43581b890602401602060405180830381865afa158015611824573d6000803e3d6000fd5b505050506040513d601f19601f8201168201806040525081019061184891906140f6565b61187e576040517fee3675d400000000000000000000000000000000000000000000000000000000815260040160405180910390fd5b61188b8585858585612c91565b5050505050565b600060d2816118a3610e104261418a565b815260200190815260200160002054905090565b73ffffffffffffffffffffffffffffffffffffffff81166000908152609960205260408120545b92915050565b60cc546040517fe43581b800000000000000000000000000000000000000000000000000000000815233600482015273ffffffffffffffffffffffffffffffffffffffff9091169063e43581b890602401602060405180830381865afa158015611952573d6000803e3d6000fd5b505050506040513d601f19601f8201168201806040525081019061197691906140f6565b6119ac576040517fee3675d400000000000000000000000000000000000000000000000000000000815260040160405180910390fd5b6040517fe43581b800000000000000000000000000000000000000000000000000000000815233600482015273ffffffffffffffffffffffffffffffffffffffff82169063e43581b890602401602060405180830381865afa158015611a16573d6000803e3d6000fd5b505050506040513d601f19601f82011682018060405250810190611a3a91906140f6565b611a70576040517fee3675d400000000000000000000000000000000000000000000000000000000815260040160405180910390fd5b60cc80547fffffffffffffffffffffffff00000000000000000000000000000000000000001673ffffffffffffffffffffffffffffffffffffffff92909216919091179055565b60606037805461069d906140a8565b60cc546040517f521d4de900000000000000000000000000000000000000000000000000000000815233600482015273ffffffffffffffffffffffffffffffffffffffff9091169063521d4de990602401602060405180830381865afa158015611b34573d6000803e3d6000fd5b505050506040513d601f19601f82011682018060405250810190611b5891906140f6565b611b8e576040517f99e120bc00000000000000000000000000000000000000000000000000000000815260040160405180910390fd5b73ffffffffffffffffffffffffffffffffffffffff8216600090815260cd602052604090206002015468010000000000000000900460ff16611bfc576040517fc1ab6dc100000000000000000000000000000000000000000000000000000000815260040160405180910390fd5b633b9aca008167ffffffffffffffff161115611c44576040517feca1d2c600000000000000000000000000000000000000000000000000000000815260040160405180910390fd5b73ffffffffffffffffffffffffffffffffffffffff8216600081815260cd602090815260409182902060020180547fffffffffffffffffffffffffffffffffffffffffffffffff00000000000000001667ffffffffffffffff861690811790915591519182527f901f9de19b475adc8da4110434b8df940dce085afd05e2281c86807f3a899d299101610877565b33600090815260346020908152604080832073ffffffffffffffffffffffffffffffffffffffff8616845290915281205482811015611d93576040517f08c379a000000000000000000000000000000000000000000000000000000000815260206004820152602560248201527f45524332303a2064656372656173656420616c6c6f77616e63652062656c6f7760448201527f207a65726f0000000000000000000000000000000000000000000000000000006064820152608401610d71565b611da0338585840361238f565b5060019392505050565b6000610890338484612798565b60ce8181548110611dc757600080fd5b60009182526020909120015473ffffffffffffffffffffffffffffffffffffffff16905081565b606060ce80548060200260200160405190810160405280929190818152602001828054801561071657602002820191906000526020600020905b815473ffffffffffffffffffffffffffffffffffffffff168152600190910190602001808311611e28575050505050905090565b73ffffffffffffffffffffffffffffffffffffffff8316600090815260cd60209081526040808320815160a081018352815481526001820154938101939093526002015467ffffffffffffffff81169183019190915260ff680100000000000000008204811615801560608501526901000000000000000000909204161515608083015280611eec575080608001515b15611f23576040517fc1ab6dc100000000000000000000000000000000000000000000000000000000815260040160405180910390fd5b6000611f31610e104261418a565b600081815260d2602052604081205491925090611f4f908790614172565b905060d154811115611f8d576040517f6d43d1ac00000000000000000000000000000000000000000000000000000000815260040160405180910390fd5b600082815260d260205260409020819055611fa83387612f31565b33600090815260d060205260409020548690611ff457633b9aca00846040015167ffffffffffffffff1682611fdd91906141c5565b611fe7919061418a565b611ff19082614142565b90505b61201573ffffffffffffffffffffffffffffffffffffffff8916878361253a565b979650505050505050565b8342111561208a576040517f08c379a000000000000000000000000000000000000000000000000000000000815260206004820152601d60248201527f45524332305065726d69743a206578706972656420646561646c696e650000006044820152606401610d71565b6000609a5488888861209b8c61311e565b60408051602081019690965273ffffffffffffffffffffffffffffffffffffffff94851690860152929091166060840152608083015260a082015260c0810186905260e001604051602081830303815290604052805190602001209050600061210382613153565b90506000612113828787876131bc565b90508973ffffffffffffffffffffffffffffffffffffffff168173ffffffffffffffffffffffffffffffffffffffff16146121aa576040517f08c379a000000000000000000000000000000000000000000000000000000000815260206004820152601e60248201527f45524332305065726d69743a20696e76616c6964207369676e617475726500006044820152606401610d71565b6115cf8a8a8a61238f565b60cc546040517f521d4de900000000000000000000000000000000000000000000000000000000815233600482015273ffffffffffffffffffffffffffffffffffffffff9091169063521d4de990602401602060405180830381865afa158015612223573d6000803e3d6000fd5b505050506040513d601f19601f8201168201806040525081019061224791906140f6565b61227d576040517f99e120bc00000000000000000000000000000000000000000000000000000000815260040160405180910390fd5b73ffffffffffffffffffffffffffffffffffffffff8116600090815260cd602052604090206002015468010000000000000000900460ff166122eb576040517fc1ab6dc100000000000000000000000000000000000000000000000000000000815260040160405180910390fd5b73ffffffffffffffffffffffffffffffffffffffff8116600081815260cd602090815260409182902060020180547fffffffffffffffffffffffffffffffffffffffffffff00ffffffffffffffffff811669010000000000000000009182900460ff16801592830291909117909255925192835292917ff7c93079dcbf699749d66345a351afab7d24219bb1d915c9f4fc4cf03f00d3979101610877565b3b151590565b73ffffffffffffffffffffffffffffffffffffffff8316612431576040517f08c379a0000000000000000000000000000000000000000000000000000000008152602060048201526024808201527f45524332303a20617070726f76652066726f6d20746865207a65726f2061646460448201527f72657373000000000000000000000000000000000000000000000000000000006064820152608401610d71565b73ffffffffffffffffffffffffffffffffffffffff82166124d4576040517f08c379a000000000000000000000000000000000000000000000000000000000815260206004820152602260248201527f45524332303a20617070726f766520746f20746865207a65726f20616464726560448201527f73730000000000000000000000000000000000000000000000000000000000006064820152608401610d71565b73ffffffffffffffffffffffffffffffffffffffff83811660008181526034602090815260408083209487168084529482529182902085905590518481527f8c5be1e5ebec7d5bd14f71427d1e84f3dd0314c0f7b2291e5b200ac8c7c3b92591016109e1565b60405173ffffffffffffffffffffffffffffffffffffffff831660248201526044810182905261260e9084907fa9059cbb00000000000000000000000000000000000000000000000000000000906064015b604080517fffffffffffffffffffffffffffffffffffffffffffffffffffffffffffffffe08184030181529190526020810180517bffffffffffffffffffffffffffffffffffffffffffffffffffffffff167fffffffff00000000000000000000000000000000000000000000000000000000909316929092179091526131e4565b505050565b60405173ffffffffffffffffffffffffffffffffffffffff808516602483015283166044820152606481018290526126719085907f23b872dd000000000000000000000000000000000000000000000000000000009060840161258c565b50505050565b73ffffffffffffffffffffffffffffffffffffffff82166126f4576040517f08c379a000000000000000000000000000000000000000000000000000000000815260206004820152601f60248201527f45524332303a206d696e7420746f20746865207a65726f2061646472657373006044820152606401610d71565b80603560008282546127069190614172565b909155505073ffffffffffffffffffffffffffffffffffffffff821660009081526033602052604081208054839290612740908490614172565b909155505060405181815273ffffffffffffffffffffffffffffffffffffffff8316906000907fddf252ad1be2c89b69c2b068fc378daa952ba7f163c4a11628f55a4df523b3ef9060200160405180910390a35b5050565b73ffffffffffffffffffffffffffffffffffffffff831661283b576040517f08c379a000000000000000000000000000000000000000000000000000000000815260206004820152602560248201527f45524332303a207472616e736665722066726f6d20746865207a65726f20616460448201527f64726573730000000000000000000000000000000000000000000000000000006064820152608401610d71565b73ffffffffffffffffffffffffffffffffffffffff82166128de576040517f08c379a000000000000000000000000000000000000000000000000000000000815260206004820152602360248201527f45524332303a207472616e7366657220746f20746865207a65726f206164647260448201527f65737300000000000000000000000000000000000000000000000000000000006064820152608401610d71565b73ffffffffffffffffffffffffffffffffffffffff831660009081526033602052604090205481811015612994576040517f08c379a000000000000000000000000000000000000000000000000000000000815260206004820152602660248201527f45524332303a207472616e7366657220616d6f756e742065786365656473206260448201527f616c616e636500000000000000000000000000000000000000000000000000006064820152608401610d71565b73ffffffffffffffffffffffffffffffffffffffff8085166000908152603360205260408082208585039055918516815290812080548492906129d8908490614172565b925050819055508273ffffffffffffffffffffffffffffffffffffffff168473ffffffffffffffffffffffffffffffffffffffff167fddf252ad1be2c89b69c2b068fc378daa952ba7f163c4a11628f55a4df523b3ef84604051612a3e91815260200190565b60405180910390a3612671565b600061114e7f8b73c3c69bb8fe3d512ecc4cf759cc79239f7b179b0ffacaa9a75d522b39400f612a7a60655490565b6066546040805160208101859052908101839052606081018290524660808201523060a082015260009060c0016040516020818303038152906040528051906020012090509392505050565b60d18190556040518181527fc3b69829afe2345596a02c8b587d41f796ba0094481d899e1b2e07b7532a1e219060200160405180910390a150565b600054610100900460ff16612b98576040517f08c379a000000000000000000000000000000000000000000000000000000000815260206004820152602b60248201527f496e697469616c697a61626c653a20636f6e7472616374206973206e6f74206960448201527f6e697469616c697a696e670000000000000000000000000000000000000000006064820152608401610d71565b612ba06132f0565b612bdf816040518060400160405280600181526020017f3100000000000000000000000000000000000000000000000000000000000000815250613389565b6113fd8161343a565b600054610100900460ff16612c7f576040517f08c379a000000000000000000000000000000000000000000000000000000000815260206004820152602b60248201527f496e697469616c697a61626c653a20636f6e7472616374206973206e6f74206960448201527f6e697469616c697a696e670000000000000000000000000000000000000000006064820152608401610d71565b612c876132f0565b61279482826134f8565b73ffffffffffffffffffffffffffffffffffffffff8516600090815260cd602052604090206002015468010000000000000000900460ff1680612ce8575073ffffffffffffffffffffffffffffffffffffffff8516155b15612d1f576040517fc1ab6dc100000000000000000000000000000000000000000000000000000000815260040160405180910390fd5b633b9aca008267ffffffffffffffff161115612d67576040517feca1d2c600000000000000000000000000000000000000000000000000000000815260040160405180910390fd5b6040805160a08101825260008082526020820181905291810182905260608101829052608081019190915284815260208082018581528315156080840190815267ffffffffffffffff808716604080870191825260016060880181815273ffffffffffffffffffffffffffffffffffffffff8e16600081815260cd9099528389208a5181559751888401559351600290970180549151965115156901000000000000000000027fffffffffffffffffffffffffffffffffffffffffffff00ffffffffffffffffff97151568010000000000000000027fffffffffffffffffffffffffffffffffffffffffffffff000000000000000000909316989096169790971717949094169290921790935560ce805492830181559093527fd36cd1c74ef8d7326d8021b776c18fb5a5724b7f7bc93c2f42e43e10ef27d12a0180547fffffffffffffffffffffffff0000000000000000000000000000000000000000168217905590517f53087ff85d80a7671594bd2e86b92af22e0b3c2c441c8033bba7399b7b5cbe2390612f21908890889088908890938452602084019290925267ffffffffffffffff1660408301521515606082015260800190565b60405180910390a2505050505050565b73ffffffffffffffffffffffffffffffffffffffff8216612fd4576040517f08c379a000000000000000000000000000000000000000000000000000000000815260206004820152602160248201527f45524332303a206275726e2066726f6d20746865207a65726f2061646472657360448201527f73000000000000000000000000000000000000000000000000000000000000006064820152608401610d71565b73ffffffffffffffffffffffffffffffffffffffff82166000908152603360205260409020548181101561308a576040517f08c379a000000000000000000000000000000000000000000000000000000000815260206004820152602260248201527f45524332303a206275726e20616d6f756e7420657863656564732062616c616e60448201527f63650000000000000000000000000000000000000000000000000000000000006064820152608401610d71565b73ffffffffffffffffffffffffffffffffffffffff831660009081526033602052604081208383039055603580548492906130c6908490614142565b909155505060405182815260009073ffffffffffffffffffffffffffffffffffffffff8516907fddf252ad1be2c89b69c2b068fc378daa952ba7f163c4a11628f55a4df523b3ef9060200160405180910390a3505050565b73ffffffffffffffffffffffffffffffffffffffff811660009081526099602052604090208054600181018255905b50919050565b60006118de613160612a4b565b836040517f19010000000000000000000000000000000000000000000000000000000000006020820152602281018390526042810182905260009060620160405160208183030381529060405280519060200120905092915050565b60008060006131cd878787876135b6565b915091506131da816136ce565b5095945050505050565b6000613246826040518060400160405280602081526020017f5361666545524332303a206c6f772d6c6576656c2063616c6c206661696c65648152508573ffffffffffffffffffffffffffffffffffffffff166139279092919063ffffffff16565b80519091501561260e578080602001905181019061326491906140f6565b61260e576040517f08c379a000000000000000000000000000000000000000000000000000000000815260206004820152602a60248201527f5361666545524332303a204552433230206f7065726174696f6e20646964206e60448201527f6f742073756363656564000000000000000000000000000000000000000000006064820152608401610d71565b600054610100900460ff16613387576040517f08c379a000000000000000000000000000000000000000000000000000000000815260206004820152602b60248201527f496e697469616c697a61626c653a20636f6e7472616374206973206e6f74206960448201527f6e697469616c697a696e670000000000000000000000000000000000000000006064820152608401610d71565b565b600054610100900460ff16613420576040517f08c379a000000000000000000000000000000000000000000000000000000000815260206004820152602b60248201527f496e697469616c697a61626c653a20636f6e7472616374206973206e6f74206960448201527f6e697469616c697a696e670000000000000000000000000000000000000000006064820152608401610d71565b815160209283012081519190920120606591909155606655565b600054610100900460ff166134d1576040517f08c379a000000000000000000000000000000000000000000000000000000000815260206004820152602b60248201527f496e697469616c697a61626c653a20636f6e7472616374206973206e6f74206960448201527f6e697469616c697a696e670000000000000000000000000000000000000000006064820152608401610d71565b507f6e71edae12b1b97f4d1f60370fef10105fa2faae0126114a169c64845d6126c9609a55565b600054610100900460ff1661358f576040517f08c379a000000000000000000000000000000000000000000000000000000000815260206004820152602b60248201527f496e697469616c697a61626c653a20636f6e7472616374206973206e6f74206960448201527f6e697469616c697a696e670000000000000000000000000000000000000000006064820152608401610d71565b81516135a2906036906020850190613b17565b50805161260e906037906020840190613b17565b6000807f7fffffffffffffffffffffffffffffff5d576e7357a4501ddfe92f46681b20a08311156135ed57506000905060036136c5565b8460ff16601b1415801561360557508460ff16601c14155b1561361657506000905060046136c5565b6040805160008082526020820180845289905260ff881692820192909252606081018690526080810185905260019060a0016020604051602081039080840390855afa15801561366a573d6000803e3d6000fd5b50506040517fffffffffffffffffffffffffffffffffffffffffffffffffffffffffffffffe0015191505073ffffffffffffffffffffffffffffffffffffffff81166136be576000600192509250506136c5565b9150600090505b94509492505050565b60008160048111156136e2576136e2614299565b14156136eb5750565b60018160048111156136ff576136ff614299565b1415613767576040517f08c379a000000000000000000000000000000000000000000000000000000000815260206004820152601860248201527f45434453413a20696e76616c6964207369676e617475726500000000000000006044820152606401610d71565b600281600481111561377b5761377b614299565b14156137e3576040517f08c379a000000000000000000000000000000000000000000000000000000000815260206004820152601f60248201527f45434453413a20696e76616c6964207369676e6174757265206c656e677468006044820152606401610d71565b60038160048111156137f7576137f7614299565b1415613885576040517f08c379a000000000000000000000000000000000000000000000000000000000815260206004820152602260248201527f45434453413a20696e76616c6964207369676e6174757265202773272076616c60448201527f75650000000000000000000000000000000000000000000000000000000000006064820152608401610d71565b600481600481111561389957613899614299565b14156113fd576040517f08c379a000000000000000000000000000000000000000000000000000000000815260206004820152602260248201527f45434453413a20696e76616c6964207369676e6174757265202776272076616c60448201527f75650000000000000000000000000000000000000000000000000000000000006064820152608401610d71565b6060613936848460008561393e565b949350505050565b6060824710156139d0576040517f08c379a000000000000000000000000000000000000000000000000000000000815260206004820152602660248201527f416464726573733a20696e73756666696369656e742062616c616e636520666f60448201527f722063616c6c00000000000000000000000000000000000000000000000000006064820152608401610d71565b73ffffffffffffffffffffffffffffffffffffffff85163b613a4e576040517f08c379a000000000000000000000000000000000000000000000000000000000815260206004820152601d60248201527f416464726573733a2063616c6c20746f206e6f6e2d636f6e74726163740000006044820152606401610d71565b6000808673ffffffffffffffffffffffffffffffffffffffff168587604051613a7791906142c8565b60006040518083038185875af1925050503d8060008114613ab4576040519150601f19603f3d011682016040523d82523d6000602084013e613ab9565b606091505b509150915061201582828660608315613ad3575081610ca0565b825115613ae35782518084602001fd5b816040517f08c379a0000000000000000000000000000000000000000000000000000000008152600401610d719190613bdc565b828054613b23906140a8565b90600052602060002090601f016020900481019282613b455760008555613b8b565b82601f10613b5e57805160ff1916838001178555613b8b565b82800160010185558215613b8b579182015b82811115613b8b578251825591602001919060010190613b70565b50613b97929150613b9b565b5090565b5b80821115613b975760008155600101613b9c565b60005b83811015613bcb578181015183820152602001613bb3565b838111156126715750506000910152565b6020815260008251806020840152613bfb816040850160208701613bb0565b601f017fffffffffffffffffffffffffffffffffffffffffffffffffffffffffffffffe0169190910160400192915050565b73ffffffffffffffffffffffffffffffffffffffff811681146113fd57600080fd5b600060208284031215613c6157600080fd5b8135610ca081613c2d565b60008060408385031215613c7f57600080fd5b8235613c8a81613c2d565b946020939093013593505050565b600080600060608486031215613cad57600080fd5b8335613cb881613c2d565b92506020840135613cc881613c2d565b929592945050506040919091013590565b600080600060608486031215613cee57600080fd5b8335613cf981613c2d565b9250602084013591506040840135613d1081613c2d565b809150509250925092565b600060208284031215613d2d57600080fd5b5035919050565b7f4e487b7100000000000000000000000000000000000000000000000000000000600052604160045260246000fd5b600082601f830112613d7457600080fd5b813567ffffffffffffffff80821115613d8f57613d8f613d34565b604051601f83017fffffffffffffffffffffffffffffffffffffffffffffffffffffffffffffffe0908116603f01168101908282118183101715613dd557613dd5613d34565b81604052838152866020858801011115613dee57600080fd5b836020870160208301376000602085830101528094505050505092915050565b803567ffffffffffffffff81168114613e2657600080fd5b919050565b80151581146113fd57600080fd5b8035613e2681613e2b565b60008060008060008060008060006101208a8c031215613e6357600080fd5b893567ffffffffffffffff80821115613e7b57600080fd5b613e878d838e01613d63565b9a5060208c0135915080821115613e9d57600080fd5b50613eaa8c828d01613d63565b98505060408a0135613ebb81613c2d565b965060608a0135613ecb81613c2d565b955060808a0135945060a08a01359350613ee760c08b01613e0e565b9250613ef560e08b01613e39565b91506101008a013590509295985092959850929598565b600080600080600060a08688031215613f2457600080fd5b8535613f2f81613c2d565b94506020860135935060408601359250613f4b60608701613e0e565b91506080860135613f5b81613e2b565b809150509295509295909350565b60008060408385031215613f7c57600080fd5b8235613f8781613c2d565b9150613f9560208401613e0e565b90509250929050565b6020808252825182820181905260009190848201906040850190845b81811015613fec57835173ffffffffffffffffffffffffffffffffffffffff1683529284019291840191600101613fba565b50909695505050505050565b600080600080600080600060e0888a03121561401357600080fd5b873561401e81613c2d565b9650602088013561402e81613c2d565b95506040880135945060608801359350608088013560ff8116811461405257600080fd5b9699959850939692959460a0840135945060c09093013592915050565b6000806040838503121561408257600080fd5b823561408d81613c2d565b9150602083013561409d81613c2d565b809150509250929050565b600181811c908216806140bc57607f821691505b6020821081141561314d577f4e487b7100000000000000000000000000000000000000000000000000000000600052602260045260246000fd5b60006020828403121561410857600080fd5b8151610ca081613e2b565b7f4e487b7100000000000000000000000000000000000000000000000000000000600052601160045260246000fd5b60008282101561415457614154614113565b500390565b60006020828403121561416b57600080fd5b5051919050565b6000821982111561418557614185614113565b500190565b6000826141c0577f4e487b7100000000000000000000000000000000000000000000000000000000600052601260045260246000fd5b500490565b6000817fffffffffffffffffffffffffffffffffffffffffffffffffffffffffffffffff04831182151516156141fd576141fd614113565b500290565b7f4e487b7100000000000000000000000000000000000000000000000000000000600052603260045260246000fd5b60007fffffffffffffffffffffffffffffffffffffffffffffffffffffffffffffffff82141561426357614263614113565b5060010190565b7f4e487b7100000000000000000000000000000000000000000000000000000000600052603160045260246000fd5b7f4e487b7100000000000000000000000000000000000000000000000000000000600052602160045260246000fd5b600082516142da818460208701613bb0565b919091019291505056fea2646970667358221220fc57809770c62e11814d78c0cc1b908b485ed25d2aae985e1a67f4ca47c2a6b264736f6c634300080c0033",
  "devdoc": {
    "author": "Angle Labs, Inc.",
    "details": "This contract supports bridge tokens having a minting right on the ERC20 token (also referred to as the canonical of the chain)This implementation assumes that the token bridged has 18 decimals",
    "kind": "dev",
    "methods": {
      "DOMAIN_SEPARATOR()": {
        "details": "See {IERC20Permit-DOMAIN_SEPARATOR}."
      },
      "addBridgeToken(address,uint256,uint256,uint64,bool)": {
        "params": {
          "bridgeToken": "Bridge token to add: it should be a version of the canonical token from another bridge",
          "fee": "Fee taken upon swapping for or against this token",
          "hourlyLimit": "Limit on the hourly volume for this bridge",
          "limit": "Limit on the balance of bridge token this contract could hold",
          "paused": "Whether swapping for this token should be paused or not"
        }
      },
      "allBridgeTokens()": {
        "details": "Helpful for UIs"
      },
      "allowance(address,address)": {
        "details": "See {IERC20-allowance}."
      },
      "approve(address,uint256)": {
        "details": "See {IERC20-approve}. Requirements: - `spender` cannot be the zero address."
      },
      "balanceOf(address)": {
        "details": "See {IERC20-balanceOf}."
      },
      "constructor": {
        "custom:oz-upgrades-unsafe-allow": "constructor"
      },
      "currentTotalUsage()": {
        "details": "Helpful for UIs"
      },
      "currentUsage(address)": {
        "details": "Helpful for UIs",
        "params": {
          "bridgeToken": "Bridge used to mint"
        }
      },
      "decimals()": {
        "details": "Returns the number of decimals used to get its user representation. For example, if `decimals` equals `2`, a balance of `505` tokens should be displayed to a user as `5.05` (`505 / 10 ** 2`). Tokens usually opt for a value of 18, imitating the relationship between Ether and Wei. This is the value {ERC20} uses, unless this function is overridden; NOTE: This information is only used for _display_ purposes: it in no way affects any of the arithmetic of the contract, including {IERC20-balanceOf} and {IERC20-transfer}."
      },
      "decreaseAllowance(address,uint256)": {
        "details": "Atomically decreases the allowance granted to `spender` by the caller. This is an alternative to {approve} that can be used as a mitigation for problems described in {IERC20-approve}. Emits an {Approval} event indicating the updated allowance. Requirements: - `spender` cannot be the zero address. - `spender` must have allowance for the caller of at least `subtractedValue`."
      },
      "increaseAllowance(address,uint256)": {
        "details": "Atomically increases the allowance granted to `spender` by the caller. This is an alternative to {approve} that can be used as a mitigation for problems described in {IERC20-approve}. Emits an {Approval} event indicating the updated allowance. Requirements: - `spender` cannot be the zero address."
      },
      "initialize(string,string,address,address,uint256,uint256,uint64,bool,uint256)": {
        "details": "This implementation allows to add directly at deployment a bridge token",
        "params": {
          "_core": "Reference to the `CoreBorrow` contract",
          "name_": "Name of the token",
          "symbol_": "Symbol of the token"
        }
      },
      "name()": {
        "details": "Returns the name of the token."
      },
      "nonces(address)": {
        "details": "See {IERC20Permit-nonces}."
      },
      "permit(address,address,uint256,uint256,uint8,bytes32,bytes32)": {
        "details": "See {IERC20Permit-permit}."
      },
      "recoverERC20(address,address,uint256)": {
        "details": "Can be used to withdraw bridge tokens for them to be de-bridged on mainnet"
      },
      "removeBridgeToken(address)": {
        "params": {
          "bridgeToken": "Address of the bridge token to remove support for"
        }
      },
      "setCore(address)": {
        "details": "One sanity check that can be performed here is to verify whether at least the governor calling the contract is still a governor in the new core"
      },
      "swapIn(address,uint256,address)": {
        "details": "Some fees may be taken by the protocol depending on the token used and on the address calling",
        "params": {
          "amount": "Amount of bridge tokens to send",
          "bridgeToken": "Bridge token to use to mint",
          "to": "Address to which the token should be sent"
        },
        "returns": {
          "_0": "Amount of canonical token actually minted"
        }
      },
      "swapOut(address,uint256,address)": {
        "details": "Some fees may be taken by the protocol depending on the token used and on the address calling",
        "params": {
          "amount": "Amount of canonical tokens to burn",
          "bridgeToken": "Bridge token required",
          "to": "Address to which the bridge token should be sent"
        },
        "returns": {
          "_0": "Amount of bridge tokens actually sent back"
        }
      },
      "symbol()": {
        "details": "Returns the symbol of the token, usually a shorter version of the name."
      },
      "totalSupply()": {
        "details": "See {IERC20-totalSupply}."
      },
      "transfer(address,uint256)": {
        "details": "See {IERC20-transfer}. Requirements: - `recipient` cannot be the zero address. - the caller must have a balance of at least `amount`."
      },
      "transferFrom(address,address,uint256)": {
        "details": "See {IERC20-transferFrom}. Emits an {Approval} event indicating the updated allowance. This is not required by the EIP. See the note at the beginning of {ERC20}. Requirements: - `sender` and `recipient` cannot be the zero address. - `sender` must have a balance of at least `amount`. - the caller must have allowance for ``sender``'s tokens of at least `amount`."
      }
    },
    "title": "TokenSideChainMultiBridge",
    "version": 1
  },
  "userdoc": {
    "kind": "user",
    "methods": {
      "BASE_PARAMS()": {
        "notice": "Base used for fee computation"
      },
      "addBridgeToken(address,uint256,uint256,uint64,bool)": {
        "notice": "Adds support for a bridge token"
      },
      "allBridgeTokens()": {
        "notice": "Returns the list of all supported bridge tokens"
      },
      "bridgeTokensList(uint256)": {
        "notice": "List of all bridge tokens"
      },
      "bridges(address)": {
        "notice": "Maps a bridge token to data"
      },
      "chainTotalHourlyLimit()": {
        "notice": "Limit to the amount of tokens that can be sent from that chain to another chain"
      },
      "chainTotalUsage(uint256)": {
        "notice": "Usage per hour on that chain. Maps an hourly timestamp to the total volume swapped out on the chain"
      },
      "core()": {
        "notice": "Reference to the core contract which handles access control"
      },
      "currentTotalUsage()": {
        "notice": "Returns the current total volume on the chain for the current hour"
      },
      "currentUsage(address)": {
        "notice": "Returns the current volume for a bridge, for the current hour"
      },
      "initialize(string,string,address,address,uint256,uint256,uint64,bool,uint256)": {
        "notice": "Initializes the contract"
      },
      "isFeeExempt(address)": {
        "notice": "Maps an address to whether it is exempt of fees for when it comes to swapping in and out"
      },
      "recoverERC20(address,address,uint256)": {
        "notice": "Recovers any ERC20 token"
      },
      "removeBridgeToken(address)": {
        "notice": "Removes support for a token"
      },
      "setChainTotalHourlyLimit(uint256)": {
        "notice": "Updates the `chainTotalHourlyLimit` amount"
      },
      "setCore(address)": {
        "notice": "Sets a new `core` contract"
      },
      "setHourlyLimit(address,uint256)": {
        "notice": "Updates the `hourlyLimit` amount for `bridgeToken`"
      },
      "setLimit(address,uint256)": {
        "notice": "Updates the `limit` amount for `bridgeToken`"
      },
      "setSwapFee(address,uint64)": {
        "notice": "Updates the `fee` value for `bridgeToken`"
      },
      "swapIn(address,uint256,address)": {
        "notice": "Mints the canonical token from a supported bridge token"
      },
      "swapOut(address,uint256,address)": {
        "notice": "Burns the canonical token in exchange for a bridge token"
      },
      "toggleBridge(address)": {
        "notice": "Pauses or unpauses swapping in and out for a token"
      },
      "toggleFeesForAddress(address)": {
        "notice": "Toggles fees for the address `theAddress`"
      },
      "usage(address,uint256)": {
        "notice": "Maps a bridge token to the associated hourly volume"
      }
    },
    "notice": "Contract for an ERC20 token that exists natively on a chain on other chains than this native chain",
    "version": 1
  },
  "storageLayout": {
    "storage": [
      {
        "astId": 6,
        "contract": "contracts/bridgeERC20/TokenSideChainMultiBridge.sol:TokenSideChainMultiBridge",
        "label": "_initialized",
        "offset": 0,
        "slot": "0",
        "type": "t_bool"
      },
      {
        "astId": 9,
        "contract": "contracts/bridgeERC20/TokenSideChainMultiBridge.sol:TokenSideChainMultiBridge",
        "label": "_initializing",
        "offset": 1,
        "slot": "0",
        "type": "t_bool"
      },
      {
        "astId": 1383,
        "contract": "contracts/bridgeERC20/TokenSideChainMultiBridge.sol:TokenSideChainMultiBridge",
        "label": "__gap",
        "offset": 0,
        "slot": "1",
        "type": "t_array(t_uint256)50_storage"
      },
      {
        "astId": 205,
        "contract": "contracts/bridgeERC20/TokenSideChainMultiBridge.sol:TokenSideChainMultiBridge",
        "label": "_balances",
        "offset": 0,
        "slot": "51",
        "type": "t_mapping(t_address,t_uint256)"
      },
      {
        "astId": 211,
        "contract": "contracts/bridgeERC20/TokenSideChainMultiBridge.sol:TokenSideChainMultiBridge",
        "label": "_allowances",
        "offset": 0,
        "slot": "52",
        "type": "t_mapping(t_address,t_mapping(t_address,t_uint256))"
      },
      {
        "astId": 213,
        "contract": "contracts/bridgeERC20/TokenSideChainMultiBridge.sol:TokenSideChainMultiBridge",
        "label": "_totalSupply",
        "offset": 0,
        "slot": "53",
        "type": "t_uint256"
      },
      {
        "astId": 215,
        "contract": "contracts/bridgeERC20/TokenSideChainMultiBridge.sol:TokenSideChainMultiBridge",
        "label": "_name",
        "offset": 0,
        "slot": "54",
        "type": "t_string_storage"
      },
      {
        "astId": 217,
        "contract": "contracts/bridgeERC20/TokenSideChainMultiBridge.sol:TokenSideChainMultiBridge",
        "label": "_symbol",
        "offset": 0,
        "slot": "55",
        "type": "t_string_storage"
      },
      {
        "astId": 758,
        "contract": "contracts/bridgeERC20/TokenSideChainMultiBridge.sol:TokenSideChainMultiBridge",
        "label": "__gap",
        "offset": 0,
        "slot": "56",
        "type": "t_array(t_uint256)45_storage"
      },
      {
        "astId": 2060,
        "contract": "contracts/bridgeERC20/TokenSideChainMultiBridge.sol:TokenSideChainMultiBridge",
        "label": "_HASHED_NAME",
        "offset": 0,
        "slot": "101",
        "type": "t_bytes32"
      },
      {
        "astId": 2062,
        "contract": "contracts/bridgeERC20/TokenSideChainMultiBridge.sol:TokenSideChainMultiBridge",
        "label": "_HASHED_VERSION",
        "offset": 0,
        "slot": "102",
        "type": "t_bytes32"
      },
      {
        "astId": 2199,
        "contract": "contracts/bridgeERC20/TokenSideChainMultiBridge.sol:TokenSideChainMultiBridge",
        "label": "__gap",
        "offset": 0,
        "slot": "103",
        "type": "t_array(t_uint256)50_storage"
      },
      {
        "astId": 888,
        "contract": "contracts/bridgeERC20/TokenSideChainMultiBridge.sol:TokenSideChainMultiBridge",
        "label": "_nonces",
        "offset": 0,
        "slot": "153",
        "type": "t_mapping(t_address,t_struct(Counter)1390_storage)"
      },
      {
        "astId": 890,
        "contract": "contracts/bridgeERC20/TokenSideChainMultiBridge.sol:TokenSideChainMultiBridge",
        "label": "_PERMIT_TYPEHASH",
        "offset": 0,
        "slot": "154",
        "type": "t_bytes32"
      },
      {
        "astId": 1058,
        "contract": "contracts/bridgeERC20/TokenSideChainMultiBridge.sol:TokenSideChainMultiBridge",
        "label": "__gap",
        "offset": 0,
        "slot": "155",
        "type": "t_array(t_uint256)49_storage"
      },
      {
        "astId": 5241,
        "contract": "contracts/bridgeERC20/TokenSideChainMultiBridge.sol:TokenSideChainMultiBridge",
        "label": "core",
        "offset": 0,
        "slot": "204",
        "type": "t_contract(ICoreBorrow)8209"
      },
      {
        "astId": 5247,
        "contract": "contracts/bridgeERC20/TokenSideChainMultiBridge.sol:TokenSideChainMultiBridge",
        "label": "bridges",
        "offset": 0,
        "slot": "205",
        "type": "t_mapping(t_address,t_struct(BridgeDetails)5231_storage)"
      },
      {
        "astId": 5251,
        "contract": "contracts/bridgeERC20/TokenSideChainMultiBridge.sol:TokenSideChainMultiBridge",
        "label": "bridgeTokensList",
        "offset": 0,
        "slot": "206",
        "type": "t_array(t_address)dyn_storage"
      },
      {
        "astId": 5258,
        "contract": "contracts/bridgeERC20/TokenSideChainMultiBridge.sol:TokenSideChainMultiBridge",
        "label": "usage",
        "offset": 0,
        "slot": "207",
        "type": "t_mapping(t_address,t_mapping(t_uint256,t_uint256))"
      },
      {
        "astId": 5263,
        "contract": "contracts/bridgeERC20/TokenSideChainMultiBridge.sol:TokenSideChainMultiBridge",
        "label": "isFeeExempt",
        "offset": 0,
        "slot": "208",
        "type": "t_mapping(t_address,t_uint256)"
      },
      {
        "astId": 5266,
        "contract": "contracts/bridgeERC20/TokenSideChainMultiBridge.sol:TokenSideChainMultiBridge",
        "label": "chainTotalHourlyLimit",
        "offset": 0,
        "slot": "209",
        "type": "t_uint256"
      },
      {
        "astId": 5271,
        "contract": "contracts/bridgeERC20/TokenSideChainMultiBridge.sol:TokenSideChainMultiBridge",
        "label": "chainTotalUsage",
        "offset": 0,
        "slot": "210",
        "type": "t_mapping(t_uint256,t_uint256)"
      }
    ],
    "types": {
      "t_address": {
        "encoding": "inplace",
        "label": "address",
        "numberOfBytes": "20"
      },
      "t_array(t_address)dyn_storage": {
        "base": "t_address",
        "encoding": "dynamic_array",
        "label": "address[]",
        "numberOfBytes": "32"
      },
      "t_array(t_uint256)45_storage": {
        "base": "t_uint256",
        "encoding": "inplace",
        "label": "uint256[45]",
        "numberOfBytes": "1440"
      },
      "t_array(t_uint256)49_storage": {
        "base": "t_uint256",
        "encoding": "inplace",
        "label": "uint256[49]",
        "numberOfBytes": "1568"
      },
      "t_array(t_uint256)50_storage": {
        "base": "t_uint256",
        "encoding": "inplace",
        "label": "uint256[50]",
        "numberOfBytes": "1600"
      },
      "t_bool": {
        "encoding": "inplace",
        "label": "bool",
        "numberOfBytes": "1"
      },
      "t_bytes32": {
        "encoding": "inplace",
        "label": "bytes32",
        "numberOfBytes": "32"
      },
      "t_contract(ICoreBorrow)8209": {
        "encoding": "inplace",
        "label": "contract ICoreBorrow",
        "numberOfBytes": "20"
      },
      "t_mapping(t_address,t_mapping(t_address,t_uint256))": {
        "encoding": "mapping",
        "key": "t_address",
        "label": "mapping(address => mapping(address => uint256))",
        "numberOfBytes": "32",
        "value": "t_mapping(t_address,t_uint256)"
      },
      "t_mapping(t_address,t_mapping(t_uint256,t_uint256))": {
        "encoding": "mapping",
        "key": "t_address",
        "label": "mapping(address => mapping(uint256 => uint256))",
        "numberOfBytes": "32",
        "value": "t_mapping(t_uint256,t_uint256)"
      },
      "t_mapping(t_address,t_struct(BridgeDetails)5231_storage)": {
        "encoding": "mapping",
        "key": "t_address",
        "label": "mapping(address => struct TokenSideChainMultiBridge.BridgeDetails)",
        "numberOfBytes": "32",
        "value": "t_struct(BridgeDetails)5231_storage"
      },
      "t_mapping(t_address,t_struct(Counter)1390_storage)": {
        "encoding": "mapping",
        "key": "t_address",
        "label": "mapping(address => struct CountersUpgradeable.Counter)",
        "numberOfBytes": "32",
        "value": "t_struct(Counter)1390_storage"
      },
      "t_mapping(t_address,t_uint256)": {
        "encoding": "mapping",
        "key": "t_address",
        "label": "mapping(address => uint256)",
        "numberOfBytes": "32",
        "value": "t_uint256"
      },
      "t_mapping(t_uint256,t_uint256)": {
        "encoding": "mapping",
        "key": "t_uint256",
        "label": "mapping(uint256 => uint256)",
        "numberOfBytes": "32",
        "value": "t_uint256"
      },
      "t_string_storage": {
        "encoding": "bytes",
        "label": "string",
        "numberOfBytes": "32"
      },
      "t_struct(BridgeDetails)5231_storage": {
        "encoding": "inplace",
        "label": "struct TokenSideChainMultiBridge.BridgeDetails",
        "members": [
          {
            "astId": 5222,
            "contract": "contracts/bridgeERC20/TokenSideChainMultiBridge.sol:TokenSideChainMultiBridge",
            "label": "limit",
            "offset": 0,
            "slot": "0",
            "type": "t_uint256"
          },
          {
            "astId": 5224,
            "contract": "contracts/bridgeERC20/TokenSideChainMultiBridge.sol:TokenSideChainMultiBridge",
            "label": "hourlyLimit",
            "offset": 0,
            "slot": "1",
            "type": "t_uint256"
          },
          {
            "astId": 5226,
            "contract": "contracts/bridgeERC20/TokenSideChainMultiBridge.sol:TokenSideChainMultiBridge",
            "label": "fee",
            "offset": 0,
            "slot": "2",
            "type": "t_uint64"
          },
          {
            "astId": 5228,
            "contract": "contracts/bridgeERC20/TokenSideChainMultiBridge.sol:TokenSideChainMultiBridge",
            "label": "allowed",
            "offset": 8,
            "slot": "2",
            "type": "t_bool"
          },
          {
            "astId": 5230,
            "contract": "contracts/bridgeERC20/TokenSideChainMultiBridge.sol:TokenSideChainMultiBridge",
            "label": "paused",
            "offset": 9,
            "slot": "2",
            "type": "t_bool"
          }
        ],
        "numberOfBytes": "96"
      },
      "t_struct(Counter)1390_storage": {
        "encoding": "inplace",
        "label": "struct CountersUpgradeable.Counter",
        "members": [
          {
            "astId": 1389,
            "contract": "contracts/bridgeERC20/TokenSideChainMultiBridge.sol:TokenSideChainMultiBridge",
            "label": "_value",
            "offset": 0,
            "slot": "0",
            "type": "t_uint256"
          }
        ],
        "numberOfBytes": "32"
      },
      "t_uint256": {
        "encoding": "inplace",
        "label": "uint256",
        "numberOfBytes": "32"
      },
      "t_uint64": {
        "encoding": "inplace",
        "label": "uint64",
        "numberOfBytes": "8"
      }
    }
  }
}