{
  "address": "0xAEC8318a9a59bAEb39861d10ff6C7f7bf1F96C57",
  "abi": [
    {
      "inputs": [],
      "stateMutability": "nonpayable",
      "type": "constructor"
    },
    {
      "inputs": [],
      "name": "InvalidAllowance",
      "type": "error"
    },
    {
      "inputs": [],
      "name": "InvalidCaller",
      "type": "error"
    },
    {
      "inputs": [],
      "name": "InvalidEndpoint",
      "type": "error"
    },
    {
      "inputs": [],
      "name": "InvalidPayload",
      "type": "error"
    },
    {
      "inputs": [],
      "name": "InvalidSource",
      "type": "error"
    },
    {
      "inputs": [],
      "name": "NotGovernor",
      "type": "error"
    },
    {
      "inputs": [],
      "name": "NotGovernorOrGuardian",
      "type": "error"
    },
    {
      "inputs": [],
      "name": "ZeroAddress",
      "type": "error"
    },
    {
      "anonymous": false,
      "inputs": [
        {
          "indexed": true,
          "internalType": "address",
          "name": "owner",
          "type": "address"
        },
        {
          "indexed": true,
          "internalType": "address",
          "name": "spender",
          "type": "address"
        },
        {
          "indexed": false,
          "internalType": "uint256",
          "name": "value",
          "type": "uint256"
        }
      ],
      "name": "Approval",
      "type": "event"
    },
    {
      "anonymous": false,
      "inputs": [
        {
          "indexed": false,
          "internalType": "uint16",
          "name": "_srcChainId",
          "type": "uint16"
        },
        {
          "indexed": false,
          "internalType": "bytes",
          "name": "_srcAddress",
          "type": "bytes"
        },
        {
          "indexed": false,
          "internalType": "uint64",
          "name": "_nonce",
          "type": "uint64"
        },
        {
          "indexed": false,
          "internalType": "bytes",
          "name": "_payload",
          "type": "bytes"
        }
      ],
      "name": "MessageFailed",
      "type": "event"
    },
    {
      "anonymous": false,
      "inputs": [
        {
          "indexed": false,
          "internalType": "address",
          "name": "account",
          "type": "address"
        }
      ],
      "name": "Paused",
      "type": "event"
    },
    {
      "anonymous": false,
      "inputs": [
        {
          "indexed": true,
          "internalType": "uint16",
          "name": "_srcChainId",
          "type": "uint16"
        },
        {
          "indexed": true,
          "internalType": "bytes",
          "name": "_srcAddress",
          "type": "bytes"
        },
        {
          "indexed": true,
          "internalType": "address",
          "name": "_toAddress",
          "type": "address"
        },
        {
          "indexed": false,
          "internalType": "uint256",
          "name": "_amount",
          "type": "uint256"
        },
        {
          "indexed": false,
          "internalType": "uint64",
          "name": "_nonce",
          "type": "uint64"
        }
      ],
      "name": "ReceiveFromChain",
      "type": "event"
    },
    {
      "anonymous": false,
      "inputs": [
        {
          "indexed": true,
          "internalType": "address",
          "name": "_sender",
          "type": "address"
        },
        {
          "indexed": true,
          "internalType": "uint16",
          "name": "_dstChainId",
          "type": "uint16"
        },
        {
          "indexed": true,
          "internalType": "bytes",
          "name": "_toAddress",
          "type": "bytes"
        },
        {
          "indexed": false,
          "internalType": "uint256",
          "name": "_amount",
          "type": "uint256"
        },
        {
          "indexed": false,
          "internalType": "uint64",
          "name": "_nonce",
          "type": "uint64"
        }
      ],
      "name": "SendToChain",
      "type": "event"
    },
    {
      "anonymous": false,
      "inputs": [
        {
          "indexed": false,
          "internalType": "uint16",
          "name": "_srcChainId",
          "type": "uint16"
        },
        {
          "indexed": false,
          "internalType": "bytes",
          "name": "_srcAddress",
          "type": "bytes"
        }
      ],
      "name": "SetTrustedRemote",
      "type": "event"
    },
    {
      "anonymous": false,
      "inputs": [
        {
          "indexed": true,
          "internalType": "address",
          "name": "from",
          "type": "address"
        },
        {
          "indexed": true,
          "internalType": "address",
          "name": "to",
          "type": "address"
        },
        {
          "indexed": false,
          "internalType": "uint256",
          "name": "value",
          "type": "uint256"
        }
      ],
      "name": "Transfer",
      "type": "event"
    },
    {
      "anonymous": false,
      "inputs": [
        {
          "indexed": false,
          "internalType": "address",
          "name": "account",
          "type": "address"
        }
      ],
      "name": "Unpaused",
      "type": "event"
    },
    {
      "inputs": [
        {
          "internalType": "address",
          "name": "owner",
          "type": "address"
        },
        {
          "internalType": "address",
          "name": "spender",
          "type": "address"
        }
      ],
      "name": "allowance",
      "outputs": [
        {
          "internalType": "uint256",
          "name": "",
          "type": "uint256"
        }
      ],
      "stateMutability": "view",
      "type": "function"
    },
    {
      "inputs": [
        {
          "internalType": "address",
          "name": "spender",
          "type": "address"
        },
        {
          "internalType": "uint256",
          "name": "amount",
          "type": "uint256"
        }
      ],
      "name": "approve",
      "outputs": [
        {
          "internalType": "bool",
          "name": "",
          "type": "bool"
        }
      ],
      "stateMutability": "nonpayable",
      "type": "function"
    },
    {
      "inputs": [
        {
          "internalType": "address",
          "name": "account",
          "type": "address"
        }
      ],
      "name": "balanceOf",
      "outputs": [
        {
          "internalType": "uint256",
          "name": "",
          "type": "uint256"
        }
      ],
      "stateMutability": "view",
      "type": "function"
    },
    {
      "inputs": [
        {
          "internalType": "uint256",
          "name": "amount",
          "type": "uint256"
        }
      ],
      "name": "burn",
      "outputs": [],
      "stateMutability": "nonpayable",
      "type": "function"
    },
    {
      "inputs": [],
      "name": "canonicalToken",
      "outputs": [
        {
          "internalType": "contract IAgTokenSideChainMultiBridge",
          "name": "",
          "type": "address"
        }
      ],
      "stateMutability": "view",
      "type": "function"
    },
    {
      "inputs": [],
      "name": "coreBorrow",
      "outputs": [
        {
          "internalType": "address",
          "name": "",
          "type": "address"
        }
      ],
      "stateMutability": "view",
      "type": "function"
    },
    {
      "inputs": [],
      "name": "decimals",
      "outputs": [
        {
          "internalType": "uint8",
          "name": "",
          "type": "uint8"
        }
      ],
      "stateMutability": "view",
      "type": "function"
    },
    {
      "inputs": [
        {
          "internalType": "address",
          "name": "spender",
          "type": "address"
        },
        {
          "internalType": "uint256",
          "name": "subtractedValue",
          "type": "uint256"
        }
      ],
      "name": "decreaseAllowance",
      "outputs": [
        {
          "internalType": "bool",
          "name": "",
          "type": "bool"
        }
      ],
      "stateMutability": "nonpayable",
      "type": "function"
    },
    {
      "inputs": [
        {
          "internalType": "uint16",
          "name": "_dstChainId",
          "type": "uint16"
        },
        {
          "internalType": "bytes",
          "name": "_toAddress",
          "type": "bytes"
        },
        {
          "internalType": "uint256",
          "name": "_amount",
          "type": "uint256"
        },
        {
          "internalType": "bool",
          "name": "_useZro",
          "type": "bool"
        },
        {
          "internalType": "bytes",
          "name": "_adapterParams",
          "type": "bytes"
        }
      ],
      "name": "estimateSendFee",
      "outputs": [
        {
          "internalType": "uint256",
          "name": "nativeFee",
          "type": "uint256"
        },
        {
          "internalType": "uint256",
          "name": "zroFee",
          "type": "uint256"
        }
      ],
      "stateMutability": "view",
      "type": "function"
    },
    {
      "inputs": [
        {
          "internalType": "uint16",
          "name": "",
          "type": "uint16"
        },
        {
          "internalType": "bytes",
          "name": "",
          "type": "bytes"
        },
        {
          "internalType": "uint64",
          "name": "",
          "type": "uint64"
        }
      ],
      "name": "failedMessages",
      "outputs": [
        {
          "internalType": "bytes32",
          "name": "",
          "type": "bytes32"
        }
      ],
      "stateMutability": "view",
      "type": "function"
    },
    {
      "inputs": [
        {
          "internalType": "uint16",
          "name": "_srcChainId",
          "type": "uint16"
        },
        {
          "internalType": "bytes",
          "name": "_srcAddress",
          "type": "bytes"
        }
      ],
      "name": "forceResumeReceive",
      "outputs": [],
      "stateMutability": "nonpayable",
      "type": "function"
    },
    {
      "inputs": [
        {
          "internalType": "uint16",
          "name": "_version",
          "type": "uint16"
        },
        {
          "internalType": "uint16",
          "name": "_chainId",
          "type": "uint16"
        },
        {
          "internalType": "address",
          "name": "",
          "type": "address"
        },
        {
          "internalType": "uint256",
          "name": "_configType",
          "type": "uint256"
        }
      ],
      "name": "getConfig",
      "outputs": [
        {
          "internalType": "bytes",
          "name": "",
          "type": "bytes"
        }
      ],
      "stateMutability": "view",
      "type": "function"
    },
    {
      "inputs": [
        {
          "internalType": "address",
          "name": "spender",
          "type": "address"
        },
        {
          "internalType": "uint256",
          "name": "addedValue",
          "type": "uint256"
        }
      ],
      "name": "increaseAllowance",
      "outputs": [
        {
          "internalType": "bool",
          "name": "",
          "type": "bool"
        }
      ],
      "stateMutability": "nonpayable",
      "type": "function"
    },
    {
      "inputs": [
        {
          "internalType": "string",
          "name": "_name",
          "type": "string"
        },
        {
          "internalType": "string",
          "name": "_symbol",
          "type": "string"
        },
        {
          "internalType": "address",
          "name": "_lzEndpoint",
          "type": "address"
        },
        {
          "internalType": "address",
          "name": "_coreBorrow",
          "type": "address"
        },
        {
          "internalType": "address",
          "name": "_canonicalToken",
          "type": "address"
        }
      ],
      "name": "initialize",
      "outputs": [],
      "stateMutability": "nonpayable",
      "type": "function"
    },
    {
      "inputs": [
        {
          "internalType": "uint16",
          "name": "_srcChainId",
          "type": "uint16"
        },
        {
          "internalType": "bytes",
          "name": "_srcAddress",
          "type": "bytes"
        }
      ],
      "name": "isTrustedRemote",
      "outputs": [
        {
          "internalType": "bool",
          "name": "",
          "type": "bool"
        }
      ],
      "stateMutability": "view",
      "type": "function"
    },
    {
      "inputs": [],
      "name": "lzEndpoint",
      "outputs": [
        {
          "internalType": "contract ILayerZeroEndpoint",
          "name": "",
          "type": "address"
        }
      ],
      "stateMutability": "view",
      "type": "function"
    },
    {
      "inputs": [
        {
          "internalType": "uint16",
          "name": "_srcChainId",
          "type": "uint16"
        },
        {
          "internalType": "bytes",
          "name": "_srcAddress",
          "type": "bytes"
        },
        {
          "internalType": "uint64",
          "name": "_nonce",
          "type": "uint64"
        },
        {
          "internalType": "bytes",
          "name": "_payload",
          "type": "bytes"
        }
      ],
      "name": "lzReceive",
      "outputs": [],
      "stateMutability": "nonpayable",
      "type": "function"
    },
    {
      "inputs": [
        {
          "internalType": "uint256",
          "name": "amount",
          "type": "uint256"
        }
      ],
      "name": "mint",
      "outputs": [],
      "stateMutability": "nonpayable",
      "type": "function"
    },
    {
      "inputs": [],
      "name": "name",
      "outputs": [
        {
          "internalType": "string",
          "name": "",
          "type": "string"
        }
      ],
      "stateMutability": "view",
      "type": "function"
    },
    {
      "inputs": [
        {
          "internalType": "uint16",
          "name": "_srcChainId",
          "type": "uint16"
        },
        {
          "internalType": "bytes",
          "name": "_srcAddress",
          "type": "bytes"
        },
        {
          "internalType": "uint64",
          "name": "_nonce",
          "type": "uint64"
        },
        {
          "internalType": "bytes",
          "name": "_payload",
          "type": "bytes"
        }
      ],
      "name": "nonblockingLzReceive",
      "outputs": [],
      "stateMutability": "nonpayable",
      "type": "function"
    },
    {
      "inputs": [
        {
          "internalType": "bool",
          "name": "pause",
          "type": "bool"
        }
      ],
      "name": "pauseSendTokens",
      "outputs": [],
      "stateMutability": "nonpayable",
      "type": "function"
    },
    {
      "inputs": [],
      "name": "paused",
      "outputs": [
        {
          "internalType": "bool",
          "name": "",
          "type": "bool"
        }
      ],
      "stateMutability": "view",
      "type": "function"
    },
    {
      "inputs": [
        {
          "internalType": "uint16",
          "name": "_srcChainId",
          "type": "uint16"
        },
        {
          "internalType": "bytes",
          "name": "_srcAddress",
          "type": "bytes"
        },
        {
          "internalType": "uint64",
          "name": "_nonce",
          "type": "uint64"
        },
        {
          "internalType": "bytes",
          "name": "_payload",
          "type": "bytes"
        }
      ],
      "name": "retryMessage",
      "outputs": [],
      "stateMutability": "payable",
      "type": "function"
    },
    {
      "inputs": [
        {
          "internalType": "uint16",
          "name": "_dstChainId",
          "type": "uint16"
        },
        {
          "internalType": "bytes",
          "name": "_toAddress",
          "type": "bytes"
        },
        {
          "internalType": "uint256",
          "name": "_amount",
          "type": "uint256"
        },
        {
          "internalType": "address payable",
          "name": "_refundAddress",
          "type": "address"
        },
        {
          "internalType": "address",
          "name": "_zroPaymentAddress",
          "type": "address"
        },
        {
          "internalType": "bytes",
          "name": "_adapterParams",
          "type": "bytes"
        }
      ],
      "name": "send",
      "outputs": [],
      "stateMutability": "payable",
      "type": "function"
    },
    {
      "inputs": [
        {
          "internalType": "uint16",
          "name": "_dstChainId",
          "type": "uint16"
        },
        {
          "internalType": "bytes",
          "name": "_toAddress",
          "type": "bytes"
        },
        {
          "internalType": "uint256",
          "name": "_amount",
          "type": "uint256"
        },
        {
          "internalType": "address payable",
          "name": "_refundAddress",
          "type": "address"
        },
        {
          "internalType": "address",
          "name": "_zroPaymentAddress",
          "type": "address"
        },
        {
          "internalType": "bytes",
          "name": "_adapterParams",
          "type": "bytes"
        }
      ],
      "name": "sendCredit",
      "outputs": [],
      "stateMutability": "payable",
      "type": "function"
    },
    {
      "inputs": [
        {
          "internalType": "uint16",
          "name": "_dstChainId",
          "type": "uint16"
        },
        {
          "internalType": "bytes",
          "name": "_toAddress",
          "type": "bytes"
        },
        {
          "internalType": "uint256",
          "name": "_amount",
          "type": "uint256"
        },
        {
          "internalType": "address payable",
          "name": "_refundAddress",
          "type": "address"
        },
        {
          "internalType": "address",
          "name": "_zroPaymentAddress",
          "type": "address"
        },
        {
          "internalType": "bytes",
          "name": "_adapterParams",
          "type": "bytes"
        },
        {
          "internalType": "uint256",
          "name": "deadline",
          "type": "uint256"
        },
        {
          "internalType": "uint8",
          "name": "v",
          "type": "uint8"
        },
        {
          "internalType": "bytes32",
          "name": "r",
          "type": "bytes32"
        },
        {
          "internalType": "bytes32",
          "name": "s",
          "type": "bytes32"
        }
      ],
      "name": "sendWithPermit",
      "outputs": [],
      "stateMutability": "payable",
      "type": "function"
    },
    {
      "inputs": [
        {
          "internalType": "uint16",
          "name": "_version",
          "type": "uint16"
        },
        {
          "internalType": "uint16",
          "name": "_chainId",
          "type": "uint16"
        },
        {
          "internalType": "uint256",
          "name": "_configType",
          "type": "uint256"
        },
        {
          "internalType": "bytes",
          "name": "_config",
          "type": "bytes"
        }
      ],
      "name": "setConfig",
      "outputs": [],
      "stateMutability": "nonpayable",
      "type": "function"
    },
    {
      "inputs": [
        {
          "internalType": "uint16",
          "name": "_version",
          "type": "uint16"
        }
      ],
      "name": "setReceiveVersion",
      "outputs": [],
      "stateMutability": "nonpayable",
      "type": "function"
    },
    {
      "inputs": [
        {
          "internalType": "uint16",
          "name": "_version",
          "type": "uint16"
        }
      ],
      "name": "setSendVersion",
      "outputs": [],
      "stateMutability": "nonpayable",
      "type": "function"
    },
    {
      "inputs": [
        {
          "internalType": "uint16",
          "name": "_srcChainId",
          "type": "uint16"
        },
        {
          "internalType": "bytes",
          "name": "_srcAddress",
          "type": "bytes"
        }
      ],
      "name": "setTrustedRemote",
      "outputs": [],
      "stateMutability": "nonpayable",
      "type": "function"
    },
    {
      "inputs": [],
      "name": "setupAllowance",
      "outputs": [],
      "stateMutability": "nonpayable",
      "type": "function"
    },
    {
      "inputs": [
        {
          "internalType": "bytes4",
          "name": "interfaceId",
          "type": "bytes4"
        }
      ],
      "name": "supportsInterface",
      "outputs": [
        {
          "internalType": "bool",
          "name": "",
          "type": "bool"
        }
      ],
      "stateMutability": "view",
      "type": "function"
    },
    {
      "inputs": [],
      "name": "symbol",
      "outputs": [
        {
          "internalType": "string",
          "name": "",
          "type": "string"
        }
      ],
      "stateMutability": "view",
      "type": "function"
    },
    {
      "inputs": [],
      "name": "totalSupply",
      "outputs": [
        {
          "internalType": "uint256",
          "name": "",
          "type": "uint256"
        }
      ],
      "stateMutability": "view",
      "type": "function"
    },
    {
      "inputs": [
        {
          "internalType": "address",
          "name": "recipient",
          "type": "address"
        },
        {
          "internalType": "uint256",
          "name": "amount",
          "type": "uint256"
        }
      ],
      "name": "transfer",
      "outputs": [
        {
          "internalType": "bool",
          "name": "",
          "type": "bool"
        }
      ],
      "stateMutability": "nonpayable",
      "type": "function"
    },
    {
      "inputs": [
        {
          "internalType": "address",
          "name": "sender",
          "type": "address"
        },
        {
          "internalType": "address",
          "name": "recipient",
          "type": "address"
        },
        {
          "internalType": "uint256",
          "name": "amount",
          "type": "uint256"
        }
      ],
      "name": "transferFrom",
      "outputs": [
        {
          "internalType": "bool",
          "name": "",
          "type": "bool"
        }
      ],
      "stateMutability": "nonpayable",
      "type": "function"
    },
    {
      "inputs": [
        {
          "internalType": "uint16",
          "name": "",
          "type": "uint16"
        }
      ],
      "name": "trustedRemoteLookup",
      "outputs": [
        {
          "internalType": "bytes",
          "name": "",
          "type": "bytes"
        }
      ],
      "stateMutability": "view",
      "type": "function"
    },
    {
      "inputs": [
        {
          "internalType": "uint256",
          "name": "amount",
          "type": "uint256"
        },
        {
          "internalType": "address",
          "name": "recipient",
          "type": "address"
        }
      ],
      "name": "withdraw",
      "outputs": [
        {
          "internalType": "uint256",
          "name": "amountMinted",
          "type": "uint256"
        }
      ],
      "stateMutability": "nonpayable",
      "type": "function"
    }
  ],
  "transactionHash": "0x625a88588b788d1f6b0485522932a940f410698404eea80b4d3d128b969d6c15",
  "args": [],
  "numDeployments": 1,
  "solcInputHash": "df0edfdf1a2dc083cb4f7726ee89e57b",
  "bytecode": "0x60806040523480156200001157600080fd5b50600054610100900460ff166200002f5760005460ff161562000039565b62000039620000de565b620000a15760405162461bcd60e51b815260206004820152602e60248201527f496e697469616c697a61626c653a20636f6e747261637420697320616c72656160448201526d191e481a5b9a5d1a585b1a5e995960921b606482015260840160405180910390fd5b600054610100900460ff16158015620000c4576000805461ffff19166101011790555b8015620000d7576000805461ff00191690555b5062000102565b6000620000f630620000fc60201b620020491760201c565b15905090565b3b151590565b61404780620001126000396000f3fe6080604052600436106102835760003560e01c806366ad5c8a11610153578063cbed8b9c116100cb578063e09e911e1161007f578063eed33cef11610064578063eed33cef146107a8578063f1878922146107bb578063f5ecbdbc146107db57600080fd5b8063e09e911e14610773578063eb8d72b71461078857600080fd5b8063d1deba1f116100b0578063d1deba1f146106ed578063db0ed6a014610700578063dd62ed3e1461072057600080fd5b8063cbed8b9c1461069f578063ceb76b55146106bf57600080fd5b806395d89b4111610122578063a457c2d711610107578063a457c2d71461062c578063a9059cbb1461064c578063b353aaa71461066c57600080fd5b806395d89b41146105f7578063a0712d681461060c57600080fd5b806366ad5c8a1461056157806370a08231146105815780637533d788146105c457806385edd8ae146105e457600080fd5b80631b0c24d5116102015780633d8b38f6116101b557806342d65a8d1161019a57806342d65a8d146104da5780635b8c41e6146104fa5780635c975abb1461054957600080fd5b80633d8b38f61461049a57806342966c68146104ba57600080fd5b80632a205e3d116101e65780632a205e3d14610429578063313ce5671461045e578063395093511461047a57600080fd5b80631b0c24d5146103b757806323b872dd1461040957600080fd5b806307e0db171161025857806310ddb1371161023d57806310ddb1371461036f57806310f958251461038f57806318160ddd146103a257600080fd5b806307e0db171461032f578063095ea7b31461034f57600080fd5b80621d356714610288578062f714ce146102aa57806301ffc9a7146102dd57806306fdde031461030d575b600080fd5b34801561029457600080fd5b506102a86102a33660046134e6565b6107fb565b005b3480156102b657600080fd5b506102ca6102c536600461359c565b610959565b6040519081526020015b60405180910390f35b3480156102e957600080fd5b506102fd6102f83660046135cc565b610a35565b60405190151581526020016102d4565b34801561031957600080fd5b50610322610abc565b6040516102d49190613684565b34801561033b57600080fd5b506102a861034a366004613697565b610b4e565b34801561035b57600080fd5b506102fd61036a3660046136b2565b610c9f565b34801561037b57600080fd5b506102a861038a366004613697565b610cb5565b6102a861039d3660046136de565b610ddc565b3480156103ae57600080fd5b5060ca546102ca565b3480156103c357600080fd5b506003546103e49073ffffffffffffffffffffffffffffffffffffffff1681565b60405173ffffffffffffffffffffffffffffffffffffffff90911681526020016102d4565b34801561041557600080fd5b506102fd610424366004613784565b610dff565b34801561043557600080fd5b506104496104443660046137d3565b610eec565b604080519283526020830191909152016102d4565b34801561046a57600080fd5b50604051601281526020016102d4565b34801561048657600080fd5b506102fd6104953660046136b2565b610fe4565b3480156104a657600080fd5b506102fd6104b53660046138af565b61102d565b3480156104c657600080fd5b506102a86104d5366004613902565b6110f9565b3480156104e657600080fd5b506102a86104f53660046138af565b6111e8565b34801561050657600080fd5b506102ca61051536600461391b565b6001602090815260009384526040808520845180860184018051928152908401958401959095209452929052825290205481565b34801561055557600080fd5b5060fa5460ff166102fd565b34801561056d57600080fd5b506102a861057c3660046134e6565b611346565b34801561058d57600080fd5b506102ca61059c36600461397d565b73ffffffffffffffffffffffffffffffffffffffff16600090815260c8602052604090205490565b3480156105d057600080fd5b506103226105df366004613697565b611391565b6102a86105f23660046139ab565b61142b565b34801561060357600080fd5b506103226114f4565b34801561061857600080fd5b506102a8610627366004613902565b611503565b34801561063857600080fd5b506102fd6106473660046136b2565b6115ef565b34801561065857600080fd5b506102fd6106673660046136b2565b6116c7565b34801561067857600080fd5b506000546103e49062010000900473ffffffffffffffffffffffffffffffffffffffff1681565b3480156106ab57600080fd5b506102a86106ba366004613a7a565b6116d4565b3480156106cb57600080fd5b5061012c546103e49073ffffffffffffffffffffffffffffffffffffffff1681565b6102a86106fb3660046134e6565b611838565b34801561070c57600080fd5b506102a861071b366004613ae9565b61191e565b34801561072c57600080fd5b506102ca61073b366004613b87565b73ffffffffffffffffffffffffffffffffffffffff918216600090815260c96020908152604080832093909416825291909152205490565b34801561077f57600080fd5b506102a8611b0b565b34801561079457600080fd5b506102a86107a33660046138af565b611c1b565b6102a86107b63660046136de565b611d42565b3480156107c757600080fd5b506102a86107d6366004613bb5565b611e8f565b3480156107e757600080fd5b506103226107f6366004613bd2565b611f6c565b60005462010000900473ffffffffffffffffffffffffffffffffffffffff163314610852576040517ff1cbb56700000000000000000000000000000000000000000000000000000000815260040160405180910390fd5b61ffff84166000908152600260205260408120805461087090613c1f565b80601f016020809104026020016040519081016040528092919081815260200182805461089c90613c1f565b80156108e95780601f106108be576101008083540402835291602001916108e9565b820191906000526020600020905b8154815290600101906020018083116108cc57829003601f168201915b505050505090508051845114158061090f57508080519060200120848051906020012014155b15610946576040517f8154374b00000000000000000000000000000000000000000000000000000000815260040160405180910390fd5b6109528585858561204f565b5050505050565b600061096633308561215a565b61012c546040517f151dd7550000000000000000000000000000000000000000000000000000000081523060048201526024810185905273ffffffffffffffffffffffffffffffffffffffff84811660448301529091169063151dd755906064016020604051808303816000875af11580156109e6573d6000803e3d6000fd5b505050506040513d601f19601f82011682018060405250810190610a0a9190613c73565b30600090815260c860205260409020549091508015610a2e57610a2e30338361215a565b5092915050565b60007fffffffff0000000000000000000000000000000000000000000000000000000082161580610aa757507fffffffff0000000000000000000000000000000000000000000000000000000082167f36372b0700000000000000000000000000000000000000000000000000000000145b80610ab65750610ab68261240d565b92915050565b606060cb8054610acb90613c1f565b80601f0160208091040260200160405190810160405280929190818152602001828054610af790613c1f565b8015610b445780601f10610b1957610100808354040283529160200191610b44565b820191906000526020600020905b815481529060010190602001808311610b2757829003601f168201915b5050505050905090565b6003546040517f521d4de900000000000000000000000000000000000000000000000000000000815233600482015273ffffffffffffffffffffffffffffffffffffffff9091169063521d4de990602401602060405180830381865afa158015610bbc573d6000803e3d6000fd5b505050506040513d601f19601f82011682018060405250810190610be09190613c8c565b610c16576040517f99e120bc00000000000000000000000000000000000000000000000000000000815260040160405180910390fd5b6000546040517f07e0db1700000000000000000000000000000000000000000000000000000000815261ffff831660048201526201000090910473ffffffffffffffffffffffffffffffffffffffff16906307e0db17906024015b600060405180830381600087803b158015610c8b57600080fd5b505af1158015610952573d6000803e3d6000fd5b6000610cac3384846124a4565b50600192915050565b6003546040517f521d4de900000000000000000000000000000000000000000000000000000000815233600482015273ffffffffffffffffffffffffffffffffffffffff9091169063521d4de990602401602060405180830381865afa158015610d23573d6000803e3d6000fd5b505050506040513d601f19601f82011682018060405250810190610d479190613c8c565b610d7d576040517f99e120bc00000000000000000000000000000000000000000000000000000000815260040160405180910390fd5b6000546040517f10ddb13700000000000000000000000000000000000000000000000000000000815261ffff831660048201526201000090910473ffffffffffffffffffffffffffffffffffffffff16906310ddb13790602401610c71565b610de7868686612658565b9350610df78686868686866126d7565b505050505050565b6000610e0c84848461215a565b73ffffffffffffffffffffffffffffffffffffffff8416600090815260c96020908152604080832033845290915290205482811015610ed2576040517f08c379a000000000000000000000000000000000000000000000000000000000815260206004820152602860248201527f45524332303a207472616e7366657220616d6f756e742065786365656473206160448201527f6c6c6f77616e636500000000000000000000000000000000000000000000000060648201526084015b60405180910390fd5b610edf85338584036124a4565b60019150505b9392505050565b60008060008686604051602001610f04929190613ca9565b604080518083037fffffffffffffffffffffffffffffffffffffffffffffffffffffffffffffffe0018152908290526000547f40a7bb1000000000000000000000000000000000000000000000000000000000835290925062010000900473ffffffffffffffffffffffffffffffffffffffff16906340a7bb1090610f95908b90309086908b908b90600401613ccb565b6040805180830381865afa158015610fb1573d6000803e3d6000fd5b505050506040513d601f19601f82011682018060405250810190610fd59190613d2a565b92509250509550959350505050565b33600081815260c96020908152604080832073ffffffffffffffffffffffffffffffffffffffff871684529091528120549091610cac918590611028908690613d7d565b6124a4565b61ffff83166000908152600260205260408120805482919061104e90613c1f565b80601f016020809104026020016040519081016040528092919081815260200182805461107a90613c1f565b80156110c75780601f1061109c576101008083540402835291602001916110c7565b820191906000526020600020905b8154815290600101906020018083116110aa57829003601f168201915b5050505050905083836040516110de929190613d95565b60405180910390208180519060200120149150509392505050565b6003546040517f521d4de900000000000000000000000000000000000000000000000000000000815233600482015273ffffffffffffffffffffffffffffffffffffffff9091169063521d4de990602401602060405180830381865afa158015611167573d6000803e3d6000fd5b505050506040513d601f19601f8201168201806040525081019061118b9190613c8c565b6111c1576040517f99e120bc00000000000000000000000000000000000000000000000000000000815260040160405180910390fd5b61012c546111e59073ffffffffffffffffffffffffffffffffffffffff16826126ec565b50565b6003546040517f521d4de900000000000000000000000000000000000000000000000000000000815233600482015273ffffffffffffffffffffffffffffffffffffffff9091169063521d4de990602401602060405180830381865afa158015611256573d6000803e3d6000fd5b505050506040513d601f19601f8201168201806040525081019061127a9190613c8c565b6112b0576040517f99e120bc00000000000000000000000000000000000000000000000000000000815260040160405180910390fd5b6000546040517f42d65a8d0000000000000000000000000000000000000000000000000000000081526201000090910473ffffffffffffffffffffffffffffffffffffffff16906342d65a8d9061130f90869086908690600401613dee565b600060405180830381600087803b15801561132957600080fd5b505af115801561133d573d6000803e3d6000fd5b50505050505050565b33301461137f576040517f48f5c3ed00000000000000000000000000000000000000000000000000000000815260040160405180910390fd5b61138b848484846128d6565b50505050565b600260205260009081526040902080546113aa90613c1f565b80601f01602080910402602001604051908101604052809291908181526020018280546113d690613c1f565b80156114235780601f106113f857610100808354040283529160200191611423565b820191906000526020600020905b81548152906001019060200180831161140657829003601f168201915b505050505081565b61012c546040517fd505accf000000000000000000000000000000000000000000000000000000008152336004820152306024820152604481018a90526064810186905260ff8516608482015260a4810184905260c4810183905273ffffffffffffffffffffffffffffffffffffffff9091169063d505accf9060e401600060405180830381600087803b1580156114c257600080fd5b505af11580156114d6573d6000803e3d6000fd5b505050506114e88a8a8a8a8a8a611d42565b50505050505050505050565b606060cc8054610acb90613c1f565b6003546040517f521d4de900000000000000000000000000000000000000000000000000000000815233600482015273ffffffffffffffffffffffffffffffffffffffff9091169063521d4de990602401602060405180830381865afa158015611571573d6000803e3d6000fd5b505050506040513d601f19601f820116820180604052508101906115959190613c8c565b6115cb576040517f99e120bc00000000000000000000000000000000000000000000000000000000815260040160405180910390fd5b61012c546111e59073ffffffffffffffffffffffffffffffffffffffff1682612981565b33600090815260c96020908152604080832073ffffffffffffffffffffffffffffffffffffffff86168452909152812054828110156116b0576040517f08c379a000000000000000000000000000000000000000000000000000000000815260206004820152602560248201527f45524332303a2064656372656173656420616c6c6f77616e63652062656c6f7760448201527f207a65726f0000000000000000000000000000000000000000000000000000006064820152608401610ec9565b6116bd33858584036124a4565b5060019392505050565b6000610cac33848461215a565b6003546040517f521d4de900000000000000000000000000000000000000000000000000000000815233600482015273ffffffffffffffffffffffffffffffffffffffff9091169063521d4de990602401602060405180830381865afa158015611742573d6000803e3d6000fd5b505050506040513d601f19601f820116820180604052508101906117669190613c8c565b61179c576040517f99e120bc00000000000000000000000000000000000000000000000000000000815260040160405180910390fd5b6000546040517fcbed8b9c0000000000000000000000000000000000000000000000000000000081526201000090910473ffffffffffffffffffffffffffffffffffffffff169063cbed8b9c906117ff9088908890889088908890600401613e0c565b600060405180830381600087803b15801561181957600080fd5b505af115801561182d573d6000803e3d6000fd5b505050505050505050565b61ffff84166000908152600160205260408082209051611859908690613e45565b908152604080516020928190038301902067ffffffffffffffff86166000908152925290205490508015806118945750815160208301208114155b156118cb576040517f7c6953f900000000000000000000000000000000000000000000000000000000815260040160405180910390fd5b61ffff851660009081526001602052604080822090516118ec908790613e45565b908152604080516020928190038301902067ffffffffffffffff871660009081529252902055610952858585856128d6565b600054610100900460ff166119395760005460ff161561193d565b303b155b6119c9576040517f08c379a000000000000000000000000000000000000000000000000000000000815260206004820152602e60248201527f496e697469616c697a61626c653a20636f6e747261637420697320616c72656160448201527f647920696e697469616c697a65640000000000000000000000000000000000006064820152608401610ec9565b600054610100900460ff16158015611a0857600080547fffffffffffffffffffffffffffffffffffffffffffffffffffffffffffff0000166101011790555b73ffffffffffffffffffffffffffffffffffffffff8216611a55576040517fd92e233d00000000000000000000000000000000000000000000000000000000815260040160405180910390fd5b611a5f8686612aa1565b611a698484612b5f565b61012c80547fffffffffffffffffffffffff00000000000000000000000000000000000000001673ffffffffffffffffffffffffffffffffffffffff8416179055611ad530837fffffffffffffffffffffffffffffffffffffffffffffffffffffffffffffffff6124a4565b8015610df757600080547fffffffffffffffffffffffffffffffffffffffffffffffffffffffffffff00ff169055505050505050565b6003546040517f521d4de900000000000000000000000000000000000000000000000000000000815233600482015273ffffffffffffffffffffffffffffffffffffffff9091169063521d4de990602401602060405180830381865afa158015611b79573d6000803e3d6000fd5b505050506040513d601f19601f82011682018060405250810190611b9d9190613c8c565b611bd3576040517f99e120bc00000000000000000000000000000000000000000000000000000000815260040160405180910390fd5b61012c54611c1990309073ffffffffffffffffffffffffffffffffffffffff167fffffffffffffffffffffffffffffffffffffffffffffffffffffffffffffffff6124a4565b565b6003546040517f521d4de900000000000000000000000000000000000000000000000000000000815233600482015273ffffffffffffffffffffffffffffffffffffffff9091169063521d4de990602401602060405180830381865afa158015611c89573d6000803e3d6000fd5b505050506040513d601f19601f82011682018060405250810190611cad9190613c8c565b611ce3576040517f99e120bc00000000000000000000000000000000000000000000000000000000815260040160405180910390fd5b61ffff83166000908152600260205260409020611d01908383613274565b507ffa41487ad5d6728f0b19276fa1eddc16558578f5109fc39d2dc33c3230470dab838383604051611d3593929190613dee565b60405180910390a1505050565b611d4d868686612c42565b935060008585604051602001611d64929190613ca9565b6040516020818303038152906040529050611d828782868686612e09565b600080546040517f7a14574800000000000000000000000000000000000000000000000000000000815261ffff8a1660048201523060248201526201000090910473ffffffffffffffffffffffffffffffffffffffff1690637a14574890604401602060405180830381865afa158015611e00573d6000803e3d6000fd5b505050506040513d601f19601f82011682018060405250810190611e249190613e61565b905086604051611e349190613e45565b6040805191829003822088835267ffffffffffffffff841660208401529161ffff8b169133917f024797cc77ce15dc717112d54fb1df125fdfd8c81344fb046c5e074427ce1543910160405180910390a45050505050505050565b6003546040517f521d4de900000000000000000000000000000000000000000000000000000000815233600482015273ffffffffffffffffffffffffffffffffffffffff9091169063521d4de990602401602060405180830381865afa158015611efd573d6000803e3d6000fd5b505050506040513d601f19601f82011682018060405250810190611f219190613c8c565b611f57576040517f99e120bc00000000000000000000000000000000000000000000000000000000815260040160405180910390fd5b80611f64576111e5612f84565b6111e5613065565b6000546040517ff5ecbdbc00000000000000000000000000000000000000000000000000000000815261ffff8087166004830152851660248201523060448201526064810183905260609162010000900473ffffffffffffffffffffffffffffffffffffffff169063f5ecbdbc90608401600060405180830381865afa158015611ffa573d6000803e3d6000fd5b505050506040513d6000823e601f3d9081017fffffffffffffffffffffffffffffffffffffffffffffffffffffffffffffffe01682016040526120409190810190613ecb565b95945050505050565b3b151590565b6040517f66ad5c8a00000000000000000000000000000000000000000000000000000000815230906366ad5c8a90612091908790879087908790600401613f00565b600060405180830381600087803b1580156120ab57600080fd5b505af19250505080156120bc575060015b61138b578080519060200120600160008661ffff1661ffff168152602001908152602001600020846040516120f19190613e45565b90815260408051918290036020908101832067ffffffffffffffff87166000908152915220919091557fe6f254030bcb01ffd20558175c13fcaed6d1520be7becee4c961b65f79243b0d9061214d908690869086908690613f00565b60405180910390a161138b565b73ffffffffffffffffffffffffffffffffffffffff83166121fd576040517f08c379a000000000000000000000000000000000000000000000000000000000815260206004820152602560248201527f45524332303a207472616e736665722066726f6d20746865207a65726f20616460448201527f64726573730000000000000000000000000000000000000000000000000000006064820152608401610ec9565b73ffffffffffffffffffffffffffffffffffffffff82166122a0576040517f08c379a000000000000000000000000000000000000000000000000000000000815260206004820152602360248201527f45524332303a207472616e7366657220746f20746865207a65726f206164647260448201527f65737300000000000000000000000000000000000000000000000000000000006064820152608401610ec9565b73ffffffffffffffffffffffffffffffffffffffff8316600090815260c8602052604090205481811015612356576040517f08c379a000000000000000000000000000000000000000000000000000000000815260206004820152602660248201527f45524332303a207472616e7366657220616d6f756e742065786365656473206260448201527f616c616e636500000000000000000000000000000000000000000000000000006064820152608401610ec9565b73ffffffffffffffffffffffffffffffffffffffff808516600090815260c8602052604080822085850390559185168152908120805484929061239a908490613d7d565b925050819055508273ffffffffffffffffffffffffffffffffffffffff168473ffffffffffffffffffffffffffffffffffffffff167fddf252ad1be2c89b69c2b068fc378daa952ba7f163c4a11628f55a4df523b3ef8460405161240091815260200190565b60405180910390a361138b565b60007fffffffff0000000000000000000000000000000000000000000000000000000082167f5110f697000000000000000000000000000000000000000000000000000000001480610ab657507f01ffc9a7000000000000000000000000000000000000000000000000000000007fffffffff00000000000000000000000000000000000000000000000000000000831614610ab6565b73ffffffffffffffffffffffffffffffffffffffff8316612546576040517f08c379a0000000000000000000000000000000000000000000000000000000008152602060048201526024808201527f45524332303a20617070726f76652066726f6d20746865207a65726f2061646460448201527f72657373000000000000000000000000000000000000000000000000000000006064820152608401610ec9565b73ffffffffffffffffffffffffffffffffffffffff82166125e9576040517f08c379a000000000000000000000000000000000000000000000000000000000815260206004820152602260248201527f45524332303a20617070726f766520746f20746865207a65726f20616464726560448201527f73730000000000000000000000000000000000000000000000000000000000006064820152608401610ec9565b73ffffffffffffffffffffffffffffffffffffffff838116600081815260c9602090815260408083209487168084529482529182902085905590518481527f8c5be1e5ebec7d5bd14f71427d1e84f3dd0314c0f7b2291e5b200ac8c7c3b92591015b60405180910390a3505050565b600061266660fa5460ff1690565b156126cd576040517f08c379a000000000000000000000000000000000000000000000000000000000815260206004820152601060248201527f5061757361626c653a20706175736564000000000000000000000000000000006044820152606401610ec9565b610a2e33836126ec565b60008585604051602001611d64929190613ca9565b73ffffffffffffffffffffffffffffffffffffffff821661278f576040517f08c379a000000000000000000000000000000000000000000000000000000000815260206004820152602160248201527f45524332303a206275726e2066726f6d20746865207a65726f2061646472657360448201527f73000000000000000000000000000000000000000000000000000000000000006064820152608401610ec9565b73ffffffffffffffffffffffffffffffffffffffff8216600090815260c8602052604090205481811015612845576040517f08c379a000000000000000000000000000000000000000000000000000000000815260206004820152602260248201527f45524332303a206275726e20616d6f756e7420657863656564732062616c616e60448201527f63650000000000000000000000000000000000000000000000000000000000006064820152608401610ec9565b73ffffffffffffffffffffffffffffffffffffffff8316600090815260c860205260408120838303905560ca8054849290612881908490613f3f565b909155505060405182815260009073ffffffffffffffffffffffffffffffffffffffff8516907fddf252ad1be2c89b69c2b068fc378daa952ba7f163c4a11628f55a4df523b3ef9060200161264b565b505050565b600080828060200190518101906128ed9190613f56565b60148201519193509150612902878284613125565b91508073ffffffffffffffffffffffffffffffffffffffff16866040516129299190613e45565b6040805191829003822085835267ffffffffffffffff891660208401529161ffff8b16917f64e10c37f404d128982dce114f5d233c14c5c7f6d8db93099e3d99dacb9e27ba910160405180910390a450505050505050565b73ffffffffffffffffffffffffffffffffffffffff82166129fe576040517f08c379a000000000000000000000000000000000000000000000000000000000815260206004820152601f60248201527f45524332303a206d696e7420746f20746865207a65726f2061646472657373006044820152606401610ec9565b8060ca6000828254612a109190613d7d565b909155505073ffffffffffffffffffffffffffffffffffffffff8216600090815260c8602052604081208054839290612a4a908490613d7d565b909155505060405181815273ffffffffffffffffffffffffffffffffffffffff8316906000907fddf252ad1be2c89b69c2b068fc378daa952ba7f163c4a11628f55a4df523b3ef9060200160405180910390a35050565b600054610100900460ff16612b38576040517f08c379a000000000000000000000000000000000000000000000000000000000815260206004820152602b60248201527f496e697469616c697a61626c653a20636f6e7472616374206973206e6f74206960448201527f6e697469616c697a696e670000000000000000000000000000000000000000006064820152608401610ec9565b8151612b4b9060cb906020850190613316565b5080516128d19060cc906020840190613316565b73ffffffffffffffffffffffffffffffffffffffff82161580612b96575073ffffffffffffffffffffffffffffffffffffffff8116155b15612bcd576040517fd92e233d00000000000000000000000000000000000000000000000000000000815260040160405180910390fd5b600080547fffffffffffffffffffff0000000000000000000000000000000000000000ffff166201000073ffffffffffffffffffffffffffffffffffffffff94851602179055600380547fffffffffffffffffffffffff00000000000000000000000000000000000000001691909216179055565b6000612c5060fa5460ff1690565b15612cb7576040517f08c379a000000000000000000000000000000000000000000000000000000000815260206004820152601060248201527f5061757361626c653a20706175736564000000000000000000000000000000006044820152606401610ec9565b61012c546040517f23b872dd0000000000000000000000000000000000000000000000000000000081523360048201523060248201526044810184905273ffffffffffffffffffffffffffffffffffffffff909116906323b872dd906064016020604051808303816000875af1158015612d35573d6000803e3d6000fd5b505050506040513d601f19601f82011682018060405250810190612d599190613c8c565b5061012c546040517fd44ad63f000000000000000000000000000000000000000000000000000000008152306004820181905260248201859052604482015273ffffffffffffffffffffffffffffffffffffffff9091169063d44ad63f906064016020604051808303816000875af1158015612dd9573d6000803e3d6000fd5b505050506040513d601f19601f82011682018060405250810190612dfd9190613c73565b9050610ee530826126ec565b61ffff851660009081526002602052604081208054612e2790613c1f565b80601f0160208091040260200160405190810160405280929190818152602001828054612e5390613c1f565b8015612ea05780601f10612e7557610100808354040283529160200191612ea0565b820191906000526020600020905b815481529060010190602001808311612e8357829003601f168201915b50505050509050805160001415612ee3576040517f8154374b00000000000000000000000000000000000000000000000000000000815260040160405180910390fd5b6000546040517fc58031000000000000000000000000000000000000000000000000000000000081526201000090910473ffffffffffffffffffffffffffffffffffffffff169063c5803100903490612f4a908a9086908b908b908b908b90600401613f9d565b6000604051808303818588803b158015612f6357600080fd5b505af1158015612f77573d6000803e3d6000fd5b5050505050505050505050565b60fa5460ff16612ff0576040517f08c379a000000000000000000000000000000000000000000000000000000000815260206004820152601460248201527f5061757361626c653a206e6f74207061757365640000000000000000000000006044820152606401610ec9565b60fa80547fffffffffffffffffffffffffffffffffffffffffffffffffffffffffffffff001690557f5db9ee0a495bf2e6ff9c91a7834c1ba4fdd244a5e8aa4e537bd38aeae4b073aa335b60405173ffffffffffffffffffffffffffffffffffffffff909116815260200160405180910390a1565b60fa5460ff16156130d2576040517f08c379a000000000000000000000000000000000000000000000000000000000815260206004820152601060248201527f5061757361626c653a20706175736564000000000000000000000000000000006044820152606401610ec9565b60fa80547fffffffffffffffffffffffffffffffffffffffffffffffffffffffffffffff001660011790557f62e78cea01bee320cd4e420270b5ea74000d11b0c9f74754ebdbfc544b05a25861303b3390565b600061313360fa5460ff1690565b1561319a576040517f08c379a000000000000000000000000000000000000000000000000000000000815260206004820152601060248201527f5061757361626c653a20706175736564000000000000000000000000000000006044820152606401610ec9565b6131a43083612981565b61012c546040517f151dd7550000000000000000000000000000000000000000000000000000000081523060048201526024810184905273ffffffffffffffffffffffffffffffffffffffff85811660448301529091169063151dd755906064016020604051808303816000875af1158015613224573d6000803e3d6000fd5b505050506040513d601f19601f820116820180604052508101906132489190613c73565b30600090815260c86020526040902054909150801561326c5761326c30858361215a565b509392505050565b82805461328090613c1f565b90600052602060002090601f0160209004810192826132a25760008555613306565b82601f106132d9578280017fffffffffffffffffffffffffffffffffffffffffffffffffffffffffffffff00823516178555613306565b82800160010185558215613306579182015b828111156133065782358255916020019190600101906132eb565b5061331292915061338a565b5090565b82805461332290613c1f565b90600052602060002090601f0160209004810192826133445760008555613306565b82601f1061335d57805160ff1916838001178555613306565b82800160010185558215613306579182015b8281111561330657825182559160200191906001019061336f565b5b80821115613312576000815560010161338b565b803561ffff811681146133b157600080fd5b919050565b7f4e487b7100000000000000000000000000000000000000000000000000000000600052604160045260246000fd5b604051601f82017fffffffffffffffffffffffffffffffffffffffffffffffffffffffffffffffe016810167ffffffffffffffff8111828210171561342c5761342c6133b6565b604052919050565b600067ffffffffffffffff82111561344e5761344e6133b6565b50601f017fffffffffffffffffffffffffffffffffffffffffffffffffffffffffffffffe01660200190565b600082601f83011261348b57600080fd5b813561349e61349982613434565b6133e5565b8181528460208386010111156134b357600080fd5b816020850160208301376000918101602001919091529392505050565b67ffffffffffffffff811681146111e557600080fd5b600080600080608085870312156134fc57600080fd5b6135058561339f565b9350602085013567ffffffffffffffff8082111561352257600080fd5b61352e8883890161347a565b945060408701359150613540826134d0565b9092506060860135908082111561355657600080fd5b506135638782880161347a565b91505092959194509250565b73ffffffffffffffffffffffffffffffffffffffff811681146111e557600080fd5b80356133b18161356f565b600080604083850312156135af57600080fd5b8235915060208301356135c18161356f565b809150509250929050565b6000602082840312156135de57600080fd5b81357fffffffff0000000000000000000000000000000000000000000000000000000081168114610ee557600080fd5b60005b83811015613629578181015183820152602001613611565b8381111561138b5750506000910152565b6000815180845261365281602086016020860161360e565b601f017fffffffffffffffffffffffffffffffffffffffffffffffffffffffffffffffe0169290920160200192915050565b602081526000610ee5602083018461363a565b6000602082840312156136a957600080fd5b610ee58261339f565b600080604083850312156136c557600080fd5b82356136d08161356f565b946020939093013593505050565b60008060008060008060c087890312156136f757600080fd5b6137008761339f565b9550602087013567ffffffffffffffff8082111561371d57600080fd5b6137298a838b0161347a565b965060408901359550606089013591506137428261356f565b9093506080880135906137548261356f565b90925060a0880135908082111561376a57600080fd5b5061377789828a0161347a565b9150509295509295509295565b60008060006060848603121561379957600080fd5b83356137a48161356f565b925060208401356137b48161356f565b929592945050506040919091013590565b80151581146111e557600080fd5b600080600080600060a086880312156137eb57600080fd5b6137f48661339f565b9450602086013567ffffffffffffffff8082111561381157600080fd5b61381d89838a0161347a565b95506040880135945060608801359150613836826137c5565b9092506080870135908082111561384c57600080fd5b506138598882890161347a565b9150509295509295909350565b60008083601f84011261387857600080fd5b50813567ffffffffffffffff81111561389057600080fd5b6020830191508360208285010111156138a857600080fd5b9250929050565b6000806000604084860312156138c457600080fd5b6138cd8461339f565b9250602084013567ffffffffffffffff8111156138e957600080fd5b6138f586828701613866565b9497909650939450505050565b60006020828403121561391457600080fd5b5035919050565b60008060006060848603121561393057600080fd5b6139398461339f565b9250602084013567ffffffffffffffff81111561395557600080fd5b6139618682870161347a565b9250506040840135613972816134d0565b809150509250925092565b60006020828403121561398f57600080fd5b8135610ee58161356f565b803560ff811681146133b157600080fd5b6000806000806000806000806000806101408b8d0312156139cb57600080fd5b6139d48b61339f565b995060208b013567ffffffffffffffff808211156139f157600080fd5b6139fd8e838f0161347a565b9a5060408d01359950613a1260608e01613591565b9850613a2060808e01613591565b975060a08d0135915080821115613a3657600080fd5b50613a438d828e0161347a565b95505060c08b01359350613a5960e08c0161399a565b92506101008b013591506101208b013590509295989b9194979a5092959850565b600080600080600060808688031215613a9257600080fd5b613a9b8661339f565b9450613aa96020870161339f565b935060408601359250606086013567ffffffffffffffff811115613acc57600080fd5b613ad888828901613866565b969995985093965092949392505050565b600080600080600060a08688031215613b0157600080fd5b853567ffffffffffffffff80821115613b1957600080fd5b613b2589838a0161347a565b96506020880135915080821115613b3b57600080fd5b50613b488882890161347a565b9450506040860135613b598161356f565b92506060860135613b698161356f565b91506080860135613b798161356f565b809150509295509295909350565b60008060408385031215613b9a57600080fd5b8235613ba58161356f565b915060208301356135c18161356f565b600060208284031215613bc757600080fd5b8135610ee5816137c5565b60008060008060808587031215613be857600080fd5b613bf18561339f565b9350613bff6020860161339f565b92506040850135613c0f8161356f565b9396929550929360600135925050565b600181811c90821680613c3357607f821691505b60208210811415613c6d577f4e487b7100000000000000000000000000000000000000000000000000000000600052602260045260246000fd5b50919050565b600060208284031215613c8557600080fd5b5051919050565b600060208284031215613c9e57600080fd5b8151610ee5816137c5565b604081526000613cbc604083018561363a565b90508260208301529392505050565b61ffff8616815273ffffffffffffffffffffffffffffffffffffffff8516602082015260a060408201526000613d0460a083018661363a565b84151560608401528281036080840152613d1e818561363a565b98975050505050505050565b60008060408385031215613d3d57600080fd5b505080516020909101519092909150565b7f4e487b7100000000000000000000000000000000000000000000000000000000600052601160045260246000fd5b60008219821115613d9057613d90613d4e565b500190565b8183823760009101908152919050565b8183528181602085013750600060208284010152600060207fffffffffffffffffffffffffffffffffffffffffffffffffffffffffffffffe0601f840116840101905092915050565b61ffff84168152604060208201526000612040604083018486613da5565b600061ffff808816835280871660208401525084604083015260806060830152613e3a608083018486613da5565b979650505050505050565b60008251613e5781846020870161360e565b9190910192915050565b600060208284031215613e7357600080fd5b8151610ee5816134d0565b600082601f830112613e8f57600080fd5b8151613e9d61349982613434565b818152846020838601011115613eb257600080fd5b613ec382602083016020870161360e565b949350505050565b600060208284031215613edd57600080fd5b815167ffffffffffffffff811115613ef457600080fd5b613ec384828501613e7e565b61ffff85168152608060208201526000613f1d608083018661363a565b67ffffffffffffffff851660408401528281036060840152613e3a818561363a565b600082821015613f5157613f51613d4e565b500390565b60008060408385031215613f6957600080fd5b825167ffffffffffffffff811115613f8057600080fd5b613f8c85828601613e7e565b925050602083015190509250929050565b61ffff8716815260c060208201526000613fba60c083018861363a565b8281036040840152613fcc818861363a565b73ffffffffffffffffffffffffffffffffffffffff87811660608601528616608085015283810360a08501529050614004818561363a565b999850505050505050505056fea2646970667358221220ce397a13a29b5c5bf01de5fae2d37e01088e10a9bc45d58ea59a0a30545e6ece64736f6c634300080c0033",
  "devdoc": {
    "author": "Angle Core Team, forked from https://github.com/LayerZero-Labs/solidity-examples/blob/main/contracts/token/oft/OFT.sol",
    "kind": "dev",
    "methods": {
      "allowance(address,address)": {
        "details": "See {IERC20-allowance}."
      },
      "approve(address,uint256)": {
        "details": "See {IERC20-approve}. Requirements: - `spender` cannot be the zero address."
      },
      "balanceOf(address)": {
        "details": "See {IERC20-balanceOf}."
      },
      "burn(uint256)": {
        "details": "Used to decrease the bridging capacity"
      },
      "constructor": {
        "custom:oz-upgrades-unsafe-allow": "constructor"
      },
      "decimals()": {
        "details": "Returns the number of decimals used to get its user representation. For example, if `decimals` equals `2`, a balance of `505` tokens should be displayed to a user as `5.05` (`505 / 10 ** 2`). Tokens usually opt for a value of 18, imitating the relationship between Ether and Wei. This is the value {ERC20} uses, unless this function is overridden; NOTE: This information is only used for _display_ purposes: it in no way affects any of the arithmetic of the contract, including {IERC20-balanceOf} and {IERC20-transfer}."
      },
      "decreaseAllowance(address,uint256)": {
        "details": "Atomically decreases the allowance granted to `spender` by the caller. This is an alternative to {approve} that can be used as a mitigation for problems described in {IERC20-approve}. Emits an {Approval} event indicating the updated allowance. Requirements: - `spender` cannot be the zero address. - `spender` must have allowance for the caller of at least `subtractedValue`."
      },
      "estimateSendFee(uint16,bytes,uint256,bool,bytes)": {
        "params": {
          "_adapterParams": "flexible bytes array to indicate messaging adapter services in L0",
          "_amount": "amount of the tokens to transfer",
          "_dstChainId": "L0 defined chain id to send tokens too",
          "_toAddress": "dynamic bytes array which contains the address to whom you are sending tokens to on the dstChain",
          "_useZro": "indicates to use zro to pay L0 fees"
        }
      },
      "increaseAllowance(address,uint256)": {
        "details": "Atomically increases the allowance granted to `spender` by the caller. This is an alternative to {approve} that can be used as a mitigation for problems described in {IERC20-approve}. Emits an {Approval} event indicating the updated allowance. Requirements: - `spender` cannot be the zero address."
      },
      "initialize(string,string,address,address,address)": {
        "params": {
          "_canonicalToken": "Address of the bridgeable token",
          "_coreBorrow": "Address of the `CoreBorrow` contract used for access control",
          "_lzEndpoint": "Layer zero endpoint to pass messages",
          "_name": "Name of the token corresponding to this contract",
          "_symbol": "Symbol of the token corresponding to this contract"
        }
      },
      "lzReceive(uint16,bytes,uint64,bytes)": {
        "params": {
          "_nonce": "Nounce of the message",
          "_payload": "Data: recipient address and amount",
          "_srcAddress": "Sender of the source chain",
          "_srcChainId": "ChainId of the source chain - LayerZero standard"
        }
      },
      "mint(uint256)": {
        "details": "Used to increase the bridging capacity"
      },
      "name()": {
        "details": "Returns the name of the token."
      },
      "nonblockingLzReceive(uint16,bytes,uint64,bytes)": {
        "details": "public for the needs of try / catch but effectively internal",
        "params": {
          "_nonce": "Nounce of the message",
          "_payload": "Data: recipient address and amount",
          "_srcAddress": "Sender of the source chain",
          "_srcChainId": "ChainId of the source chain - LayerZero standard"
        }
      },
      "pauseSendTokens(bool)": {
        "params": {
          "pause": "Future pause status"
        }
      },
      "paused()": {
        "details": "Returns true if the contract is paused, and false otherwise."
      },
      "retryMessage(uint16,bytes,uint64,bytes)": {
        "params": {
          "_nonce": "Nounce of the message",
          "_payload": "Data: recipient address and amount",
          "_srcAddress": "Sender of the source chain",
          "_srcChainId": "ChainId of the source chain - LayerZero standard"
        }
      },
      "send(uint16,bytes,uint256,address,address,bytes)": {
        "params": {
          "_adapterParams": "is a flexible bytes array to indicate messaging adapter services",
          "_amount": "the quantity of tokens in wei",
          "_dstChainId": "the destination chain identifier",
          "_refundAddress": "the address LayerZero refunds if too much message fee is sent",
          "_toAddress": "can be any size depending on the `dstChainId`.",
          "_zroPaymentAddress": "set to address(0x0) if not paying in ZRO (LayerZero Token)"
        }
      },
      "sendCredit(uint16,bytes,uint256,address,address,bytes)": {
        "params": {
          "_adapterParams": "is a flexible bytes array to indicate messaging adapter services",
          "_amount": "the quantity of credit to send in wei",
          "_dstChainId": "the destination chain identifier",
          "_refundAddress": "the address LayerZero refunds if too much message fee is sent",
          "_toAddress": "can be any size depending on the `dstChainId`.",
          "_zroPaymentAddress": "set to address(0x0) if not paying in ZRO (LayerZero Token)"
        }
      },
      "sendWithPermit(uint16,bytes,uint256,address,address,bytes,uint256,uint8,bytes32,bytes32)": {
        "details": "The `v`, `r`, and `s` parameters are used as signature data",
        "params": {
          "_adapterParams": "Flexible bytes array to indicate messaging adapter services",
          "_amount": "Quantity of tokens in wei",
          "_dstChainId": "The destination chain identifier",
          "_refundAddress": "Address LayerZero refunds if too much message fee is sent",
          "_toAddress": "Can be any size depending on the `dstChainId`.",
          "_zroPaymentAddress": "Set to address(0x0) if not paying in ZRO (LayerZero Token)",
          "deadline": "Deadline parameter for the signature to be valid"
        }
      },
      "setTrustedRemote(uint16,bytes)": {
        "details": "Used for both receiving and sending messageThere can only be one trusted source per chainAllows owner to set it multiple times.",
        "params": {
          "_srcAddress": "Address on the source chain",
          "_srcChainId": "ChainId of the source chain - LayerZero standard"
        }
      },
      "supportsInterface(bytes4)": {
        "details": "See {IERC165-supportsInterface}."
      },
      "symbol()": {
        "details": "Returns the symbol of the token, usually a shorter version of the name."
      },
      "totalSupply()": {
        "details": "See {IERC20-totalSupply}."
      },
      "transfer(address,uint256)": {
        "details": "See {IERC20-transfer}. Requirements: - `recipient` cannot be the zero address. - the caller must have a balance of at least `amount`."
      },
      "transferFrom(address,address,uint256)": {
        "details": "See {IERC20-transferFrom}. Emits an {Approval} event indicating the updated allowance. This is not required by the EIP. See the note at the beginning of {ERC20}. Requirements: - `sender` and `recipient` cannot be the zero address. - `sender` must have a balance of at least `amount`. - the caller must have allowance for ``sender``'s tokens of at least `amount`."
      },
      "withdraw(uint256,address)": {
        "params": {
          "amount": "Amount to withdraw",
          "recipient": "Address to send the canonical token to"
        },
        "returns": {
          "amountMinted": "The amount of canonical token sent"
        }
      }
    },
    "title": "LayerZeroBridgeTokenERC20",
    "version": 1
  },
  "userdoc": {
    "kind": "user",
    "methods": {
      "burn(uint256)": {
        "notice": "Burns the intermediate contract from the `canonicalToken`"
      },
      "canonicalToken()": {
        "notice": "Address of the bridgeable token"
      },
      "coreBorrow()": {
        "notice": "Reference to the `CoreBorrow` contract to fetch access control"
      },
      "estimateSendFee(uint16,bytes,uint256,bool,bytes)": {
        "notice": "Estimates send token `_tokenId` to (`_dstChainId`, `_toAddress`)"
      },
      "failedMessages(uint16,bytes,uint64)": {
        "notice": "Maps chainIds to failed messages to retry them"
      },
      "forceResumeReceive(uint16,bytes)": {
        "notice": "Unpauses the receive functionalities"
      },
      "getConfig(uint16,uint16,address,uint256)": {
        "notice": "Fetches the default LZ config"
      },
      "initialize(string,string,address,address,address)": {
        "notice": "Initializes the contract"
      },
      "isTrustedRemote(uint16,bytes)": {
        "notice": "Checks if the `_srcAddress` corresponds to the trusted source"
      },
      "lzEndpoint()": {
        "notice": "Layer Zero endpoint"
      },
      "lzReceive(uint16,bytes,uint64,bytes)": {
        "notice": "Receives a message from the LZ endpoint and process it"
      },
      "mint(uint256)": {
        "notice": "Mints the intermediate contract to the `canonicalToken`"
      },
      "nonblockingLzReceive(uint16,bytes,uint64,bytes)": {
        "notice": "Handles message receptions in a non blocking way"
      },
      "pauseSendTokens(bool)": {
        "notice": "Pauses bridging through the contract"
      },
      "retryMessage(uint16,bytes,uint64,bytes)": {
        "notice": "Retries a message that previously failed and was stored"
      },
      "send(uint16,bytes,uint256,address,address,bytes)": {
        "notice": "Sends `_amount` amount of token to (`_dstChainId`, `_toAddress`)"
      },
      "sendCredit(uint16,bytes,uint256,address,address,bytes)": {
        "notice": "Sends `_amount` amount of credit to (`_dstChainId`, `_toAddress`)"
      },
      "sendWithPermit(uint16,bytes,uint256,address,address,bytes,uint256,uint8,bytes32,bytes32)": {
        "notice": "Sends `_amount` amount of token to (`_dstChainId`, `_toAddress`)"
      },
      "setConfig(uint16,uint16,uint256,bytes)": {
        "notice": "Overrides the default LZ config"
      },
      "setReceiveVersion(uint16)": {
        "notice": "Overrides the default LZ config"
      },
      "setSendVersion(uint16)": {
        "notice": "Overrides the default LZ config"
      },
      "setTrustedRemote(uint16,bytes)": {
        "notice": "Sets the corresponding address on an other chain."
      },
      "setupAllowance()": {
        "notice": "Increases allowance of the `canonicalToken`"
      },
      "trustedRemoteLookup(uint16)": {
        "notice": "Maps chainIds to their OFT address"
      },
      "withdraw(uint256,address)": {
        "notice": "Withdraws amount of canonical token from the `msg.sender` balance and sends it to the recipient"
      }
    },
    "notice": "Contract to be deployed on a L2/sidechain for bridging a token (ANGLE for instance) using a bridge intermediate token and LayerZero",
    "version": 1
  },
  "storageLayout": {
    "storage": [
      {
        "astId": 6,
        "contract": "contracts/bridgeERC20/layerZero/LayerZeroBridgeTokenERC20.sol:LayerZeroBridgeTokenERC20",
        "label": "_initialized",
        "offset": 0,
        "slot": "0",
        "type": "t_bool"
      },
      {
        "astId": 9,
        "contract": "contracts/bridgeERC20/layerZero/LayerZeroBridgeTokenERC20.sol:LayerZeroBridgeTokenERC20",
        "label": "_initializing",
        "offset": 1,
        "slot": "0",
        "type": "t_bool"
      },
      {
        "astId": 7003,
        "contract": "contracts/bridgeERC20/layerZero/LayerZeroBridgeTokenERC20.sol:LayerZeroBridgeTokenERC20",
        "label": "lzEndpoint",
        "offset": 2,
        "slot": "0",
        "type": "t_contract(ILayerZeroEndpoint)8354"
      },
      {
        "astId": 7012,
        "contract": "contracts/bridgeERC20/layerZero/LayerZeroBridgeTokenERC20.sol:LayerZeroBridgeTokenERC20",
        "label": "failedMessages",
        "offset": 0,
        "slot": "1",
        "type": "t_mapping(t_uint16,t_mapping(t_bytes_memory_ptr,t_mapping(t_uint64,t_bytes32)))"
      },
      {
        "astId": 7017,
        "contract": "contracts/bridgeERC20/layerZero/LayerZeroBridgeTokenERC20.sol:LayerZeroBridgeTokenERC20",
        "label": "trustedRemoteLookup",
        "offset": 0,
        "slot": "2",
        "type": "t_mapping(t_uint16,t_bytes_storage)"
      },
      {
        "astId": 7020,
        "contract": "contracts/bridgeERC20/layerZero/LayerZeroBridgeTokenERC20.sol:LayerZeroBridgeTokenERC20",
        "label": "coreBorrow",
        "offset": 0,
        "slot": "3",
        "type": "t_address"
      },
      {
        "astId": 7499,
        "contract": "contracts/bridgeERC20/layerZero/LayerZeroBridgeTokenERC20.sol:LayerZeroBridgeTokenERC20",
        "label": "__gap",
        "offset": 0,
        "slot": "4",
        "type": "t_array(t_uint256)46_storage"
      },
      {
        "astId": 2245,
        "contract": "contracts/bridgeERC20/layerZero/LayerZeroBridgeTokenERC20.sol:LayerZeroBridgeTokenERC20",
        "label": "__gap",
        "offset": 0,
        "slot": "50",
        "type": "t_array(t_uint256)50_storage"
      },
      {
        "astId": 7846,
        "contract": "contracts/bridgeERC20/layerZero/LayerZeroBridgeTokenERC20.sol:LayerZeroBridgeTokenERC20",
        "label": "__gap",
        "offset": 0,
        "slot": "100",
        "type": "t_array(t_uint256)50_storage"
      },
      {
        "astId": 1383,
        "contract": "contracts/bridgeERC20/layerZero/LayerZeroBridgeTokenERC20.sol:LayerZeroBridgeTokenERC20",
        "label": "__gap",
        "offset": 0,
        "slot": "150",
        "type": "t_array(t_uint256)50_storage"
      },
      {
        "astId": 205,
        "contract": "contracts/bridgeERC20/layerZero/LayerZeroBridgeTokenERC20.sol:LayerZeroBridgeTokenERC20",
        "label": "_balances",
        "offset": 0,
        "slot": "200",
        "type": "t_mapping(t_address,t_uint256)"
      },
      {
        "astId": 211,
        "contract": "contracts/bridgeERC20/layerZero/LayerZeroBridgeTokenERC20.sol:LayerZeroBridgeTokenERC20",
        "label": "_allowances",
        "offset": 0,
        "slot": "201",
        "type": "t_mapping(t_address,t_mapping(t_address,t_uint256))"
      },
      {
        "astId": 213,
        "contract": "contracts/bridgeERC20/layerZero/LayerZeroBridgeTokenERC20.sol:LayerZeroBridgeTokenERC20",
        "label": "_totalSupply",
        "offset": 0,
        "slot": "202",
        "type": "t_uint256"
      },
      {
        "astId": 215,
        "contract": "contracts/bridgeERC20/layerZero/LayerZeroBridgeTokenERC20.sol:LayerZeroBridgeTokenERC20",
        "label": "_name",
        "offset": 0,
        "slot": "203",
        "type": "t_string_storage"
      },
      {
        "astId": 217,
        "contract": "contracts/bridgeERC20/layerZero/LayerZeroBridgeTokenERC20.sol:LayerZeroBridgeTokenERC20",
        "label": "_symbol",
        "offset": 0,
        "slot": "204",
        "type": "t_string_storage"
      },
      {
        "astId": 758,
        "contract": "contracts/bridgeERC20/layerZero/LayerZeroBridgeTokenERC20.sol:LayerZeroBridgeTokenERC20",
        "label": "__gap",
        "offset": 0,
        "slot": "205",
        "type": "t_array(t_uint256)45_storage"
      },
      {
        "astId": 94,
        "contract": "contracts/bridgeERC20/layerZero/LayerZeroBridgeTokenERC20.sol:LayerZeroBridgeTokenERC20",
        "label": "_paused",
        "offset": 0,
        "slot": "250",
        "type": "t_bool"
      },
      {
        "astId": 185,
        "contract": "contracts/bridgeERC20/layerZero/LayerZeroBridgeTokenERC20.sol:LayerZeroBridgeTokenERC20",
        "label": "__gap",
        "offset": 0,
        "slot": "251",
        "type": "t_array(t_uint256)49_storage"
      },
      {
        "astId": 6570,
        "contract": "contracts/bridgeERC20/layerZero/LayerZeroBridgeTokenERC20.sol:LayerZeroBridgeTokenERC20",
        "label": "canonicalToken",
        "offset": 0,
        "slot": "300",
        "type": "t_contract(IAgTokenSideChainMultiBridge)8181"
      },
      {
        "astId": 6984,
        "contract": "contracts/bridgeERC20/layerZero/LayerZeroBridgeTokenERC20.sol:LayerZeroBridgeTokenERC20",
        "label": "__gap",
        "offset": 0,
        "slot": "301",
        "type": "t_array(t_uint256)49_storage"
      }
    ],
    "types": {
      "t_address": {
        "encoding": "inplace",
        "label": "address",
        "numberOfBytes": "20"
      },
      "t_array(t_uint256)45_storage": {
        "base": "t_uint256",
        "encoding": "inplace",
        "label": "uint256[45]",
        "numberOfBytes": "1440"
      },
      "t_array(t_uint256)46_storage": {
        "base": "t_uint256",
        "encoding": "inplace",
        "label": "uint256[46]",
        "numberOfBytes": "1472"
      },
      "t_array(t_uint256)49_storage": {
        "base": "t_uint256",
        "encoding": "inplace",
        "label": "uint256[49]",
        "numberOfBytes": "1568"
      },
      "t_array(t_uint256)50_storage": {
        "base": "t_uint256",
        "encoding": "inplace",
        "label": "uint256[50]",
        "numberOfBytes": "1600"
      },
      "t_bool": {
        "encoding": "inplace",
        "label": "bool",
        "numberOfBytes": "1"
      },
      "t_bytes32": {
        "encoding": "inplace",
        "label": "bytes32",
        "numberOfBytes": "32"
      },
      "t_bytes_memory_ptr": {
        "encoding": "bytes",
        "label": "bytes",
        "numberOfBytes": "32"
      },
      "t_bytes_storage": {
        "encoding": "bytes",
        "label": "bytes",
        "numberOfBytes": "32"
      },
      "t_contract(IAgTokenSideChainMultiBridge)8181": {
        "encoding": "inplace",
        "label": "contract IAgTokenSideChainMultiBridge",
        "numberOfBytes": "20"
      },
      "t_contract(ILayerZeroEndpoint)8354": {
        "encoding": "inplace",
        "label": "contract ILayerZeroEndpoint",
        "numberOfBytes": "20"
      },
      "t_mapping(t_address,t_mapping(t_address,t_uint256))": {
        "encoding": "mapping",
        "key": "t_address",
        "label": "mapping(address => mapping(address => uint256))",
        "numberOfBytes": "32",
        "value": "t_mapping(t_address,t_uint256)"
      },
      "t_mapping(t_address,t_uint256)": {
        "encoding": "mapping",
        "key": "t_address",
        "label": "mapping(address => uint256)",
        "numberOfBytes": "32",
        "value": "t_uint256"
      },
      "t_mapping(t_bytes_memory_ptr,t_mapping(t_uint64,t_bytes32))": {
        "encoding": "mapping",
        "key": "t_bytes_memory_ptr",
        "label": "mapping(bytes => mapping(uint64 => bytes32))",
        "numberOfBytes": "32",
        "value": "t_mapping(t_uint64,t_bytes32)"
      },
      "t_mapping(t_uint16,t_bytes_storage)": {
        "encoding": "mapping",
        "key": "t_uint16",
        "label": "mapping(uint16 => bytes)",
        "numberOfBytes": "32",
        "value": "t_bytes_storage"
      },
      "t_mapping(t_uint16,t_mapping(t_bytes_memory_ptr,t_mapping(t_uint64,t_bytes32)))": {
        "encoding": "mapping",
        "key": "t_uint16",
        "label": "mapping(uint16 => mapping(bytes => mapping(uint64 => bytes32)))",
        "numberOfBytes": "32",
        "value": "t_mapping(t_bytes_memory_ptr,t_mapping(t_uint64,t_bytes32))"
      },
      "t_mapping(t_uint64,t_bytes32)": {
        "encoding": "mapping",
        "key": "t_uint64",
        "label": "mapping(uint64 => bytes32)",
        "numberOfBytes": "32",
        "value": "t_bytes32"
      },
      "t_string_storage": {
        "encoding": "bytes",
        "label": "string",
        "numberOfBytes": "32"
      },
      "t_uint16": {
        "encoding": "inplace",
        "label": "uint16",
        "numberOfBytes": "2"
      },
      "t_uint256": {
        "encoding": "inplace",
        "label": "uint256",
        "numberOfBytes": "32"
      },
      "t_uint64": {
        "encoding": "inplace",
        "label": "uint64",
        "numberOfBytes": "8"
      }
    }
  }
}