{
  "address": "0xD7134e2265B78DFCF4e9FA4DC65b18F4D5C03220",
  "abi": [
    {
      "inputs": [],
      "stateMutability": "nonpayable",
      "type": "constructor"
    },
    {
      "inputs": [],
      "name": "InvalidCaller",
      "type": "error"
    },
    {
      "inputs": [],
      "name": "InvalidEndpoint",
      "type": "error"
    },
    {
      "inputs": [],
      "name": "InvalidPayload",
      "type": "error"
    },
    {
      "inputs": [],
      "name": "InvalidSource",
      "type": "error"
    },
    {
      "inputs": [],
      "name": "NotGovernor",
      "type": "error"
    },
    {
      "inputs": [],
      "name": "NotGovernorOrGuardian",
      "type": "error"
    },
    {
      "inputs": [],
      "name": "ZeroAddress",
      "type": "error"
    },
    {
      "anonymous": false,
      "inputs": [
        {
          "indexed": false,
          "internalType": "uint16",
          "name": "_srcChainId",
          "type": "uint16"
        },
        {
          "indexed": false,
          "internalType": "bytes",
          "name": "_srcAddress",
          "type": "bytes"
        },
        {
          "indexed": false,
          "internalType": "uint64",
          "name": "_nonce",
          "type": "uint64"
        },
        {
          "indexed": false,
          "internalType": "bytes",
          "name": "_payload",
          "type": "bytes"
        }
      ],
      "name": "MessageFailed",
      "type": "event"
    },
    {
      "anonymous": false,
      "inputs": [
        {
          "indexed": false,
          "internalType": "address",
          "name": "account",
          "type": "address"
        }
      ],
      "name": "Paused",
      "type": "event"
    },
    {
      "anonymous": false,
      "inputs": [
        {
          "indexed": true,
          "internalType": "uint16",
          "name": "_srcChainId",
          "type": "uint16"
        },
        {
          "indexed": true,
          "internalType": "bytes",
          "name": "_srcAddress",
          "type": "bytes"
        },
        {
          "indexed": true,
          "internalType": "address",
          "name": "_toAddress",
          "type": "address"
        },
        {
          "indexed": false,
          "internalType": "uint256",
          "name": "_amount",
          "type": "uint256"
        },
        {
          "indexed": false,
          "internalType": "uint64",
          "name": "_nonce",
          "type": "uint64"
        }
      ],
      "name": "ReceiveFromChain",
      "type": "event"
    },
    {
      "anonymous": false,
      "inputs": [
        {
          "indexed": true,
          "internalType": "address",
          "name": "_sender",
          "type": "address"
        },
        {
          "indexed": true,
          "internalType": "uint16",
          "name": "_dstChainId",
          "type": "uint16"
        },
        {
          "indexed": true,
          "internalType": "bytes",
          "name": "_toAddress",
          "type": "bytes"
        },
        {
          "indexed": false,
          "internalType": "uint256",
          "name": "_amount",
          "type": "uint256"
        },
        {
          "indexed": false,
          "internalType": "uint64",
          "name": "_nonce",
          "type": "uint64"
        }
      ],
      "name": "SendToChain",
      "type": "event"
    },
    {
      "anonymous": false,
      "inputs": [
        {
          "indexed": false,
          "internalType": "uint16",
          "name": "_srcChainId",
          "type": "uint16"
        },
        {
          "indexed": false,
          "internalType": "bytes",
          "name": "_srcAddress",
          "type": "bytes"
        }
      ],
      "name": "SetTrustedRemote",
      "type": "event"
    },
    {
      "anonymous": false,
      "inputs": [
        {
          "indexed": false,
          "internalType": "address",
          "name": "account",
          "type": "address"
        }
      ],
      "name": "Unpaused",
      "type": "event"
    },
    {
      "inputs": [
        {
          "internalType": "address",
          "name": "",
          "type": "address"
        }
      ],
      "name": "balanceOf",
      "outputs": [
        {
          "internalType": "uint256",
          "name": "",
          "type": "uint256"
        }
      ],
      "stateMutability": "view",
      "type": "function"
    },
    {
      "inputs": [],
      "name": "canonicalToken",
      "outputs": [
        {
          "internalType": "contract IERC20",
          "name": "",
          "type": "address"
        }
      ],
      "stateMutability": "view",
      "type": "function"
    },
    {
      "inputs": [],
      "name": "coreBorrow",
      "outputs": [
        {
          "internalType": "address",
          "name": "",
          "type": "address"
        }
      ],
      "stateMutability": "view",
      "type": "function"
    },
    {
      "inputs": [
        {
          "internalType": "uint16",
          "name": "_dstChainId",
          "type": "uint16"
        },
        {
          "internalType": "bytes",
          "name": "_toAddress",
          "type": "bytes"
        },
        {
          "internalType": "uint256",
          "name": "_amount",
          "type": "uint256"
        },
        {
          "internalType": "bool",
          "name": "_useZro",
          "type": "bool"
        },
        {
          "internalType": "bytes",
          "name": "_adapterParams",
          "type": "bytes"
        }
      ],
      "name": "estimateSendFee",
      "outputs": [
        {
          "internalType": "uint256",
          "name": "nativeFee",
          "type": "uint256"
        },
        {
          "internalType": "uint256",
          "name": "zroFee",
          "type": "uint256"
        }
      ],
      "stateMutability": "view",
      "type": "function"
    },
    {
      "inputs": [
        {
          "internalType": "uint16",
          "name": "",
          "type": "uint16"
        },
        {
          "internalType": "bytes",
          "name": "",
          "type": "bytes"
        },
        {
          "internalType": "uint64",
          "name": "",
          "type": "uint64"
        }
      ],
      "name": "failedMessages",
      "outputs": [
        {
          "internalType": "bytes32",
          "name": "",
          "type": "bytes32"
        }
      ],
      "stateMutability": "view",
      "type": "function"
    },
    {
      "inputs": [
        {
          "internalType": "uint16",
          "name": "_srcChainId",
          "type": "uint16"
        },
        {
          "internalType": "bytes",
          "name": "_srcAddress",
          "type": "bytes"
        }
      ],
      "name": "forceResumeReceive",
      "outputs": [],
      "stateMutability": "nonpayable",
      "type": "function"
    },
    {
      "inputs": [
        {
          "internalType": "uint16",
          "name": "_version",
          "type": "uint16"
        },
        {
          "internalType": "uint16",
          "name": "_chainId",
          "type": "uint16"
        },
        {
          "internalType": "address",
          "name": "",
          "type": "address"
        },
        {
          "internalType": "uint256",
          "name": "_configType",
          "type": "uint256"
        }
      ],
      "name": "getConfig",
      "outputs": [
        {
          "internalType": "bytes",
          "name": "",
          "type": "bytes"
        }
      ],
      "stateMutability": "view",
      "type": "function"
    },
    {
      "inputs": [
        {
          "internalType": "string",
          "name": "_name",
          "type": "string"
        },
        {
          "internalType": "address",
          "name": "_lzEndpoint",
          "type": "address"
        },
        {
          "internalType": "address",
          "name": "_coreBorrow",
          "type": "address"
        },
        {
          "internalType": "contract IERC20",
          "name": "_canonicalToken",
          "type": "address"
        }
      ],
      "name": "initialize",
      "outputs": [],
      "stateMutability": "nonpayable",
      "type": "function"
    },
    {
      "inputs": [
        {
          "internalType": "uint16",
          "name": "_srcChainId",
          "type": "uint16"
        },
        {
          "internalType": "bytes",
          "name": "_srcAddress",
          "type": "bytes"
        }
      ],
      "name": "isTrustedRemote",
      "outputs": [
        {
          "internalType": "bool",
          "name": "",
          "type": "bool"
        }
      ],
      "stateMutability": "view",
      "type": "function"
    },
    {
      "inputs": [],
      "name": "lzEndpoint",
      "outputs": [
        {
          "internalType": "contract ILayerZeroEndpoint",
          "name": "",
          "type": "address"
        }
      ],
      "stateMutability": "view",
      "type": "function"
    },
    {
      "inputs": [
        {
          "internalType": "uint16",
          "name": "_srcChainId",
          "type": "uint16"
        },
        {
          "internalType": "bytes",
          "name": "_srcAddress",
          "type": "bytes"
        },
        {
          "internalType": "uint64",
          "name": "_nonce",
          "type": "uint64"
        },
        {
          "internalType": "bytes",
          "name": "_payload",
          "type": "bytes"
        }
      ],
      "name": "lzReceive",
      "outputs": [],
      "stateMutability": "nonpayable",
      "type": "function"
    },
    {
      "inputs": [],
      "name": "name",
      "outputs": [
        {
          "internalType": "string",
          "name": "",
          "type": "string"
        }
      ],
      "stateMutability": "view",
      "type": "function"
    },
    {
      "inputs": [
        {
          "internalType": "uint16",
          "name": "_srcChainId",
          "type": "uint16"
        },
        {
          "internalType": "bytes",
          "name": "_srcAddress",
          "type": "bytes"
        },
        {
          "internalType": "uint64",
          "name": "_nonce",
          "type": "uint64"
        },
        {
          "internalType": "bytes",
          "name": "_payload",
          "type": "bytes"
        }
      ],
      "name": "nonblockingLzReceive",
      "outputs": [],
      "stateMutability": "nonpayable",
      "type": "function"
    },
    {
      "inputs": [
        {
          "internalType": "bool",
          "name": "pause",
          "type": "bool"
        }
      ],
      "name": "pauseSendTokens",
      "outputs": [],
      "stateMutability": "nonpayable",
      "type": "function"
    },
    {
      "inputs": [],
      "name": "paused",
      "outputs": [
        {
          "internalType": "bool",
          "name": "",
          "type": "bool"
        }
      ],
      "stateMutability": "view",
      "type": "function"
    },
    {
      "inputs": [
        {
          "internalType": "uint16",
          "name": "_srcChainId",
          "type": "uint16"
        },
        {
          "internalType": "bytes",
          "name": "_srcAddress",
          "type": "bytes"
        },
        {
          "internalType": "uint64",
          "name": "_nonce",
          "type": "uint64"
        },
        {
          "internalType": "bytes",
          "name": "_payload",
          "type": "bytes"
        }
      ],
      "name": "retryMessage",
      "outputs": [],
      "stateMutability": "payable",
      "type": "function"
    },
    {
      "inputs": [
        {
          "internalType": "uint16",
          "name": "_dstChainId",
          "type": "uint16"
        },
        {
          "internalType": "bytes",
          "name": "_toAddress",
          "type": "bytes"
        },
        {
          "internalType": "uint256",
          "name": "_amount",
          "type": "uint256"
        },
        {
          "internalType": "address payable",
          "name": "_refundAddress",
          "type": "address"
        },
        {
          "internalType": "address",
          "name": "_zroPaymentAddress",
          "type": "address"
        },
        {
          "internalType": "bytes",
          "name": "_adapterParams",
          "type": "bytes"
        }
      ],
      "name": "send",
      "outputs": [],
      "stateMutability": "payable",
      "type": "function"
    },
    {
      "inputs": [
        {
          "internalType": "uint16",
          "name": "_dstChainId",
          "type": "uint16"
        },
        {
          "internalType": "bytes",
          "name": "_toAddress",
          "type": "bytes"
        },
        {
          "internalType": "uint256",
          "name": "_amount",
          "type": "uint256"
        },
        {
          "internalType": "address payable",
          "name": "_refundAddress",
          "type": "address"
        },
        {
          "internalType": "address",
          "name": "_zroPaymentAddress",
          "type": "address"
        },
        {
          "internalType": "bytes",
          "name": "_adapterParams",
          "type": "bytes"
        }
      ],
      "name": "sendCredit",
      "outputs": [],
      "stateMutability": "payable",
      "type": "function"
    },
    {
      "inputs": [
        {
          "internalType": "uint16",
          "name": "_dstChainId",
          "type": "uint16"
        },
        {
          "internalType": "bytes",
          "name": "_toAddress",
          "type": "bytes"
        },
        {
          "internalType": "uint256",
          "name": "_amount",
          "type": "uint256"
        },
        {
          "internalType": "address payable",
          "name": "_refundAddress",
          "type": "address"
        },
        {
          "internalType": "address",
          "name": "_zroPaymentAddress",
          "type": "address"
        },
        {
          "internalType": "bytes",
          "name": "_adapterParams",
          "type": "bytes"
        },
        {
          "internalType": "uint256",
          "name": "deadline",
          "type": "uint256"
        },
        {
          "internalType": "uint8",
          "name": "v",
          "type": "uint8"
        },
        {
          "internalType": "bytes32",
          "name": "r",
          "type": "bytes32"
        },
        {
          "internalType": "bytes32",
          "name": "s",
          "type": "bytes32"
        }
      ],
      "name": "sendWithPermit",
      "outputs": [],
      "stateMutability": "payable",
      "type": "function"
    },
    {
      "inputs": [
        {
          "internalType": "uint16",
          "name": "_version",
          "type": "uint16"
        },
        {
          "internalType": "uint16",
          "name": "_chainId",
          "type": "uint16"
        },
        {
          "internalType": "uint256",
          "name": "_configType",
          "type": "uint256"
        },
        {
          "internalType": "bytes",
          "name": "_config",
          "type": "bytes"
        }
      ],
      "name": "setConfig",
      "outputs": [],
      "stateMutability": "nonpayable",
      "type": "function"
    },
    {
      "inputs": [
        {
          "internalType": "uint16",
          "name": "_version",
          "type": "uint16"
        }
      ],
      "name": "setReceiveVersion",
      "outputs": [],
      "stateMutability": "nonpayable",
      "type": "function"
    },
    {
      "inputs": [
        {
          "internalType": "uint16",
          "name": "_version",
          "type": "uint16"
        }
      ],
      "name": "setSendVersion",
      "outputs": [],
      "stateMutability": "nonpayable",
      "type": "function"
    },
    {
      "inputs": [
        {
          "internalType": "uint16",
          "name": "_srcChainId",
          "type": "uint16"
        },
        {
          "internalType": "bytes",
          "name": "_srcAddress",
          "type": "bytes"
        }
      ],
      "name": "setTrustedRemote",
      "outputs": [],
      "stateMutability": "nonpayable",
      "type": "function"
    },
    {
      "inputs": [
        {
          "internalType": "bytes4",
          "name": "interfaceId",
          "type": "bytes4"
        }
      ],
      "name": "supportsInterface",
      "outputs": [
        {
          "internalType": "bool",
          "name": "",
          "type": "bool"
        }
      ],
      "stateMutability": "view",
      "type": "function"
    },
    {
      "inputs": [
        {
          "internalType": "uint256",
          "name": "amount",
          "type": "uint256"
        },
        {
          "internalType": "address",
          "name": "recipient",
          "type": "address"
        }
      ],
      "name": "sweep",
      "outputs": [],
      "stateMutability": "nonpayable",
      "type": "function"
    },
    {
      "inputs": [
        {
          "internalType": "uint16",
          "name": "",
          "type": "uint16"
        }
      ],
      "name": "trustedRemoteLookup",
      "outputs": [
        {
          "internalType": "bytes",
          "name": "",
          "type": "bytes"
        }
      ],
      "stateMutability": "view",
      "type": "function"
    },
    {
      "inputs": [
        {
          "internalType": "uint256",
          "name": "amount",
          "type": "uint256"
        },
        {
          "internalType": "address",
          "name": "recipient",
          "type": "address"
        }
      ],
      "name": "withdraw",
      "outputs": [
        {
          "internalType": "uint256",
          "name": "",
          "type": "uint256"
        }
      ],
      "stateMutability": "nonpayable",
      "type": "function"
    },
    {
      "inputs": [
        {
          "internalType": "uint256",
          "name": "amount",
          "type": "uint256"
        },
        {
          "internalType": "address",
          "name": "recipient",
          "type": "address"
        }
      ],
      "name": "withdrawFor",
      "outputs": [
        {
          "internalType": "uint256",
          "name": "",
          "type": "uint256"
        }
      ],
      "stateMutability": "nonpayable",
      "type": "function"
    }
  ],
  "transactionHash": "0x02da2c9ee5abb4865451a5f79ec391378273aa043c5b5706516071672f09724e",
  "args": [],
  "numDeployments": 1,
  "solcInputHash": "df0edfdf1a2dc083cb4f7726ee89e57b",
  "bytecode": "0x60806040523480156200001157600080fd5b50600054610100900460ff166200002f5760005460ff161562000039565b62000039620000de565b620000a15760405162461bcd60e51b815260206004820152602e60248201527f496e697469616c697a61626c653a20636f6e747261637420697320616c72656160448201526d191e481a5b9a5d1a585b1a5e995960921b606482015260840160405180910390fd5b600054610100900460ff16158015620000c4576000805461ffff19166101011790555b8015620000d7576000805461ff00191690555b5062000102565b6000620000f630620000fc60201b620018871760201c565b15905090565b3b151590565b61319480620001126000396000f3fe6080604052600436106101b55760003560e01c806366ad5c8a116100ec578063ceb76b551161008a578063eed33cef11610064578063eed33cef14610555578063f187892214610568578063f34822b414610588578063f5ecbdbc146105a857600080fd5b8063ceb76b55146104f5578063d1deba1f14610522578063eb8d72b71461053557600080fd5b806385edd8ae116100c657806385edd8ae1461046f578063b353aaa714610482578063cbed8b9c146104b5578063cbf9b84b146104d557600080fd5b806366ad5c8a1461040257806370a08231146104225780637533d7881461044f57600080fd5b80631b0c24d5116101595780633d8b38f6116101335780633d8b38f61461035b57806342d65a8d1461037b5780635b8c41e61461039b5780635c975abb146103ea57600080fd5b80631b0c24d5146102b45780632a205e3d146103065780633576f6cc1461033b57600080fd5b806306fdde031161019557806306fdde031461023f57806307e0db171461026157806310ddb1371461028157806310f95825146102a157600080fd5b80621d3567146101ba578062f714ce146101dc57806301ffc9a71461020f575b600080fd5b3480156101c657600080fd5b506101da6101d536600461271c565b6105c8565b005b3480156101e857600080fd5b506101fc6101f73660046127d2565b610726565b6040519081526020015b60405180910390f35b34801561021b57600080fd5b5061022f61022a366004612802565b61073a565b6040519015158152602001610206565b34801561024b57600080fd5b50610254610796565b60405161020691906128ba565b34801561026d57600080fd5b506101da61027c3660046128cd565b610824565b34801561028d57600080fd5b506101da61029c3660046128cd565b610975565b6101da6102af3660046128e8565b610a9c565b3480156102c057600080fd5b506003546102e19073ffffffffffffffffffffffffffffffffffffffff1681565b60405173ffffffffffffffffffffffffffffffffffffffff9091168152602001610206565b34801561031257600080fd5b5061032661032136600461299c565b610abf565b60408051928352602083019190915201610206565b34801561034757600080fd5b506101fc6103563660046127d2565b610bb7565b34801561036757600080fd5b5061022f610376366004612a78565b610bc4565b34801561038757600080fd5b506101da610396366004612a78565b610c90565b3480156103a757600080fd5b506101fc6103b6366004612acb565b6001602090815260009384526040808520845180860184018051928152908401958401959095209452929052825290205481565b3480156103f657600080fd5b5060c85460ff1661022f565b34801561040e57600080fd5b506101da61041d36600461271c565b610dee565b34801561042e57600080fd5b506101fc61043d366004612b2d565b60fc6020526000908152604090205481565b34801561045b57600080fd5b5061025461046a3660046128cd565b610e39565b6101da61047d366004612b5b565b610e52565b34801561048e57600080fd5b506000546102e19062010000900473ffffffffffffffffffffffffffffffffffffffff1681565b3480156104c157600080fd5b506101da6104d0366004612c2a565b610f1a565b3480156104e157600080fd5b506101da6104f03660046127d2565b61107e565b34801561050157600080fd5b5060fb546102e19073ffffffffffffffffffffffffffffffffffffffff1681565b6101da61053036600461271c565b6111a1565b34801561054157600080fd5b506101da610550366004612a78565b611287565b6101da6105633660046128e8565b6113ae565b34801561057457600080fd5b506101da610583366004612c99565b6114fb565b34801561059457600080fd5b506101da6105a3366004612cb6565b6115db565b3480156105b457600080fd5b506102546105c3366004612d3f565b6117aa565b60005462010000900473ffffffffffffffffffffffffffffffffffffffff16331461061f576040517ff1cbb56700000000000000000000000000000000000000000000000000000000815260040160405180910390fd5b61ffff84166000908152600260205260408120805461063d90612d8c565b80601f016020809104026020016040519081016040528092919081815260200182805461066990612d8c565b80156106b65780601f1061068b576101008083540402835291602001916106b6565b820191906000526020600020905b81548152906001019060200180831161069957829003601f168201915b50505050509050805184511415806106dc57508080519060200120848051906020012014155b15610713576040517f8154374b00000000000000000000000000000000000000000000000000000000815260040160405180910390fd5b61071f8585858561188d565b5050505050565b6000610733833384611998565b9392505050565b60007fffffffff0000000000000000000000000000000000000000000000000000000082167f5110f697000000000000000000000000000000000000000000000000000000001480610790575061079082611af9565b92915050565b60fa80546107a390612d8c565b80601f01602080910402602001604051908101604052809291908181526020018280546107cf90612d8c565b801561081c5780601f106107f15761010080835404028352916020019161081c565b820191906000526020600020905b8154815290600101906020018083116107ff57829003601f168201915b505050505081565b6003546040517f521d4de900000000000000000000000000000000000000000000000000000000815233600482015273ffffffffffffffffffffffffffffffffffffffff9091169063521d4de990602401602060405180830381865afa158015610892573d6000803e3d6000fd5b505050506040513d601f19601f820116820180604052508101906108b69190612de0565b6108ec576040517f99e120bc00000000000000000000000000000000000000000000000000000000815260040160405180910390fd5b6000546040517f07e0db1700000000000000000000000000000000000000000000000000000000815261ffff831660048201526201000090910473ffffffffffffffffffffffffffffffffffffffff16906307e0db17906024015b600060405180830381600087803b15801561096157600080fd5b505af115801561071f573d6000803e3d6000fd5b6003546040517f521d4de900000000000000000000000000000000000000000000000000000000815233600482015273ffffffffffffffffffffffffffffffffffffffff9091169063521d4de990602401602060405180830381865afa1580156109e3573d6000803e3d6000fd5b505050506040513d601f19601f82011682018060405250810190610a079190612de0565b610a3d576040517f99e120bc00000000000000000000000000000000000000000000000000000000815260040160405180910390fd5b6000546040517f10ddb13700000000000000000000000000000000000000000000000000000000815261ffff831660048201526201000090910473ffffffffffffffffffffffffffffffffffffffff16906310ddb13790602401610947565b610aa7868686611b90565b9350610ab7868686868686611c31565b505050505050565b60008060008686604051602001610ad7929190612dfd565b604080518083037fffffffffffffffffffffffffffffffffffffffffffffffffffffffffffffffe0018152908290526000547f40a7bb1000000000000000000000000000000000000000000000000000000000835290925062010000900473ffffffffffffffffffffffffffffffffffffffff16906340a7bb1090610b68908b90309086908b908b90600401612e1f565b6040805180830381865afa158015610b84573d6000803e3d6000fd5b505050506040513d601f19601f82011682018060405250810190610ba89190612e7e565b92509250509550959350505050565b6000610733838384611998565b61ffff831660009081526002602052604081208054829190610be590612d8c565b80601f0160208091040260200160405190810160405280929190818152602001828054610c1190612d8c565b8015610c5e5780601f10610c3357610100808354040283529160200191610c5e565b820191906000526020600020905b815481529060010190602001808311610c4157829003601f168201915b505050505090508383604051610c75929190612ea2565b60405180910390208180519060200120149150509392505050565b6003546040517f521d4de900000000000000000000000000000000000000000000000000000000815233600482015273ffffffffffffffffffffffffffffffffffffffff9091169063521d4de990602401602060405180830381865afa158015610cfe573d6000803e3d6000fd5b505050506040513d601f19601f82011682018060405250810190610d229190612de0565b610d58576040517f99e120bc00000000000000000000000000000000000000000000000000000000815260040160405180910390fd5b6000546040517f42d65a8d0000000000000000000000000000000000000000000000000000000081526201000090910473ffffffffffffffffffffffffffffffffffffffff16906342d65a8d90610db790869086908690600401612efb565b600060405180830381600087803b158015610dd157600080fd5b505af1158015610de5573d6000803e3d6000fd5b50505050505050565b333014610e27576040517f48f5c3ed00000000000000000000000000000000000000000000000000000000815260040160405180910390fd5b610e3384848484611c46565b50505050565b600260205260009081526040902080546107a390612d8c565b60fb546040517fd505accf000000000000000000000000000000000000000000000000000000008152336004820152306024820152604481018a90526064810186905260ff8516608482015260a4810184905260c4810183905273ffffffffffffffffffffffffffffffffffffffff9091169063d505accf9060e401600060405180830381600087803b158015610ee857600080fd5b505af1158015610efc573d6000803e3d6000fd5b50505050610f0e8a8a8a8a8a8a6113ae565b50505050505050505050565b6003546040517f521d4de900000000000000000000000000000000000000000000000000000000815233600482015273ffffffffffffffffffffffffffffffffffffffff9091169063521d4de990602401602060405180830381865afa158015610f88573d6000803e3d6000fd5b505050506040513d601f19601f82011682018060405250810190610fac9190612de0565b610fe2576040517f99e120bc00000000000000000000000000000000000000000000000000000000815260040160405180910390fd5b6000546040517fcbed8b9c0000000000000000000000000000000000000000000000000000000081526201000090910473ffffffffffffffffffffffffffffffffffffffff169063cbed8b9c906110459088908890889088908890600401612f19565b600060405180830381600087803b15801561105f57600080fd5b505af1158015611073573d6000803e3d6000fd5b505050505050505050565b6003546040517f521d4de900000000000000000000000000000000000000000000000000000000815233600482015273ffffffffffffffffffffffffffffffffffffffff9091169063521d4de990602401602060405180830381865afa1580156110ec573d6000803e3d6000fd5b505050506040513d601f19601f820116820180604052508101906111109190612de0565b611146576040517f99e120bc00000000000000000000000000000000000000000000000000000000815260040160405180910390fd5b73ffffffffffffffffffffffffffffffffffffffff8116600090815260fc6020526040902054611177908390612f52565b73ffffffffffffffffffffffffffffffffffffffff909116600090815260fc602052604090205550565b61ffff841660009081526001602052604080822090516111c2908690612f90565b908152604080516020928190038301902067ffffffffffffffff86166000908152925290205490508015806111fd5750815160208301208114155b15611234576040517f7c6953f900000000000000000000000000000000000000000000000000000000815260040160405180910390fd5b61ffff85166000908152600160205260408082209051611255908790612f90565b908152604080516020928190038301902067ffffffffffffffff87166000908152925290205561071f85858585611c46565b6003546040517f521d4de900000000000000000000000000000000000000000000000000000000815233600482015273ffffffffffffffffffffffffffffffffffffffff9091169063521d4de990602401602060405180830381865afa1580156112f5573d6000803e3d6000fd5b505050506040513d601f19601f820116820180604052508101906113199190612de0565b61134f576040517f99e120bc00000000000000000000000000000000000000000000000000000000815260040160405180910390fd5b61ffff8316600090815260026020526040902061136d9083836124a2565b507ffa41487ad5d6728f0b19276fa1eddc16558578f5109fc39d2dc33c3230470dab8383836040516113a193929190612efb565b60405180910390a1505050565b6113b9868686611cf1565b9350600085856040516020016113d0929190612dfd565b60405160208183030381529060405290506113ee8782868686611e10565b600080546040517f7a14574800000000000000000000000000000000000000000000000000000000815261ffff8a1660048201523060248201526201000090910473ffffffffffffffffffffffffffffffffffffffff1690637a14574890604401602060405180830381865afa15801561146c573d6000803e3d6000fd5b505050506040513d601f19601f820116820180604052508101906114909190612fac565b9050866040516114a09190612f90565b6040805191829003822088835267ffffffffffffffff841660208401529161ffff8b169133917f024797cc77ce15dc717112d54fb1df125fdfd8c81344fb046c5e074427ce1543910160405180910390a45050505050505050565b6003546040517f521d4de900000000000000000000000000000000000000000000000000000000815233600482015273ffffffffffffffffffffffffffffffffffffffff9091169063521d4de990602401602060405180830381865afa158015611569573d6000803e3d6000fd5b505050506040513d601f19601f8201168201806040525081019061158d9190612de0565b6115c3576040517f99e120bc00000000000000000000000000000000000000000000000000000000815260040160405180910390fd5b806115d3576115d0611f8b565b50565b6115d061206c565b600054610100900460ff166115f65760005460ff16156115fa565b303b155b61168b576040517f08c379a000000000000000000000000000000000000000000000000000000000815260206004820152602e60248201527f496e697469616c697a61626c653a20636f6e747261637420697320616c72656160448201527f647920696e697469616c697a656400000000000000000000000000000000000060648201526084015b60405180910390fd5b600054610100900460ff161580156116ca57600080547fffffffffffffffffffffffffffffffffffffffffffffffffffffffffffff0000166101011790555b73ffffffffffffffffffffffffffffffffffffffff8216611717576040517fd92e233d00000000000000000000000000000000000000000000000000000000815260040160405180910390fd5b611721848461212c565b84516117349060fa906020880190612544565b5060fb80547fffffffffffffffffffffffff00000000000000000000000000000000000000001673ffffffffffffffffffffffffffffffffffffffff8416179055801561071f57600080547fffffffffffffffffffffffffffffffffffffffffffffffffffffffffffff00ff1690555050505050565b6000546040517ff5ecbdbc00000000000000000000000000000000000000000000000000000000815261ffff8087166004830152851660248201523060448201526064810183905260609162010000900473ffffffffffffffffffffffffffffffffffffffff169063f5ecbdbc90608401600060405180830381865afa158015611838573d6000803e3d6000fd5b505050506040513d6000823e601f3d9081017fffffffffffffffffffffffffffffffffffffffffffffffffffffffffffffffe016820160405261187e9190810190613016565b95945050505050565b3b151590565b6040517f66ad5c8a00000000000000000000000000000000000000000000000000000000815230906366ad5c8a906118cf90879087908790879060040161304b565b600060405180830381600087803b1580156118e957600080fd5b505af19250505080156118fa575060015b610e33578080519060200120600160008661ffff1661ffff1681526020019081526020016000208460405161192f9190612f90565b90815260408051918290036020908101832067ffffffffffffffff87166000908152915220919091557fe6f254030bcb01ffd20558175c13fcaed6d1520be7becee4c961b65f79243b0d9061198b90869086908690869061304b565b60405180910390a1610e33565b60006119a660c85460ff1690565b15611a0d576040517f08c379a000000000000000000000000000000000000000000000000000000000815260206004820152601060248201527f5061757361626c653a20706175736564000000000000000000000000000000006044820152606401611682565b73ffffffffffffffffffffffffffffffffffffffff8316600090815260fc6020526040902054611a3e908590612f52565b73ffffffffffffffffffffffffffffffffffffffff848116600090815260fc6020526040908190209290925560fb5491517fa9059cbb00000000000000000000000000000000000000000000000000000000815284821660048201526024810187905291169063a9059cbb906044016020604051808303816000875af1158015611acc573d6000803e3d6000fd5b505050506040513d601f19601f82011682018060405250810190611af09190612de0565b50929392505050565b60007fffffffff0000000000000000000000000000000000000000000000000000000082167f5110f69700000000000000000000000000000000000000000000000000000000148061079057507f01ffc9a7000000000000000000000000000000000000000000000000000000007fffffffff00000000000000000000000000000000000000000000000000000000831614610790565b6000611b9e60c85460ff1690565b15611c05576040517f08c379a000000000000000000000000000000000000000000000000000000000815260206004820152601060248201527f5061757361626c653a20706175736564000000000000000000000000000000006044820152606401611682565b33600090815260fc602052604081208054849290611c24908490612f52565b9091555091949350505050565b600085856040516020016113d0929190612dfd565b60008082806020019051810190611c5d919061308a565b60148201519193509150611c7287828461220f565b91508073ffffffffffffffffffffffffffffffffffffffff1686604051611c999190612f90565b6040805191829003822085835267ffffffffffffffff891660208401529161ffff8b16917f64e10c37f404d128982dce114f5d233c14c5c7f6d8db93099e3d99dacb9e27ba910160405180910390a450505050505050565b6000611cff60c85460ff1690565b15611d66576040517f08c379a000000000000000000000000000000000000000000000000000000000815260206004820152601060248201527f5061757361626c653a20706175736564000000000000000000000000000000006044820152606401611682565b60fb546040517f23b872dd0000000000000000000000000000000000000000000000000000000081523360048201523060248201526044810184905273ffffffffffffffffffffffffffffffffffffffff909116906323b872dd906064016020604051808303816000875af1158015611de3573d6000803e3d6000fd5b505050506040513d601f19601f82011682018060405250810190611e079190612de0565b50909392505050565b61ffff851660009081526002602052604081208054611e2e90612d8c565b80601f0160208091040260200160405190810160405280929190818152602001828054611e5a90612d8c565b8015611ea75780601f10611e7c57610100808354040283529160200191611ea7565b820191906000526020600020905b815481529060010190602001808311611e8a57829003601f168201915b50505050509050805160001415611eea576040517f8154374b00000000000000000000000000000000000000000000000000000000815260040160405180910390fd5b6000546040517fc58031000000000000000000000000000000000000000000000000000000000081526201000090910473ffffffffffffffffffffffffffffffffffffffff169063c5803100903490611f51908a9086908b908b908b908b906004016130d1565b6000604051808303818588803b158015611f6a57600080fd5b505af1158015611f7e573d6000803e3d6000fd5b5050505050505050505050565b60c85460ff16611ff7576040517f08c379a000000000000000000000000000000000000000000000000000000000815260206004820152601460248201527f5061757361626c653a206e6f74207061757365640000000000000000000000006044820152606401611682565b60c880547fffffffffffffffffffffffffffffffffffffffffffffffffffffffffffffff001690557f5db9ee0a495bf2e6ff9c91a7834c1ba4fdd244a5e8aa4e537bd38aeae4b073aa335b60405173ffffffffffffffffffffffffffffffffffffffff909116815260200160405180910390a1565b60c85460ff16156120d9576040517f08c379a000000000000000000000000000000000000000000000000000000000815260206004820152601060248201527f5061757361626c653a20706175736564000000000000000000000000000000006044820152606401611682565b60c880547fffffffffffffffffffffffffffffffffffffffffffffffffffffffffffffff001660011790557f62e78cea01bee320cd4e420270b5ea74000d11b0c9f74754ebdbfc544b05a2586120423390565b73ffffffffffffffffffffffffffffffffffffffff82161580612163575073ffffffffffffffffffffffffffffffffffffffff8116155b1561219a576040517fd92e233d00000000000000000000000000000000000000000000000000000000815260040160405180910390fd5b600080547fffffffffffffffffffff0000000000000000000000000000000000000000ffff166201000073ffffffffffffffffffffffffffffffffffffffff94851602179055600380547fffffffffffffffffffffffff00000000000000000000000000000000000000001691909216179055565b600061221d60c85460ff1690565b15612284576040517f08c379a000000000000000000000000000000000000000000000000000000000815260206004820152601060248201527f5061757361626c653a20706175736564000000000000000000000000000000006044820152606401611682565b60fb546040517f70a0823100000000000000000000000000000000000000000000000000000000815230600482015260009173ffffffffffffffffffffffffffffffffffffffff16906370a0823190602401602060405180830381865afa1580156122f3573d6000803e3d6000fd5b505050506040513d601f19601f820116820180604052508101906123179190613145565b9050828110156123fb5761232b8184612f52565b73ffffffffffffffffffffffffffffffffffffffff8516600090815260fc602052604090205580156123f65760fb546040517fa9059cbb00000000000000000000000000000000000000000000000000000000815273ffffffffffffffffffffffffffffffffffffffff8681166004830152602482018490529091169063a9059cbb906044016020604051808303816000875af11580156123d0573d6000803e3d6000fd5b505050506040513d601f19601f820116820180604052508101906123f49190612de0565b505b611e07565b60fb546040517fa9059cbb00000000000000000000000000000000000000000000000000000000815273ffffffffffffffffffffffffffffffffffffffff8681166004830152602482018690529091169063a9059cbb906044016020604051808303816000875af1158015612474573d6000803e3d6000fd5b505050506040513d601f19601f820116820180604052508101906124989190612de0565b5050909392505050565b8280546124ae90612d8c565b90600052602060002090601f0160209004810192826124d05760008555612534565b82601f10612507578280017fffffffffffffffffffffffffffffffffffffffffffffffffffffffffffffff00823516178555612534565b82800160010185558215612534579182015b82811115612534578235825591602001919060010190612519565b506125409291506125b8565b5090565b82805461255090612d8c565b90600052602060002090601f0160209004810192826125725760008555612534565b82601f1061258b57805160ff1916838001178555612534565b82800160010185558215612534579182015b8281111561253457825182559160200191906001019061259d565b5b8082111561254057600081556001016125b9565b803561ffff811681146125df57600080fd5b919050565b7f4e487b7100000000000000000000000000000000000000000000000000000000600052604160045260246000fd5b604051601f82017fffffffffffffffffffffffffffffffffffffffffffffffffffffffffffffffe016810167ffffffffffffffff8111828210171561265a5761265a6125e4565b604052919050565b600067ffffffffffffffff82111561267c5761267c6125e4565b50601f017fffffffffffffffffffffffffffffffffffffffffffffffffffffffffffffffe01660200190565b60006126bb6126b684612662565b612613565b90508281528383830111156126cf57600080fd5b828260208301376000602084830101529392505050565b600082601f8301126126f757600080fd5b610733838335602085016126a8565b67ffffffffffffffff811681146115d057600080fd5b6000806000806080858703121561273257600080fd5b61273b856125cd565b9350602085013567ffffffffffffffff8082111561275857600080fd5b612764888389016126e6565b94506040870135915061277682612706565b9092506060860135908082111561278c57600080fd5b50612799878288016126e6565b91505092959194509250565b73ffffffffffffffffffffffffffffffffffffffff811681146115d057600080fd5b80356125df816127a5565b600080604083850312156127e557600080fd5b8235915060208301356127f7816127a5565b809150509250929050565b60006020828403121561281457600080fd5b81357fffffffff000000000000000000000000000000000000000000000000000000008116811461073357600080fd5b60005b8381101561285f578181015183820152602001612847565b83811115610e335750506000910152565b60008151808452612888816020860160208601612844565b601f017fffffffffffffffffffffffffffffffffffffffffffffffffffffffffffffffe0169290920160200192915050565b6020815260006107336020830184612870565b6000602082840312156128df57600080fd5b610733826125cd565b60008060008060008060c0878903121561290157600080fd5b61290a876125cd565b9550602087013567ffffffffffffffff8082111561292757600080fd5b6129338a838b016126e6565b9650604089013595506060890135915061294c826127a5565b90935060808801359061295e826127a5565b90925060a0880135908082111561297457600080fd5b5061298189828a016126e6565b9150509295509295509295565b80151581146115d057600080fd5b600080600080600060a086880312156129b457600080fd5b6129bd866125cd565b9450602086013567ffffffffffffffff808211156129da57600080fd5b6129e689838a016126e6565b955060408801359450606088013591506129ff8261298e565b90925060808701359080821115612a1557600080fd5b50612a22888289016126e6565b9150509295509295909350565b60008083601f840112612a4157600080fd5b50813567ffffffffffffffff811115612a5957600080fd5b602083019150836020828501011115612a7157600080fd5b9250929050565b600080600060408486031215612a8d57600080fd5b612a96846125cd565b9250602084013567ffffffffffffffff811115612ab257600080fd5b612abe86828701612a2f565b9497909650939450505050565b600080600060608486031215612ae057600080fd5b612ae9846125cd565b9250602084013567ffffffffffffffff811115612b0557600080fd5b612b11868287016126e6565b9250506040840135612b2281612706565b809150509250925092565b600060208284031215612b3f57600080fd5b8135610733816127a5565b803560ff811681146125df57600080fd5b6000806000806000806000806000806101408b8d031215612b7b57600080fd5b612b848b6125cd565b995060208b013567ffffffffffffffff80821115612ba157600080fd5b612bad8e838f016126e6565b9a5060408d01359950612bc260608e016127c7565b9850612bd060808e016127c7565b975060a08d0135915080821115612be657600080fd5b50612bf38d828e016126e6565b95505060c08b01359350612c0960e08c01612b4a565b92506101008b013591506101208b013590509295989b9194979a5092959850565b600080600080600060808688031215612c4257600080fd5b612c4b866125cd565b9450612c59602087016125cd565b935060408601359250606086013567ffffffffffffffff811115612c7c57600080fd5b612c8888828901612a2f565b969995985093965092949392505050565b600060208284031215612cab57600080fd5b81356107338161298e565b60008060008060808587031215612ccc57600080fd5b843567ffffffffffffffff811115612ce357600080fd5b8501601f81018713612cf457600080fd5b612d03878235602084016126a8565b9450506020850135612d14816127a5565b92506040850135612d24816127a5565b91506060850135612d34816127a5565b939692955090935050565b60008060008060808587031215612d5557600080fd5b612d5e856125cd565b9350612d6c602086016125cd565b92506040850135612d7c816127a5565b9396929550929360600135925050565b600181811c90821680612da057607f821691505b60208210811415612dda577f4e487b7100000000000000000000000000000000000000000000000000000000600052602260045260246000fd5b50919050565b600060208284031215612df257600080fd5b81516107338161298e565b604081526000612e106040830185612870565b90508260208301529392505050565b61ffff8616815273ffffffffffffffffffffffffffffffffffffffff8516602082015260a060408201526000612e5860a0830186612870565b84151560608401528281036080840152612e728185612870565b98975050505050505050565b60008060408385031215612e9157600080fd5b505080516020909101519092909150565b8183823760009101908152919050565b8183528181602085013750600060208284010152600060207fffffffffffffffffffffffffffffffffffffffffffffffffffffffffffffffe0601f840116840101905092915050565b61ffff8416815260406020820152600061187e604083018486612eb2565b600061ffff808816835280871660208401525084604083015260806060830152612f47608083018486612eb2565b979650505050505050565b600082821015612f8b577f4e487b7100000000000000000000000000000000000000000000000000000000600052601160045260246000fd5b500390565b60008251612fa2818460208701612844565b9190910192915050565b600060208284031215612fbe57600080fd5b815161073381612706565b600082601f830112612fda57600080fd5b8151612fe86126b682612662565b818152846020838601011115612ffd57600080fd5b61300e826020830160208701612844565b949350505050565b60006020828403121561302857600080fd5b815167ffffffffffffffff81111561303f57600080fd5b61300e84828501612fc9565b61ffff851681526080602082015260006130686080830186612870565b67ffffffffffffffff851660408401528281036060840152612f478185612870565b6000806040838503121561309d57600080fd5b825167ffffffffffffffff8111156130b457600080fd5b6130c085828601612fc9565b925050602083015190509250929050565b61ffff8716815260c0602082015260006130ee60c0830188612870565b82810360408401526131008188612870565b73ffffffffffffffffffffffffffffffffffffffff87811660608601528616608085015283810360a085015290506131388185612870565b9998505050505050505050565b60006020828403121561315757600080fd5b505191905056fea2646970667358221220c3823e1ea4df103d8050da6be7407dae1e0bd7aed397a107d2bed42aca763ded64736f6c634300080c0033",
  "devdoc": {
    "author": "Angle Labs, Inc., forked from https://github.com/LayerZero-Labs/solidity-examples/blob/main/contracts/token/oft/OFT.sol",
    "kind": "dev",
    "methods": {
      "constructor": {
        "custom:oz-upgrades-unsafe-allow": "constructor"
      },
      "estimateSendFee(uint16,bytes,uint256,bool,bytes)": {
        "params": {
          "_adapterParams": "flexible bytes array to indicate messaging adapter services in L0",
          "_amount": "amount of the tokens to transfer",
          "_dstChainId": "L0 defined chain id to send tokens too",
          "_toAddress": "dynamic bytes array which contains the address to whom you are sending tokens to on the dstChain",
          "_useZro": "indicates to use zro to pay L0 fees"
        }
      },
      "initialize(string,address,address,address)": {
        "params": {
          "_coreBorrow": "Address of the `CoreBorrow` contract used for access control",
          "_lzEndpoint": "Layer zero endpoint to pass messages",
          "_name": "Name of the token corresponding to this contract"
        }
      },
      "lzReceive(uint16,bytes,uint64,bytes)": {
        "params": {
          "_nonce": "Nounce of the message",
          "_payload": "Data: recipient address and amount",
          "_srcAddress": "Sender of the source chain",
          "_srcChainId": "ChainId of the source chain - LayerZero standard"
        }
      },
      "nonblockingLzReceive(uint16,bytes,uint64,bytes)": {
        "details": "public for the needs of try / catch but effectively internal",
        "params": {
          "_nonce": "Nounce of the message",
          "_payload": "Data: recipient address and amount",
          "_srcAddress": "Sender of the source chain",
          "_srcChainId": "ChainId of the source chain - LayerZero standard"
        }
      },
      "pauseSendTokens(bool)": {
        "params": {
          "pause": "Future pause status"
        }
      },
      "paused()": {
        "details": "Returns true if the contract is paused, and false otherwise."
      },
      "retryMessage(uint16,bytes,uint64,bytes)": {
        "params": {
          "_nonce": "Nounce of the message",
          "_payload": "Data: recipient address and amount",
          "_srcAddress": "Sender of the source chain",
          "_srcChainId": "ChainId of the source chain - LayerZero standard"
        }
      },
      "send(uint16,bytes,uint256,address,address,bytes)": {
        "params": {
          "_adapterParams": "is a flexible bytes array to indicate messaging adapter services",
          "_amount": "the quantity of tokens in wei",
          "_dstChainId": "the destination chain identifier",
          "_refundAddress": "the address LayerZero refunds if too much message fee is sent",
          "_toAddress": "can be any size depending on the `dstChainId`.",
          "_zroPaymentAddress": "set to address(0x0) if not paying in ZRO (LayerZero Token)"
        }
      },
      "sendCredit(uint16,bytes,uint256,address,address,bytes)": {
        "params": {
          "_adapterParams": "is a flexible bytes array to indicate messaging adapter services",
          "_amount": "the quantity of credit to send in wei",
          "_dstChainId": "the destination chain identifier",
          "_refundAddress": "the address LayerZero refunds if too much message fee is sent",
          "_toAddress": "can be any size depending on the `dstChainId`.",
          "_zroPaymentAddress": "set to address(0x0) if not paying in ZRO (LayerZero Token)"
        }
      },
      "sendWithPermit(uint16,bytes,uint256,address,address,bytes,uint256,uint8,bytes32,bytes32)": {
        "details": "The `v`, `r`, and `s` parameters are used as signature data",
        "params": {
          "_adapterParams": "Flexible bytes array to indicate messaging adapter services",
          "_amount": "Quantity of tokens in wei",
          "_dstChainId": "The destination chain identifier",
          "_refundAddress": "Address LayerZero refunds if too much message fee is sent",
          "_toAddress": "Can be any size depending on the `dstChainId`.",
          "_zroPaymentAddress": "Set to address(0x0) if not paying in ZRO (LayerZero Token)",
          "deadline": "Deadline parameter for the signature to be valid"
        }
      },
      "setTrustedRemote(uint16,bytes)": {
        "details": "Used for both receiving and sending messageThere can only be one trusted source per chainAllows owner to set it multiple times.",
        "params": {
          "_srcAddress": "Address on the source chain",
          "_srcChainId": "ChainId of the source chain - LayerZero standard"
        }
      },
      "supportsInterface(bytes4)": {
        "details": "See {IERC165-supportsInterface}."
      },
      "sweep(uint256,address)": {
        "params": {
          "amount": "Amount to withdraw from balance",
          "recipient": "Address to withdraw from"
        }
      },
      "withdraw(uint256,address)": {
        "params": {
          "amount": "Amount to withdraw",
          "recipient": "Address to send the canonical token to"
        },
        "returns": {
          "_0": "The amount of canonical token sent"
        }
      },
      "withdrawFor(uint256,address)": {
        "params": {
          "amount": "Amount to withdraw",
          "recipient": "Address to withdraw for"
        },
        "returns": {
          "_0": "The amount of canonical token sent"
        }
      }
    },
    "title": "LayerZeroBridgeERC20",
    "version": 1
  },
  "userdoc": {
    "kind": "user",
    "methods": {
      "balanceOf(address)": {
        "notice": "Maps an address to the amount of token bridged but not received"
      },
      "canonicalToken()": {
        "notice": "Address of the bridgeable token"
      },
      "coreBorrow()": {
        "notice": "Reference to the `CoreBorrow` contract to fetch access control"
      },
      "estimateSendFee(uint16,bytes,uint256,bool,bytes)": {
        "notice": "Estimates send token `_tokenId` to (`_dstChainId`, `_toAddress`)"
      },
      "failedMessages(uint16,bytes,uint64)": {
        "notice": "Maps chainIds to failed messages to retry them"
      },
      "forceResumeReceive(uint16,bytes)": {
        "notice": "Unpauses the receive functionalities"
      },
      "getConfig(uint16,uint16,address,uint256)": {
        "notice": "Fetches the default LZ config"
      },
      "initialize(string,address,address,address)": {
        "notice": "Initializes the contract"
      },
      "isTrustedRemote(uint16,bytes)": {
        "notice": "Checks if the `_srcAddress` corresponds to the trusted source"
      },
      "lzEndpoint()": {
        "notice": "Layer Zero endpoint"
      },
      "lzReceive(uint16,bytes,uint64,bytes)": {
        "notice": "Receives a message from the LZ endpoint and process it"
      },
      "name()": {
        "notice": "Name of the contract for indexing purposes"
      },
      "nonblockingLzReceive(uint16,bytes,uint64,bytes)": {
        "notice": "Handles message receptions in a non blocking way"
      },
      "pauseSendTokens(bool)": {
        "notice": "Pauses bridging through the contract"
      },
      "retryMessage(uint16,bytes,uint64,bytes)": {
        "notice": "Retries a message that previously failed and was stored"
      },
      "send(uint16,bytes,uint256,address,address,bytes)": {
        "notice": "Sends `_amount` amount of token to (`_dstChainId`, `_toAddress`)"
      },
      "sendCredit(uint16,bytes,uint256,address,address,bytes)": {
        "notice": "Sends `_amount` amount of credit to (`_dstChainId`, `_toAddress`)"
      },
      "sendWithPermit(uint16,bytes,uint256,address,address,bytes,uint256,uint8,bytes32,bytes32)": {
        "notice": "Sends `_amount` amount of token to (`_dstChainId`, `_toAddress`)"
      },
      "setConfig(uint16,uint16,uint256,bytes)": {
        "notice": "Overrides the default LZ config"
      },
      "setReceiveVersion(uint16)": {
        "notice": "Overrides the default LZ config"
      },
      "setSendVersion(uint16)": {
        "notice": "Overrides the default LZ config"
      },
      "setTrustedRemote(uint16,bytes)": {
        "notice": "Sets the corresponding address on an other chain."
      },
      "sweep(uint256,address)": {
        "notice": "Decreases the balance of an address"
      },
      "trustedRemoteLookup(uint16)": {
        "notice": "Maps chainIds to their OFT address"
      },
      "withdraw(uint256,address)": {
        "notice": "Withdraws amount of canonical token from the `msg.sender` balance and sends it to the recipient"
      },
      "withdrawFor(uint256,address)": {
        "notice": "Withdraws amount of `token` from the contract and sends it to the recipient"
      }
    },
    "notice": "Contract to be deployed on Ethereum for bridging an ERC20 token (ANGLE for instance) using a bridge intermediate token and LayerZero",
    "version": 1
  },
  "storageLayout": {
    "storage": [
      {
        "astId": 6,
        "contract": "contracts/bridgeERC20/layerZero/LayerZeroBridgeERC20.sol:LayerZeroBridgeERC20",
        "label": "_initialized",
        "offset": 0,
        "slot": "0",
        "type": "t_bool"
      },
      {
        "astId": 9,
        "contract": "contracts/bridgeERC20/layerZero/LayerZeroBridgeERC20.sol:LayerZeroBridgeERC20",
        "label": "_initializing",
        "offset": 1,
        "slot": "0",
        "type": "t_bool"
      },
      {
        "astId": 7003,
        "contract": "contracts/bridgeERC20/layerZero/LayerZeroBridgeERC20.sol:LayerZeroBridgeERC20",
        "label": "lzEndpoint",
        "offset": 2,
        "slot": "0",
        "type": "t_contract(ILayerZeroEndpoint)8354"
      },
      {
        "astId": 7012,
        "contract": "contracts/bridgeERC20/layerZero/LayerZeroBridgeERC20.sol:LayerZeroBridgeERC20",
        "label": "failedMessages",
        "offset": 0,
        "slot": "1",
        "type": "t_mapping(t_uint16,t_mapping(t_bytes_memory_ptr,t_mapping(t_uint64,t_bytes32)))"
      },
      {
        "astId": 7017,
        "contract": "contracts/bridgeERC20/layerZero/LayerZeroBridgeERC20.sol:LayerZeroBridgeERC20",
        "label": "trustedRemoteLookup",
        "offset": 0,
        "slot": "2",
        "type": "t_mapping(t_uint16,t_bytes_storage)"
      },
      {
        "astId": 7020,
        "contract": "contracts/bridgeERC20/layerZero/LayerZeroBridgeERC20.sol:LayerZeroBridgeERC20",
        "label": "coreBorrow",
        "offset": 0,
        "slot": "3",
        "type": "t_address"
      },
      {
        "astId": 7499,
        "contract": "contracts/bridgeERC20/layerZero/LayerZeroBridgeERC20.sol:LayerZeroBridgeERC20",
        "label": "__gap",
        "offset": 0,
        "slot": "4",
        "type": "t_array(t_uint256)46_storage"
      },
      {
        "astId": 2245,
        "contract": "contracts/bridgeERC20/layerZero/LayerZeroBridgeERC20.sol:LayerZeroBridgeERC20",
        "label": "__gap",
        "offset": 0,
        "slot": "50",
        "type": "t_array(t_uint256)50_storage"
      },
      {
        "astId": 7846,
        "contract": "contracts/bridgeERC20/layerZero/LayerZeroBridgeERC20.sol:LayerZeroBridgeERC20",
        "label": "__gap",
        "offset": 0,
        "slot": "100",
        "type": "t_array(t_uint256)50_storage"
      },
      {
        "astId": 1383,
        "contract": "contracts/bridgeERC20/layerZero/LayerZeroBridgeERC20.sol:LayerZeroBridgeERC20",
        "label": "__gap",
        "offset": 0,
        "slot": "150",
        "type": "t_array(t_uint256)50_storage"
      },
      {
        "astId": 94,
        "contract": "contracts/bridgeERC20/layerZero/LayerZeroBridgeERC20.sol:LayerZeroBridgeERC20",
        "label": "_paused",
        "offset": 0,
        "slot": "200",
        "type": "t_bool"
      },
      {
        "astId": 185,
        "contract": "contracts/bridgeERC20/layerZero/LayerZeroBridgeERC20.sol:LayerZeroBridgeERC20",
        "label": "__gap",
        "offset": 0,
        "slot": "201",
        "type": "t_array(t_uint256)49_storage"
      },
      {
        "astId": 6191,
        "contract": "contracts/bridgeERC20/layerZero/LayerZeroBridgeERC20.sol:LayerZeroBridgeERC20",
        "label": "name",
        "offset": 0,
        "slot": "250",
        "type": "t_string_storage"
      },
      {
        "astId": 6195,
        "contract": "contracts/bridgeERC20/layerZero/LayerZeroBridgeERC20.sol:LayerZeroBridgeERC20",
        "label": "canonicalToken",
        "offset": 0,
        "slot": "251",
        "type": "t_contract(IERC20)3462"
      },
      {
        "astId": 6200,
        "contract": "contracts/bridgeERC20/layerZero/LayerZeroBridgeERC20.sol:LayerZeroBridgeERC20",
        "label": "balanceOf",
        "offset": 0,
        "slot": "252",
        "type": "t_mapping(t_address,t_uint256)"
      },
      {
        "astId": 6552,
        "contract": "contracts/bridgeERC20/layerZero/LayerZeroBridgeERC20.sol:LayerZeroBridgeERC20",
        "label": "__gap",
        "offset": 0,
        "slot": "253",
        "type": "t_array(t_uint256)47_storage"
      }
    ],
    "types": {
      "t_address": {
        "encoding": "inplace",
        "label": "address",
        "numberOfBytes": "20"
      },
      "t_array(t_uint256)46_storage": {
        "base": "t_uint256",
        "encoding": "inplace",
        "label": "uint256[46]",
        "numberOfBytes": "1472"
      },
      "t_array(t_uint256)47_storage": {
        "base": "t_uint256",
        "encoding": "inplace",
        "label": "uint256[47]",
        "numberOfBytes": "1504"
      },
      "t_array(t_uint256)49_storage": {
        "base": "t_uint256",
        "encoding": "inplace",
        "label": "uint256[49]",
        "numberOfBytes": "1568"
      },
      "t_array(t_uint256)50_storage": {
        "base": "t_uint256",
        "encoding": "inplace",
        "label": "uint256[50]",
        "numberOfBytes": "1600"
      },
      "t_bool": {
        "encoding": "inplace",
        "label": "bool",
        "numberOfBytes": "1"
      },
      "t_bytes32": {
        "encoding": "inplace",
        "label": "bytes32",
        "numberOfBytes": "32"
      },
      "t_bytes_memory_ptr": {
        "encoding": "bytes",
        "label": "bytes",
        "numberOfBytes": "32"
      },
      "t_bytes_storage": {
        "encoding": "bytes",
        "label": "bytes",
        "numberOfBytes": "32"
      },
      "t_contract(IERC20)3462": {
        "encoding": "inplace",
        "label": "contract IERC20",
        "numberOfBytes": "20"
      },
      "t_contract(ILayerZeroEndpoint)8354": {
        "encoding": "inplace",
        "label": "contract ILayerZeroEndpoint",
        "numberOfBytes": "20"
      },
      "t_mapping(t_address,t_uint256)": {
        "encoding": "mapping",
        "key": "t_address",
        "label": "mapping(address => uint256)",
        "numberOfBytes": "32",
        "value": "t_uint256"
      },
      "t_mapping(t_bytes_memory_ptr,t_mapping(t_uint64,t_bytes32))": {
        "encoding": "mapping",
        "key": "t_bytes_memory_ptr",
        "label": "mapping(bytes => mapping(uint64 => bytes32))",
        "numberOfBytes": "32",
        "value": "t_mapping(t_uint64,t_bytes32)"
      },
      "t_mapping(t_uint16,t_bytes_storage)": {
        "encoding": "mapping",
        "key": "t_uint16",
        "label": "mapping(uint16 => bytes)",
        "numberOfBytes": "32",
        "value": "t_bytes_storage"
      },
      "t_mapping(t_uint16,t_mapping(t_bytes_memory_ptr,t_mapping(t_uint64,t_bytes32)))": {
        "encoding": "mapping",
        "key": "t_uint16",
        "label": "mapping(uint16 => mapping(bytes => mapping(uint64 => bytes32)))",
        "numberOfBytes": "32",
        "value": "t_mapping(t_bytes_memory_ptr,t_mapping(t_uint64,t_bytes32))"
      },
      "t_mapping(t_uint64,t_bytes32)": {
        "encoding": "mapping",
        "key": "t_uint64",
        "label": "mapping(uint64 => bytes32)",
        "numberOfBytes": "32",
        "value": "t_bytes32"
      },
      "t_string_storage": {
        "encoding": "bytes",
        "label": "string",
        "numberOfBytes": "32"
      },
      "t_uint16": {
        "encoding": "inplace",
        "label": "uint16",
        "numberOfBytes": "2"
      },
      "t_uint256": {
        "encoding": "inplace",
        "label": "uint256",
        "numberOfBytes": "32"
      },
      "t_uint64": {
        "encoding": "inplace",
        "label": "uint64",
        "numberOfBytes": "8"
      }
    }
  }
}